:020000040800F2
:1000000000280020E5230008752300087B23000852
:1000100081230008872300088D23000800000000CA
:100020000000000000000000000000009323000812
:100030009F23000800000000AB230008B72300083E
:100040002D2400082D2400082D2400082D2400084C
:100050002D2400082D2400082D2400082D2400083C
:100060002D2400082D2400082D2400082D2400082C
:100070002D2400082D2400082D2400082D2400081C
:100080002D2400082D2400082D2400082D2400080C
:100090002D2400082D2400082D2400082D240008FC
:1000A0002D2400082D2400082D2400082D240008EC
:1000B000C52300082D240008000000002D2400089E
:1000C0002D24000800000000000000002D2400087E
:1000D000000000002D2400082D240008000000006E
:1000E0002D2400082D2400082D2400080000000005
:1000F0000000000000000000000000000000000000
:0C01000000000000000000005FF808F1A3
:10010C0010B5054C237833B9044B13B10448AFF345
:10011C0000800123237010BD80000020000000002F
:10012C005C3A000808B5034B1BB103490348AFF315
:10013C00008008BD00000000840000205C3A00082C
:10014C0080B500AF00F016FC00F0F2FB00BF80BDE4
:10015C0080B582B000AF78607B68092B00F2B28169
:10016C0001A252F823F000BF9D010008EF01000826
:10017C004102000893020008E5020008370300085A
:10018C0089030008DB0300082D0400087F04000825
:10019C0000224021CD4802F046FC00228021CB48B1
:1001AC0002F041FC00224FF48071C84802F03BFC85
:1001BC0000224FF40071C54802F035FC00224FF4C8
:1001CC008061C24802F02FFC00224FF40061BF484E
:1001DC0002F029FC01224FF48051BC4802F023FCB0
:1001EC0070E101224021B94802F01DFC002280215F
:1001FC00B64802F018FC00224FF48071B34802F0AC
:10020C0012FC01224FF40071B04802F00CFC0122E8
:10021C004FF48061AD4802F006FC01224FF40061FE
:10022C00AA4802F000FC01224FF48051A74802F0CA
:10023C00FAFB47E100224021A44802F0F4FB002223
:10024C008021A24802F0EFFB01224FF480719F48FD
:10025C0002F0E9FB00224FF400719C4802F0E3FB32
:10026C0000224FF48061994802F0DDFB01224FF42B
:10027C000061964802F0D7FB00224FF4805193485E
:10028C0002F0D1FB1EE100224021904802F0CBFB92
:10029C00002280218D4802F0C6FB00224FF48071B1
:1002AC008A4802F0C0FB00224FF40071874802F02C
:1002BC00BAFB01224FF48061844802F0B4FB0122A6
:1002CC004FF40061814802F0AEFB00224FF48051E4
:1002DC007E4802F0A8FBF5E0012240217B4802F0A9
:1002EC00A2FB00228021794802F09DFB00224FF4F2
:1002FC008071764802F097FB01224FF4007173482D
:10030C0002F091FB01224FF48061704802F08BFBEC
:10031C0000224FF400616D4802F085FB00224FF47F
:10032C0080516A4802F07FFBCCE0002240216748F4
:10033C0002F079FB01228021644802F074FB002258
:10034C004FF48071614802F06EFB00224FF4007193
:10035C005E4802F068FB01224FF480615B4802F0BA
:10036C0062FB00224FF40061584802F05CFB002253
:10037C004FF48051554802F056FBA3E00022402177
:10038C00524802F050FB01228021504802F04BFBF6
:10039C0000224FF480714D4802F045FB00224FF4CF
:1003AC0000714A4802F03FFB00224FF4806147483D
:1003BC0002F039FB00224FF40061444802F033FB99
:1003CC0000224FF48051414802F02DFB7AE00022CC
:1003DC0040213E4802F027FB002280213B4802F0DE
:1003EC0022FB00224FF48071384802F01CFB0122E2
:1003FC004FF40071354802F016FB01224FF4806176
:10040C00324802F010FB01224FF400612F4802F039
:10041C000AFB01224FF480512C4802F004FB51E0FE
:10042C0000224021294802F0FEFA002280212748B0
:10043C0002F0F9FA00224FF48071244802F0F3FA2A
:10044C0000224FF40071214802F0EDFA00224FF423
:10045C0080611E4802F0E7FA00224FF400611B484D
:10046C0002F0E1FA00224FF48051184802F0DBFA56
:10047C0028E000224021154802F0D5FA0022802104
:10048C00124802F0D0FA00224FF480710F4802F0AB
:10049C00CAFA00224FF400710C4802F0C4FA01228F
:1004AC004FF48061094802F0BEFA00224FF400615B
:1004BC00064802F0B8FA00224FF48051034802F0CB
:1004CC00B2FA00BF00BF0837BD4680BD000C01402A
:1004DC0080B582B000AF78607B68092B00F2B281E6
:1004EC0001A252F823F000BF1D0500086F0500089B
:1004FC00C10500081306000865060008B7060008C9
:10050C00090700085B070008AD070008FF07000893
:10051C0000224021CD4802F086FA00228021CB48EF
:10052C0002F081FA00224FF48071C84802F07BFA85
:10053C0000224FF40071C54802F075FA00224FF406
:10054C008061C24802F06FFA00224FF40061BF488C
:10055C0002F069FA01224FF48051BC4802F063FAB0
:10056C0070E101224021B94802F05DFA002280219D
:10057C00B64802F058FA00224FF48071B34802F0EA
:10058C0052FA01224FF40071B04802F04CFA0122E9
:10059C004FF48061AD4802F046FA01224FF400613D
:1005AC00AA4802F040FA01224FF48051A74802F009
:1005BC003AFA47E100224021A44802F034FA002222
:1005CC008021A24802F02FFA01224FF480719F483B
:1005DC0002F029FA00224FF400719C4802F023FA31
:1005EC0000224FF48061994802F01DFA01224FF469
:1005FC000061964802F017FA00224FF4805193489C
:10060C0002F011FA1EE100224021904802F00BFA90
:10061C00002280218D4802F006FA00224FF48071EE
:10062C008A4802F000FA00224FF40071874802F069
:10063C00FAF901224FF48061844802F0F4F90122A6
:10064C004FF40061814802F0EEF900224FF4805122
:10065C007E4802F0E8F9F5E0012240217B4802F0E7
:10066C00E2F900228021794802F0DDF900224FF4F2
:10067C008071764802F0D7F901224FF4007173486B
:10068C0002F0D1F901224FF48061704802F0CBF9ED
:10069C0000224FF400616D4802F0C5F900224FF4BE
:1006AC0080516A4802F0BFF9CCE000224021674833
:1006BC0002F0B9F901228021644802F0B4F9002259
:1006CC004FF48071614802F0AEF900224FF40071D2
:1006DC005E4802F0A8F901224FF480615B4802F0F9
:1006EC00A2F900224FF40061584802F09CF9002254
:1006FC004FF48051554802F096F9A3E000224021B6
:10070C00524802F090F901228021504802F08BF9F6
:10071C0000224FF480714D4802F085F900224FF40D
:10072C0000714A4802F07FF900224FF4806147487B
:10073C0002F079F900224FF40061444802F073F999
:10074C0000224FF48051414802F06DF97AE000220A
:10075C0040213E4802F067F9002280213B4802F01C
:10076C0062F900224FF48071384802F05CF90122E2
:10077C004FF40071354802F056F901224FF48061B4
:10078C00324802F050F901224FF400612F4802F078
:10079C004AF901224FF480512C4802F044F951E0FF
:1007AC0000224021294802F03EF9002280212748EE
:1007BC0002F039F900224FF48071244802F033F929
:1007CC0000224FF40071214802F02DF900224FF461
:1007DC0080611E4802F027F900224FF400611B488B
:1007EC0002F021F900224FF48051184802F01BF955
:1007FC0028E000224021154802F015F90022802142
:10080C00124802F010F900224FF480710F4802F0E8
:10081C000AF900224FF400710C4802F004F901228D
:10082C004FF48061094802F0FEF800224FF4006199
:10083C00064802F0F8F800224FF48051034802F009
:10084C00F2F800BF00BF0837BD4680BD000801406C
:10085C0080B582B000AF78607B68002B03D07B68DA
:10086C00012B12D023E000221021134802F0DBF8F8
:10087C0001222021104802F0D6F8104A7B6852F869
:10088C0023301846FFF764FC11E0012210210A48BE
:10089C0002F0C9F800222021074802F0C4F8074AE8
:1008AC007B6852F823301846FFF752FC00BF00BF9C
:1008BC000837BD4680BD00BF000C01409C000020E5
:1008CC0080B582B000AF78607B68002B03D07B686A
:1008DC00012B12D023E000220221134802F0A3F8CE
:1008EC0001220421104802F09EF8104A7B6852F84D
:1008FC0023301846FFF7ECFD11E0012202210A48D3
:10090C0002F091F800220421074802F08CF8074A03
:10091C007B6852F823301846FFF7DAFD00BF00BFA2
:10092C000837BD4680BD00BF000C0140A40000206C
:10093C0080B500AF0D4B1B68012B14D10C4B1B6801
:10094C00012B02DD0A4B00221A60094B1B6818466A
:10095C00FFF77EFF064B1B680133054A13604FF40B
:10096C00FA7001F0DFFA00BF80BD00BF1C0100204F
:10097C000400002080B500AF0D4B1B68012B14D177
:10098C000C4B1B68012B02DD0A4B00221A60094B31
:10099C001B681846FFF794FF064B1B680133054A8A
:1009AC0013604FF4FA7001F0A3FA00BF80BD00BFD2
:1009BC00140100200000002080B400AF064B1B681F
:1009CC00012B04D1044B00221A60012300E0002308
:1009DC001846BD4680BC7047AC00002080B400AF08
:1009EC00064B1B68012B04D1044B00221A60012317
:1009FC0000E000231846BD4680BC7047B0000020C4
:100A0C0080B400AF064B1B68012B04D1044B0022B1
:100A1C001A60012300E000231846BD4680BC7047D5
:100A2C00B400002080B400AF064B1B68012B04D12E
:100A3C00044B00221A60012300E000231846BD4637
:100A4C0080BC7047B800002080B582B000AF002396
:100A5C007B60394A7B6852F8232038497B6841F81F
:100A6C002320374A7B6852F8232033497B6841F8AE
:100A7C0023204FF40051334801F0BEFF03461946C2
:100A8C002F4A7B6842F823102C4A7B6852F82320AB
:100A9C0029497B6851F823309A4249D1264A7B6810
:100AAC0052F8232026497B6851F823309A423FD1D3
:100ABC00254A7B6852F8232021497B6851F8233062
:100ACC009A4217D01E4A7B6852F823201E497B6835
:100ADC0041F823201A4A7B6852F82330002B27D187
:100AEC001A4B01221A601A4A7B684FF4967142F82D
:100AFC0023101DE0124A7B6852F82330002B17D1CB
:100B0C00134A7B6852F823305A1E11497B6841F80E
:100B1C0023200F4A7B6852F82330002B08D10B4B53
:100B2C0001221A600A4A7B684FF4967142F823102E
:100B3C0000BF0837BD4680BD18000020080000200B
:100B4C00280000200008014038000020AC000020E4
:100B5C004800002080B582B000AF01237B60384A8A
:100B6C007B6852F8232037497B6841F82320364AAA
:100B7C007B6852F8232032497B6841F823204FF4DC
:100B8C008041324801F038FF034619462E4A7B68F3
:100B9C0042F823102B4A7B6852F8232028497B68A3
:100BAC0051F823309A4247D1254A7B6852F82320CA
:100BBC0025497B6851F823309A423DD1244A7B6801
:100BCC0052F8232020497B6851F823309A4216D0E2
:100BDC001D4A7B6852F823201D497B6841F823206D
:100BEC00194A7B6852F82330002B25D1194B01226E
:100BFC001A60194A7B68322142F823101CE0124A11
:100C0C007B6852F82330002B16D1134A7B6852F8BC
:100C1C0023305A1E10497B6841F823200E4A7B680A
:100C2C0052F82330002B07D10A4B01221A600A4AD2
:100C3C007B68322142F8231000BF0837BD4680BDC7
:100C4C0018000020080000202800002000080140A7
:100C5C0038000020B00000204800002080B582B091
:100C6C0000AF02237B60384A7B6852F82320374957
:100C7C007B6841F82320364A7B6852F8232032499E
:100C8C007B6841F823204FF40041324801F0B4FE58
:100C9C00034619462E4A7B6842F823102B4A7B6880
:100CAC0052F8232028497B6851F823309A4247D1C7
:100CBC00254A7B6852F8232025497B6851F823305C
:100CCC009A423DD1244A7B6852F8232020497B6804
:100CDC0051F823309A4216D01D4A7B6852F82320D3
:100CEC001D497B6841F82320194A7B6852F8233050
:100CFC00002B25D1194B01221A60194A7B6832212D
:100D0C0042F823101CE0124A7B6852F82330002B67
:100D1C0016D1134A7B6852F823305A1E10497B684F
:100D2C0041F823200E4A7B6852F82330002B07D160
:100D3C000A4B01221A600A4A7B68322142F82310BE
:100D4C0000BF0837BD4680BD1800002008000020F9
:100D5C00280000200008014038000020B4000020CA
:100D6C004800002080B582B000AF03237B60394A75
:100D7C007B6852F8232038497B6841F82320374A96
:100D8C007B6852F8232033497B6841F823200121EA
:100D9C00334801F031FE03461946304A7B6842F86D
:100DAC0023102D4A7B6852F823202A497B6851F87E
:100DBC0023309A4249D1274A7B6852F8232027498D
:100DCC007B6851F823309A423FD1264A7B6852F80F
:100DDC00232022497B6851F823309A4217D01F4AAE
:100DEC007B6852F823201F497B6841F823201B4A5B
:100DFC007B6852F82330002B27D11B4B01221A6041
:100E0C001A4A7B684FF4967142F823101DE0134A7E
:100E1C007B6852F82330002B17D1144A7B6852F8A8
:100E2C0023305A1E11497B6841F823200F4A7B68F6
:100E3C0052F82330002B08D10B4B01221A600B4ABD
:100E4C007B684FF4967142F8231000BF0837BD46FB
:100E5C0080BD00BF180000200800002028000020E2
:100E6C00000C014038000020B80000204800002091
:100E7C0080B500AF00F004F800F010F900BF80BDA1
:100E8C0080B582B000AF7B4B1B68032B00F2ED806A
:100E9C0001A252F823F000BFB50E0008ED0E0008B9
:100EAC00710F0008EB0F000800237B600AE0724A08
:100EBC007B6852F8232071497B6841F823207B68BA
:100ECC0001337B607B68022BF1DD4FF47A7001F00B
:100EDC0043F86B4B01221A60664B01221A60C4E086
:100EEC0001220421674801F09EFD0022082165487B
:100EFC0001F099FD00221021624801F094FD5F4B36
:100F0C001B68614A82FB03129210DB17D31A5F4AEB
:100F1C0013605A4B19685C4B83FB01239A10CB1757
:100F2C00D21A13469B0013445B00CA1A574B5A60E3
:100F3C00574B1B68012B08D1504B1B68013B4F4A88
:100F4C0013604FF47A7001F007F84C4B1B68002BC0
:100F5C0040F086804FF47A7001F032F8454B032252
:100F6C001A607DE000220421464801F05CFD01225C
:100F7C000821444801F057FD00221021414801F09E
:100F8C0052FD3E4B5B68404A82FB03129210DB170A
:100F9C00D31A3E4A1360394B59683B4B83FB0123F0
:100FAC009A10CB17D21A13469B0013445B00CA1A33
:100FBC00364B5A60374B1B68012B08D12F4B5B68A3
:100FCC00013B2E4A53604FF47A7000F0DFFF2B4B3D
:100FDC005B68002B46D1274B00221A6042E00022AE
:100FEC000421284801F01FFD00220821254801F0AA
:100FFC001AFD01221021234801F015FD1F4B9B689F
:10100C00214A82FB03129210DB17D31A1F4A13607A
:10101C001A4B99681C4B83FB01239A10CB17D21ADD
:10102C0013469B0013445B00CA1A184B5A601A4BA8
:10103C001B68012B08D1114B9B68013B0F4A936035
:10104C004FF47A7000F0BCFF0C4B9B68002B0BD15B
:10105C004FF47A7000F09AFF064B02221A6003E0FC
:10106C0000BF02E000BF00E000BF00BF0837BD4674
:10107C0080BD00BFD400002064000020C800002008
:10108C00000000200008014067666666A40000208E
:10109C00240100202C0100203401002080B582B0F6
:1010AC0000AF7F4B1B68032B00F2F68001A252F8B5
:1010BC0023F000BFD1100008091100088B110008A3
:1010CC001312000800237B600AE0764A7B6852F812
:1010DC00232075497B6841F823207B6801337B60B2
:1010EC007B68022BF1DD4FF47A7000F0B7FF6F4B89
:1010FC0001221A606A4B03221A60CDE001224FF4E0
:10110C0000516B4801F08FFC00224FF4804168487D
:10111C0001F089FC00224FF40041654801F083FC8A
:10112C00614B1B68634A82FB03129210DB17D31AC4
:10113C00614A13605C4B19685E4B83FB01239A1068
:10114C00CB17D21A13469B0013445B00CA1A5A4B96
:10115C005A605A4B1B68012B08D1534B1B68013B3F
:10116C00514A13604FF47A7000F044FF4E4B1B68E9
:10117C00002B40F08C804A4B00221A6087E0002242
:10118C004FF400514A4801F04EFC01224FF48041CB
:10119C00474801F048FC00224FF40041444801F05C
:1011AC0042FC414B5B68434A82FB03129210DB17F3
:1011BC00D31A414A13603C4B59683E4B83FB0123C5
:1011CC009A10CB17D21A13469B0013445B00CA1A11
:1011DC00394B5A603A4B1B68012B08D1324B5B6878
:1011EC00013B314A53604FF47A7000F01DFF2E4BD7
:1011FC005B68002B4DD14FF47A7000F0FBFE284B4E
:10120C0001221A6045E000224FF40051284801F0F9
:10121C000AFC00224FF48041254801F004FC012215
:10122C004FF40041224801F0FEFB1F4B9B68214A02
:10123C0082FB03129210DB17D31A1F4A13601A4B4E
:10124C0099681C4B83FB01239A10CB17D21A1346B7
:10125C009B0013445B00CA1A174B5A60194B1B684E
:10126C00012B08D1104B9B68013B0F4A93604FF444
:10127C007A7000F0F3FE0C4B9B68002B0BD14FF4F3
:10128C007A7000F0D1FE064B02221A6003E000BF18
:10129C0002E000BF00E000BF00BF0837BD4680BDC4
:1012AC00D800002058000020BC00002004000020C2
:1012BC00000C0140676666669C0000203C01002023
:1012CC00440100204C01002080B500AFA04B1B68EE
:1012DC00072B00F2CD8201A252F823F0091300086B
:1012EC00231300083D130008571300087D1800084D
:1012FC00711300082B14000885150008FFF75CFB20
:10130C000346012B40F0A782914B04221A60914BAB
:10131C0004221A609FE2FFF74FFB0346012B40F0BB
:10132C009C828B4B04221A608A4B04221A6094E232
:10133C00FFF742FB0346012B40F09182844B0422C1
:10134C001A60844B04221A6089E2FFF735FB0346CE
:10135C00012B40F086827E4B04221A607D4B0422C6
:10136C001A607EE2FFF728FB0346012B0DD1784B68
:10137C0006221A60774B06221A6042F2107000F0B7
:10138C0087FE4FF4FA7000F09DFEFFF727FB034633
:10139C00012B17D1704B01221A60704B1B68632B09
:1013AC0009DC6E4B1B68002B05DD6C4B1B68013395
:1013BC006A4A136002E0694B01221A6042F2107013
:1013CC0000F066FEFFF71CFB0346012B17D1644BA4
:1013DC0001221A60614B1B68632B09DC5F4B1B6895
:1013EC00002B05DD5D4B1B68013B5C4A136002E082
:1013FC005A4B01221A6042F2107000F049FEFFF7BE
:10140C0011FB0346012B40F02E82514B00221A6037
:10141C00504B00221A60534B00221A6023E2FFF754
:10142C00CBFA0346012B0DD1494B07221A60494BCD
:10143C0007221A6042F2107000F02AFE4FF4FA7084
:10144C0000F040FEFFF7CAFA0346012B17D1464BBA
:10145C0001221A60414B5B68632B09DC3F4B5B68D4
:10146C00002B05DD3D4B5B6801333C4A536002E0C9
:10147C003A4B01225A6042F2107000F009FEFFF75D
:10148C00BFFA0346012B17D1384B01221A60334B9C
:10149C005B68632B09DC314B5B68002B05DD2F4B44
:1014AC005B68013B2D4A536002E02C4B01225A60D1
:1014BC0042F2107000F0ECFDFFF7B4FA0346012B7A
:1014CC0040F0D381244B1B68012B03D0244B1B68A9
:1014DC00012B32D1244B1B68012B03D0234B1B68EF
:1014EC00012B2AD11D4B1A681C4B5B68D31A1B4A63
:1014FC0093601A4B5A68194B9B689A421DDA174B2A
:10150C005A68164B1B689A4217DA144B1B68184A18
:10151C001360124B1B68174A1360104B5B68144A1C
:10152C0053600E4B5B68134A53600C4B9B68104A1C
:10153C0093600A4B9B680F4A9360054B00221A601C
:10154C00044B00221A60074B00221A608DE100BF89
:10155C00D4000020D8000020F4000020DC00002083
:10156C000001002054010020F8000020040100209C
:10157C006400002058000020FFF71EFA0346012BE0
:10158C0005D17F4B00221A607E4B00221A60FFF7B8
:10159C0025FA0346012B17D17B4B01221A607B4B9A
:1015AC009B68632B09DC794B9B68002B05DD774B23
:1015BC009B680133754A936002E0744B01229A6078
:1015CC0042F2107000F064FDFFF71AFA0346012B8B
:1015DC0017D16F4B01221A606C4B9B68632B09DC93
:1015EC006A4B9B68002B05DD684B9B68013B674A87
:1015FC00936002E0654B01229A6042F2107000F099
:10160C0047FDFFF70FFA0346012B40F03081614B89
:10161C001B68012B03D0604B1B68012B35D15F4B32
:10162C001B68012B03D05E4B1B68012B2DD1574B34
:10163C001A68564B5B68D31A544A9360534B5A68DA
:10164C00524B9B689A4280F2F780504B5A684F4B32
:10165C001B689A4280F2F0804C4B1B68514A136015
:10166C004A4B1B68504A1360484B5B684D4A5360A9
:10167C00464B5B684C4A5360444B9B68494A9360A9
:10168C00424B9B68484A9360D6E0424B1B68012B47
:10169C0003D0414B1B68012B35D13B4B1B68012BF5
:1016AC0003D03B4B1B68012B2DD1384B1A68374BA1
:1016BC009B68D31A354A5360344B5A68334B9B683A
:1016CC009A4280F2BB80314B5A68304B1B689A426D
:1016DC0080F2B4802D4B1B68324A13602B4B1B6875
:1016EC00314A1360294B5B682E4A5360274B5B6869
:1016FC002D4A5360254B9B682A4A9360234B9B6869
:10170C00294A93609AE0254B1B68012B03D0244B8C
:10171C001B68012B4AD11C4B1B68012B03D01C4BA3
:10172C001B68012B42D1194B5A68184B9B68134408
:10173C00164A1360154B5A68144B9B689A427FDA11
:10174C00124B5A68114B1B689A4279DA0F4B1B6883
:10175C00144A13600D4B1B68134A13600B4B5B68E8
:10176C00104A5360094B5B680F4A5360074B9B68E8
:10177C000C4A9360054B9B680B4A936060E000BF7A
:10178C00D4000020D8000020FC000020DC00002049
:10179C0008010020F400002000010020F8000020C7
:1017AC00040100206400002058000020314B1B680D
:1017BC00012B03D0304B1B68012B42D12F4B1B68E4
:1017CC00012B03D02E4B1B68012B3AD12D4B1B68E0
:1017DC00012B03D02C4B1B68012B32D12B4B5A689D
:1017EC002A4B9B689A422CDA284B5A68274B1B6869
:1017FC009A4226DA254B1A68244B5968234B9B686E
:10180C000B449A421DD1214B1B68214A13601F4B7C
:10181C001B68204A13601D4B5B681D4A53601B4BB1
:10182C005B681C4A5360194B9B68194A9360174BB1
:10183C009B68184A936004E000BF02E000BF00E020
:10184C0000BF154B00221A60144B00221A60144B77
:10185C0000221A600BE000BF0AE000BF08E000BFE6
:10186C0006E000BF04E000BF02E000BF00E000BFE4
:10187C0000BF80BDF400002000010020F800002013
:10188C0004010020FC00002008010020DC000020E6
:10189C006400002058000020D4000020D800002054
:1018AC005401002080B582B000AF8B4B1B68043B09
:1018BC00032B00F2A58101A252F823F0D9180008DD
:1018CC00551900081D1A00083D1B000800237B60F9
:1018DC000AE0824A7B6852F8232081497B6841F8F0
:1018EC0023207B6801337B607B68022BF1DD42F2A5
:1018FC00107000F0CDFB4FF4FA7000F0E3FB794B65
:10190C0000221A60784B00221A60784B00221A6071
:10191C00774B00221A60774B00221A60764B00221C
:10192C001A60764B00221A60754B00221A60754BB8
:10193C0000221A60744B01221A60744B01221A6047
:10194C00654B05221A605BE16C4B1B68002B0DD1BB
:10195C006A4B01221A60012204216D4801F063F8E0
:10196C0001224FF400516B4801F05DF86A4B1B6883
:10197C00012B0CD10421664801F06DF84FF4005195
:10198C00644801F068F84FF4FA7000F09BFB0022F9
:10199C0008215F4801F047F800224FF480415D4870
:1019AC0001F041F800221021594801F03CF80022C6
:1019BC004FF40041574801F036F8494B1B68574A21
:1019CC0082FB03129210DB17D31A554A1360444B57
:1019DC001968524B83FB01239A10CB17D21A13466A
:1019EC009B0013445B00CA1A4D4B5A604D4B0022AE
:1019FC001A604C4B02225A604B4B1B68012B40F077
:101A0C00FA80354B00221A60484B00221A60F2E033
:101A1C003B4B1B68002B0DD1394B01221A60012264
:101A2C0008213B4800F0FFFF01224FF48041394868
:101A3C0000F0F9FF384B1B68012B0CD108213448FE
:101A4C0001F009F84FF48041324801F004F84FF4EA
:101A5C00FA7000F037FB002204212D4800F0E3FF60
:101A6C0000224FF400512B4800F0DDFF0022102122
:101A7C00274800F0D8FF00224FF40041254800F021
:101A8C00D2FF174B5B68254A82FB03129210DB17BF
:101A9C00D31A234A1360124B5968204B83FB012342
:101AAC009A10CB17D21A13469B0013445B00CA1A28
:101ABC001B4B5A601B4B00221A601A4B03225A60B4
:101ACC00194B1B68012B40F09880034B00221A60C5
:101ADC00164B00221A6090E0D40000206400002015
:101AEC00DC000020F4000020F8000020FC000020A6
:101AFC00000100200401002008010020E800002063
:101B0C00EC000020F0000020000000200400002069
:101B1C0000080140000C01405C010020676666660D
:101B2C00A40000209C00002054010020D8000020BC
:101B3C00354B1B68002B0DD1334B01221A6001224F
:101B4C001021324800F06FFF01224FF40041304861
:101B5C0000F069FF2F4B1B68012B0CD110212B4877
:101B6C0000F079FF4FF40041294800F074FF4FF466
:101B7C00FA7000F0A7FA00220421244800F053FF69
:101B8C0000224FF40051224800F04DFF00220821A2
:101B9C001E4800F048FF00224FF480411C4800F022
:101BAC0042FF1D4B9B681D4A82FB03129210DB17F0
:101BBC00D31A1B4A1360184B9968184B83FB0123EB
:101BCC009A10CB17D21A13469B0013445B00CA1A07
:101BDC00134B5A60134B00221A60124B04225A60AA
:101BEC00114B1B68012B0AD1104B00221A60104BB1
:101BFC0000221A6003E000BF02E000BF00E000BF5B
:101C0C0000BF0837BD4680BDF00000200008014031
:101C1C00000C01405C010020DC0000206766666659
:101C2C00A40000209C00002054010020D4000020BF
:101C3C00D800002080B500AF00F0F4FB00F02EF8C7
:101C4C0000F0B4F800F066F8114801F049FB4FF4CD
:101C5C007A7000F033F94FF4FA7000F049F94FF450
:101C6C00FA7000F05FF90B4B1B68012B07D1202198
:101C7C00094800F0F0FE4FF47A7000F01FF9FFF7FE
:101C8C0023FBFFF70FFEFFF7F3F8FEF759FAEAE72D
:101C9C00640100200C0100200008014080B590B0C8
:101CAC0000AF07F1180328220021184601F0C8FEE6
:101CBC003B1D00221A605A609A60DA601A61022396
:101CCC00BB610123BB621023FB6200237B6307F122
:101CDC001803184600F0D8FE0346002B01D000F084
:101CEC00E7F80F237B600023BB600023FB6000231D
:101CFC003B6100237B613B1D0021184601F044F938
:101D0C000346002B01D000F0D3F800BF4037BD468E
:101D1C0080BD000080B586B000AF07F1080300223B
:101D2C001A605A609A60DA603B4600221A605A6068
:101D3C001D4B4FF080421A601B4B41F63F725A60AC
:101D4C00194B00229A60184B0922DA60164B0022BC
:101D5C001A61154B00229A61134801F071FA03467F
:101D6C00002B01D000F0A4F84FF48053BB6007F1B6
:101D7C00080319460C4801F0EFFB0346002B01D079
:101D8C0000F096F800233B6000237B603B4619462D
:101D9C00054801F0C7FD0346002B01D000F088F880
:101DAC0000BF1837BD4680BD6401002080B586B0E9
:101DBC0000AF07F1080300221A605A609A60DA60DB
:101DCC002F4B9B692E4A43F0040393612C4B9B6968
:101DDC0003F004037B607B68294B9B69284A43F022
:101DEC0008039361264B9B6903F008033B603B6837
:101DFC00002241F6FC71234800F015FE00224FF63C
:101E0C00F671214800F00FFE41F6FC73BB60012314
:101E1C00FB6000233B6102237B6107F10803194639
:101E2C00184800F06FFC0123BB600023FB6001230A
:101E3C003B6107F108031946134800F063FC4FF6A9
:101E4C00F673BB600123FB6000233B6102237B61C3
:101E5C0007F1080319460C4800F054FC4FF460439A
:101E6C00BB600023FB6001233B6107F108031946AB
:101E7C00044800F047FC00BF1837BD4680BD00BFCA
:101E8C000010024000080140000C014080B582B0F7
:101E9C0000AF786000F030F9FEF7D6FDFEF75AFE81
:101EAC00FEF7DCFEFEF75EFF00BF0837BD4680BDC7
:101EBC0080B400AF72B600BFFEE7000080B483B000
:101ECC0000AF7860074B1B687A6892FBF3F3064A05
:101EDC001360064B00221A6000BF0C37BD4680BC55
:101EEC00704700BF70000020100100200C01002082
:101EFC0080B483B000AF7860074B1B687A6892FBA4
:101F0C00F3F3064A1360064B00221A6000BF0C372D
:101F1C00BD4680BC704700BF700000201801002037
:101F2C001401002080B483B000AF7860074B1B68AD
:101F3C007A6892FBF3F3064A1360064B00221A6090
:101F4C0000BF0C37BD4680BC704700BF700000203E
:101F5C00200100201C01002080B483B000AF786009
:101F6C00074B1B687A6892FBF3F3064A1360064B27
:101F7C0000221A6000BF0C37BD4680BC704700BF02
:101F8C0070000020280100202401002080B483B0C0
:101F9C0000AF7860074B1B687A6892FBF3F3064A34
:101FAC001360064B00221A6000BF0C37BD4680BC84
:101FBC00704700BF70000020300100202C01002071
:101FCC0080B483B000AF7860074B1B687A6892FBD3
:101FDC00F3F3064A1360064B00221A6000BF0C375D
:101FEC00BD4680BC704700BF700000203801002047
:101FFC003401002080B483B000AF7860074B1B68BD
:10200C007A6892FBF3F3064A1360064B00221A60BF
:10201C0000BF0C37BD4680BC704700BF700000206D
:10202C00400100203C01002080B483B000AF7860F8
:10203C00074B1B687A6892FBF3F3064A1360064B56
:10204C0000221A6000BF0C37BD4680BC704700BF31
:10205C0070000020480100204401002080B483B0AF
:10206C0000AF7860074B1B687A6892FBF3F3064A63
:10207C001360064B00221A6000BF0C37BD4680BCB3
:10208C00704700BF70000020500100204C01002060
:10209C0080B483B000AF7860074B1B687A6892FB02
:1020AC00F3F3064A1360064B00221A6000BF0C378C
:1020BC00BD4680BC704700BF700000205801002056
:1020CC005401002080B483B000AF7860074B1B68CC
:1020DC007A6892FBF3F3064A1360064B00221A60EF
:1020EC0000BF0C37BD4680BC704700BF700000209D
:1020FC00600100205C01002080B400AF594B1B68CC
:10210C00002B0BDD574B1B68013B564A1360554B9C
:10211C001B68002B02DC544B01221A60534B1B68CA
:10212C00002B0BDD514B1B68013B504A13604F4B8E
:10213C001B68002B02DC4E4B01221A604D4B1B68B6
:10214C00002B0BDD4B4B1B68013B4A4A1360494B80
:10215C001B68002B02DC484B01221A60474B1B68A2
:10216C00002B0BDD454B1B68013B444A1360434B72
:10217C001B68002B02DC424B01221A60414B1B688E
:10218C00002B0BDD3F4B1B68013B3E4A13603D4B64
:10219C001B68002B02DC3C4B01221A603B4B1B687A
:1021AC00002B0BDD394B1B68013B384A1360374B56
:1021BC001B68002B02DC364B01221A60354B1B6866
:1021CC00002B0BDD334B1B68013B324A1360314B48
:1021DC001B68002B02DC304B01221A602F4B1B6852
:1021EC00002B0BDD2D4B1B68013B2C4A13602B4B3A
:1021FC001B68002B02DC2A4B01221A60294B1B683E
:10220C00002B0BDD274B1B68013B264A1360254B2B
:10221C001B68002B02DC244B01221A60234B1B6829
:10222C00002B0BDD214B1B68013B204A13601F4B1D
:10223C001B68002B02DC1E4B01221A601D4B1B6815
:10224C00002B0BDD1B4B1B68013B1A4A1360194B0F
:10225C001B68002B02DC184B01221A6000BFBD4624
:10226C0080BC7047100100200C01002018010020D8
:10227C0014010020200100201C0100202801002056
:10228C0024010020300100202C0100203801002006
:10229C0034010020400100203C01002048010020B6
:1022AC0044010020500100204C0100205801002066
:1022BC0054010020600100205C01002080B485B036
:1022CC0000AF154B9B69144A43F001039361124B09
:1022DC009B6903F00103BB60BB680F4BDB690E4AC3
:1022EC0043F08053D3610C4BDB6903F080537B606C
:1022FC007B680A4B5B68FB60FB6823F0E063FB6068
:10230C00FB6843F08063FB60044AFB68536000BFCA
:10231C001437BD4680BC70470010024000000140DD
:10232C0080B584B000AF78607B681B68B3F1804FD8
:10233C0013D10C4BDB690B4A43F00103D361094BFE
:10234C00DB6903F00103FB60FB68002200211C2009
:10235C0000F0A1F91C2000F0BAF900BF1037BD46FF
:10236C0080BD00BF0010024080B400AFFEE780B417
:10237C0000AFFEE780B400AFFEE780B400AFFEE72D
:10238C0080B400AFFEE780B400AF00BFBD4680BC98
:10239C00704780B400AF00BFBD4680BC704780B4AE
:1023AC0000AF00BFBD4680BC704780B500AF00F0E9
:1023BC007FF800BF80BD000080B500AF024800F080
:1023CC00DBFF00BF80BD00BF6401002080B400AF04
:1023DC0000BFBD4680BC7047FFF7F8FF0B480C49A7
:1023EC000C4A002302E0D458C4500433C4188C4265
:1023FC00F9D3094A094C002301E013600432A242CC
:10240C00FBD301F0F9FAFFF715FC70470000002030
:10241C0080000020A03A000880000020B0010020BD
:10242C00FEE7000080B500AF084B1B68074A43F07D
:10243C0010031360032000F023F90F2000F008F8BC
:10244C00FFF73CFF0023184680BD00BF0020024070
:10245C0080B582B000AF7860124B1A68124B1B78B3
:10246C0019464FF47A73B3FBF1F3B2FBF3F318464E
:10247C0000F03BF90346002B01D001230EE07B68F2
:10248C000F2B0AD8002279684FF0FF3000F003F9C7
:10249C00064A7B681360002300E0012318460837C6
:1024AC00BD4680BD740000207C0000207800002018
:1024BC0080B400AF054B1B781A46054B1B681344C0
:1024CC00034A136000BFBD4680BC70477C000020EF
:1024DC00AC01002080B400AF024B1B681846BD460F
:1024EC0080BC7047AC01002080B485B000AF786030
:1024FC007B6803F00703FB600C4BDB68BB60BA68BE
:10250C004FF6FF031340BB60FB681A02BB68134312
:10251C0043F0BF6343F40033BB60044ABB68D36031
:10252C0000BF1437BD4680BC704700BF00ED00E013
:10253C0080B400AF044BDB681B0A03F0070318469A
:10254C00BD4680BC704700BF00ED00E080B483B096
:10255C0000AF0346FB7197F90730002B0BDBFB79BF
:10256C0003F01F02064997F907305B09012000FAB6
:10257C0002F241F8232000BF0C37BD4680BC7047E7
:10258C0000E100E080B483B000AF03463960FB711A
:10259C0097F90730002B0ADB3B68DAB20C4997F944
:1025AC0007301201D2B20B4483F800230AE03B68D7
:1025BC00DAB20849FB7903F00F03043B1201D2B2E3
:1025CC000B441A7600BF0C37BD4680BC704700BF69
:1025DC0000E100E000ED00E080B489B000AFF860ED
:1025EC00B9607A60FB6803F00703FB61FB69C3F118
:1025FC000703042B28BF0423BB61FB690433062BA0
:10260C0002D9FB69033B00E000237B614FF0FF32F2
:10261C00BB6902FA03F3DA43BB681A407B699A4040
:10262C004FF0FF317B6901FA03F3D9437B680B4010
:10263C00134318462437BD4680BC704780B582B022
:10264C0000AF78607B68013BB3F1807F01D301233D
:10265C000FE00A4A7B68013B53600F214FF0FF30BB
:10266C00FFF790FF054B00229A60044B07221A607B
:10267C00002318460837BD4680BD00BF10E000E0BF
:10268C0080B582B000AF78607868FFF72DFF00BF8F
:10269C000837BD4680BD80B586B000AF0346B96033
:1026AC007A60FB7300237B61FFF742FF78617A68E5
:1026BC00B9687869FFF790FF024697F90F30114619
:1026CC001846FFF75FFF00BF1837BD4680BD80B5C9
:1026DC0082B000AF0346FB7197F907301846FFF73D
:1026EC0035FF00BF0837BD4680BD80B582B000AF56
:1026FC0078607868FFF7A2FF034618460837BD4696
:10270C0080BD000080B48BB000AF786039600023CE
:10271C007B6200233B6248E101227B6A02FA03F3ED
:10272C00FB613B681B68FA691340BB61BA69FB69C2
:10273C009A4240F037813B685B68A34A93425ED073
:10274C00A14A934275D8A14A934258D09F4A9342CA
:10275C006FD89F4A934252D09D4A934269D89D4A62
:10276C0093424CD09B4A934263D89B4A934246D0A7
:10277C00994A93425DD8122B2AD8122B59D801A210
:10278C0052F823F00B280008E5270008F72700086B
:10279C00392800083F2800083F2800083F28000877
:1027AC003F2800083F2800083F2800083F28000861
:1027BC003F2800083F2800083F2800083F28000851
:1027CC003F2800083F280008ED27000801280008D2
:1027DC00824A934213D02CE03B68DB683B6229E0D1
:1027EC003B68DB6804333B6224E03B68DB680833FE
:1027FC003B621FE03B68DB680C333B621AE03B68D2
:10280C009B68002B02D104233B6213E03B689B685E
:10281C00012B05D108233B627B68FA691A6109E038
:10282C0008233B627B68FA695A6103E000233B6230
:10283C0000E000BFBB69FF2B01D87B6801E07B681F
:10284C0004337B61BB69FF2B02D87B6A9B0002E0DF
:10285C007B6A083B9B003B617B691A680F213B69D3
:10286C0001FA03F3DB431A40396A3B6901FA03F3BB
:10287C001A437B691A603B685B6803F08053002B3A
:10288C0000F09080564B9B69554A43F001039361CD
:10289C00534B9B6903F00103BB60BB68514A7B6AD5
:1028AC009B08023352F82330FB607B6A03F003036E
:1028BC009B000F2202FA03F3DB43FA681340FB6020
:1028CC007B68494A93420DD07B68484A934207D0B3
:1028DC007B68474A934201D1022304E0032302E0C0
:1028EC00012300E000237A6A02F003029200934075
:1028FC00FA681343FB603B497B6A9B080233FA6816
:10290C0041F823203B685B6803F48013002B06D04E
:10291C00384B9A683749BB6913438B6006E0354BDB
:10292C009A68BB69DB43334913408B603B685B6837
:10293C0003F40013002B06D02E4BDA682D49BB692B
:10294C001343CB6006E02B4BDA68BB69DB432949A8
:10295C001340CB603B685B6803F40033002B06D05C
:10296C00244B5A682349BB6913434B6006E0214B47
:10297C005A68BB69DB431F4913404B603B685B687B
:10298C0003F48033002B06D01A4B1A681949BB6923
:10299C0013430B6006E0174B1A68BB69DB43154900
:1029AC0013400B607B6A01337B623B681A687B6A5D
:1029BC0022FA03F3002B7FF4AFAE00BF00BF2C371D
:1029CC00BD4680BC704700BF0000321000003110C3
:1029DC000000221000002110000012100000111045
:1029EC00001002400000014000080140000C0140B2
:1029FC00001001400004014080B485B000AF786045
:102A0C000B467B807B689A687B881340002B02D036
:102A1C000123FB7301E00023FB73FB7B1846143787
:102A2C00BD4680BC704780B483B000AF78600B4665
:102A3C007B8013467B707B78002B03D07A887B6875
:102A4C001A6103E07B881A047B681A6100BF0C379B
:102A5C00BD4680BC704780B485B000AF78600B4633
:102A6C007B807B68DB68FB607A88FB6813401A0408
:102A7C00FB68D9437B880B401A437B681A6100BF03
:102A8C001437BD4680BC704780B586B000AF786007
:102A9C007B68002B01D101236CE27B681B6803F07F
:102AAC000103002B00F08780924B5B6803F00C0352
:102ABC00042B0CD08F4B5B6803F00C03082B12D14A
:102ACC008C4B5B6803F48033B3F5803F0BD1894B9F
:102ADC001B6803F40033002B6CD07B685B68002B05
:102AEC0068D1012346E27B685B68B3F5803F06D171
:102AFC00804B1B687F4A43F4803313602EE07B6865
:102B0C005B68002B0CD17B4B1B687A4A23F4803317
:102B1C001360784B1B68774A23F4802313601DE005
:102B2C007B685B68B3F5A02F0CD1724B1B68714AA4
:102B3C0043F4802313606F4B1B686E4A43F480335D
:102B4C0013600BE06B4B1B686A4A23F480331360F1
:102B5C00684B1B68674A23F4802313607B685B68AF
:102B6C00002B13D0FFF7B6FC386108E0FFF7B2FC7E
:102B7C0002463B69D31A642B01D90323FAE15D4B5E
:102B8C001B6803F40033002BF0D014E0FFF7A2FC19
:102B9C00386108E0FFF79EFC02463B69D31A642BB0
:102BAC0001D90323E6E1534B1B6803F40033002BDC
:102BBC00F0D100E000BF7B681B6803F00203002B20
:102BCC0063D04C4B5B6803F00C03002B0BD0494BD0
:102BDC005B6803F00C03082B1CD1464B5B6803F4B9
:102BEC008033002B16D1434B1B6803F00203002BE0
:102BFC0005D07B681B69012B01D00123BAE13D4B49
:102C0C001B6823F0F8027B685B69DB0039491343CE
:102C1C000B603AE07B681B69002B20D0364B0122FD
:102C2C001A60FFF757FC386108E0FFF753FC0246C7
:102C3C003B69D31A022B01D903239BE12D4B1B6853
:102C4C0003F00203002BF0D02A4B1B6823F0F80290
:102C5C007B685B69DB00274913430B6015E0264B4F
:102C6C0000221A60FFF736FC386108E0FFF732FCEF
:102C7C0002463B69D31A022B01D903237AE11D4B7F
:102C8C001B6803F00203002BF0D17B681B6803F078
:102C9C000803002B3AD07B689B69002B19D0174B8B
:102CAC0001221A60FFF716FC386108E0FFF712FCEE
:102CBC0002463B69D31A022B01D903235AE10D4B6F
:102CCC005B6A03F00203002BF0D0012000F09AFAAB
:102CDC001CE00A4B00221A60FFF7FCFB38610FE086
:102CEC00FFF7F8FB02463B69D31A022B08D90323E2
:102CFC0040E100BF0010024000004242800442420A
:102D0C009E4B5B6A03F00203002BE9D17B681B68C6
:102D1C0003F00403002B00F0A6800023FB75974BF7
:102D2C00DB6903F08053002B0DD1944BDB69934A84
:102D3C0043F08053D361914BDB6903F08053BB604C
:102D4C00BB680123FB758E4B1B6803F48073002B4F
:102D5C0018D18B4B1B688A4A43F480731360FFF7BE
:102D6C00B9FB386108E0FFF7B5FB02463B69D31AA3
:102D7C00642B01D90323FDE0814B1B6803F48073A2
:102D8C00002BF0D07B68DB68012B06D17B4B1B6AD8
:102D9C007A4A43F0010313622DE07B68DB68002B59
:102DAC000CD1764B1B6A754A23F001031362734BEB
:102DBC001B6A724A23F0040313621CE07B68DB6815
:102DCC00052B0CD16D4B1B6A6C4A43F00403136248
:102DDC006A4B1B6A694A43F0010313620BE0674BB1
:102DEC001B6A664A23F001031362644B1B6A634A35
:102DFC0023F0040313627B68DB68002B15D0FFF70C
:102E0C0069FB38610AE0FFF765FB02463B69D31AA0
:102E1C0041F28832934201D90323ABE0574B1B6A32
:102E2C0003F00203002BEED014E0FFF753FB3861E4
:102E3C000AE0FFF74FFB02463B69D31A41F2883296
:102E4C00934201D9032395E04C4B1B6A03F0020318
:102E5C00002BEED1FB7D012B05D1484BDB69474A9A
:102E6C0023F08053D3617B68DB69002B00F08180F9
:102E7C00424B5B6803F00C03082B61D07B68DB6969
:102E8C00022B46D13F4B00221A60FFF723FB38611F
:102E9C0008E0FFF71FFB02463B69D31A022B01D94E
:102EAC00032367E0354B1B6803F00073002BF0D154
:102EBC007B681B6AB3F5803F08D1304B5B6823F409
:102ECC0000327B689B682D4913434B602B4B5B682E
:102EDC0023F474127B68196A7B685B6A0B4327497D
:102EEC0013434B60274B01221A60FFF7F3FA38614A
:102EFC0008E0FFF7EFFA02463B69D31A022B01D91F
:102F0C00032337E01D4B1B6803F00073002BF0D03C
:102F1C002FE01C4B00221A60FFF7DCFA386108E046
:102F2C00FFF7D8FA02463B69D31A022B01D90323C7
:102F3C0020E0124B1B6803F00073002BF0D118E05B
:102F4C007B68DB69012B01D1012313E00B4B5B6820
:102F5C00FB60FB6803F480327B681B6A9A4206D1E3
:102F6C00FB6803F470127B685B6A9A4201D0012300
:102F7C0000E0002318461837BD4680BD0010024003
:102F8C00007000406000424280B584B000AF7860B1
:102F9C0039607B68002B01D10123D0E06A4B1B68A0
:102FAC0003F007033A689A4210D9674B1B6823F069
:102FBC00070265493B6813430B60634B1B6803F0C6
:102FCC0007033A689A4201D00123B8E07B681B687A
:102FDC0003F00203002B20D07B681B6803F0040372
:102FEC00002B05D0594B5B68584A43F4E06353609F
:102FFC007B681B6803F00803002B05D0534B5B6800
:10300C00524A43F460535360504B5B6823F0F00218
:10301C007B689B684D4913434B607B681B6803F0CE
:10302C000103002B40D07B685B68012B07D1474B19
:10303C001B6803F40033002B15D101237FE07B6860
:10304C005B68022B07D1414B1B6803F00073002B0C
:10305C0009D1012373E03D4B1B6803F00203002BE5
:10306C0001D101236BE0394B5B6823F003027B68D1
:10307C005B68364913434B60FFF72CFAF8600AE0A3
:10308C00FFF728FA0246FB68D31A41F288329342C2
:10309C0001D9032353E02D4B5B6803F00C027B68D2
:1030AC005B689B009A42EBD1274B1B6803F007032C
:1030BC003A689A4210D2244B1B6823F0070222492B
:1030CC003B6813430B60204B1B6803F007033A6803
:1030DC009A4201D0012332E07B681B6803F00403A1
:1030EC00002B08D0194B5B6823F4E0627B68DB682B
:1030FC00164913434B607B681B6803F00803002BD5
:10310C0009D0124B5B6823F460527B681B69DB00AF
:10311C000E4913434B6000F021F802460B4B5B68E1
:10312C001B0903F00F030A49CB5C22FA03F3094A8B
:10313C001360094B1B681846FFF78AF900231846E1
:10314C001037BD4680BD00BF002002400010024079
:10315C00743A0008740000207800002080B487B016
:10316C0000AF0023FB600023BB6000237B610023C6
:10317C007B6000233B611E4B5B68FB60FB6803F0CC
:10318C000C03042B02D0082B03D027E0194B3B6116
:10319C0027E0FB689B0C03F00F03174AD35C7B60A2
:1031AC00FB6803F48033002B10D0114B5B685B0C75
:1031BC0003F00103114AD35CBB607B680D4A02FB30
:1031CC0003F2BB68B2FBF3F37B6104E07B680C4A4F
:1031DC0002FB03F37B617B693B6102E0054B3B61C6
:1031EC0000BF3B6918461C37BD4680BC704700BF0A
:1031FC000010024000127A00843A0008943A000849
:10320C0000093D0080B485B000AF78600A4B1B68A4
:10321C000A4AA2FB03235B0A7A6802FB03F3FB60F6
:10322C0000BFFB685A1EFA60002BF9D100BF00BF2B
:10323C001437BD4680BC704774000020D34D62101B
:10324C0080B582B000AF78607B68002B01D1012380
:10325C0041E07B6893F83D30DBB2002B06D17B68F4
:10326C00002283F83C207868FFF75AF87B6802222A
:10327C0083F83D207B681A687B6804331946104636
:10328C0000F056FA7B68012283F846207B68012205
:10329C0083F83E207B68012283F83F207B68012263
:1032AC0083F840207B68012283F841207B6801224F
:1032BC0083F842207B68012283F843207B6801223B
:1032CC0083F844207B68012283F845207B68012227
:1032DC0083F83D20002318460837BD4680BD00000A
:1032EC0080B485B000AF78607B6893F83D30DBB27A
:1032FC00012B01D0012335E07B68022283F83D20AD
:10330C007B681B68DA687B681B6842F00102DA6034
:10331C007B681B68164A934209D07B681B68B3F123
:10332C00804F04D07B681B68124A934211D17B6892
:10333C001B689B6803F00703FB60FB68062B10D02F
:10334C007B681B681A687B681B6842F001021A6074
:10335C0007E07B681B681A687B681B6842F00102F7
:10336C001A60002318461437BD4680BC704700BF56
:10337C00002C01400004004080B584B000AF7860A0
:10338C007B681B68DB68FB607B681B681B69BB6028
:10339C00BB6803F00203002B20D0FB6803F0020390
:1033AC00002B1BD07B681B686FF002021A617B68D4
:1033BC0001221A777B681B689B6903F00303002BBF
:1033CC0003D0786800F098F905E0786800F08BF984
:1033DC00786800F09AF97B6800221A77BB6803F0D2
:1033EC000403002B20D0FB6803F00403002B1BD03C
:1033FC007B681B686FF004021A617B6802221A77E3
:10340C007B681B689B6903F44073002B03D07868BE
:10341C0000F072F905E0786800F065F9786800F062
:10342C0074F97B6800221A77BB6803F00803002B41
:10343C0020D0FB6803F00803002B1BD07B681B68B3
:10344C006FF008021A617B6804221A777B681B688C
:10345C00DB6903F00303002B03D0786800F04CF910
:10346C0005E0786800F03FF9786800F04EF97B6869
:10347C0000221A77BB6803F01003002B20D0FB68E6
:10348C0003F01003002B1BD07B681B686FF010023D
:10349C001A617B6808221A777B681B68DB6903F466
:1034AC004073002B03D0786800F026F905E07868AB
:1034BC0000F019F9786800F028F97B6800221A7777
:1034CC00BB6803F00103002B0CD0FB6803F0010375
:1034DC00002B07D07B681B686FF001021A617868BB
:1034EC00FEF7D4FCBB6803F08003002B0CD0FB6808
:1034FC0003F08003002B07D07B681B686FF0800201
:10350C001A61786800F06FFABB6803F04003002B77
:10351C000CD0FB6803F04003002B07D07B681B68C2
:10352C006FF040021A61786800F0F8F8BB6803F09D
:10353C002003002B0CD0FB6803F02003002B07D0DA
:10354C007B681B686FF020021A61786800F042FA01
:10355C0000BF1037BD4680BD80B584B000AF786029
:10356C0039600023FB737B6893F83C30012B01D14D
:10357C000223B4E07B68012283F83C207B680222A2
:10358C0083F83D207B681B689B68BB60BB6823F09D
:10359C007703BB60BB6823F47F43BB607B681B680D
:1035AC00BA689A603B681B68B3F5005F3ED0B3F510
:1035BC00005F00F28780B3F5805F00F08680B3F582
:1035CC00805F7FD8702B1AD0702B7BD8602B50D09B
:1035DC00602B77D8502B3CD0502B73D8402B58D025
:1035EC00402B6FD8302B64D0302B6BD8202B60D075
:1035FC00202B67D8002B5CD0102B5AD062E07B6854
:10360C0018683B6899683B685A683B68DB6800F04F
:10361C006AF97B681B689B68BB60BB6843F07703E7
:10362C00BB607B681B68BA689A604FE07B6818685F
:10363C003B6899683B685A683B68DB6800F053F953
:10364C007B681B689A687B681B6842F480429A60AE
:10365C003CE07B6818683B6859683B68DB681A4635
:10366C0000F0CAF87B681B685021184600F021F95D
:10367C002CE07B6818683B6859683B68DB681A4625
:10368C0000F0E8F87B681B686021184600F011F91F
:10369C001CE07B6818683B6859683B68DB681A4615
:1036AC0000F0AAF87B681B684021184600F001F96D
:1036BC000CE07B681A683B681B681946104600F0E2
:1036CC00F8F803E00123FB7300E000BF7B680122E4
:1036DC0083F83D207B68002283F83C20FB7B184656
:1036EC001037BD4680BD80B483B000AF786000BF9A
:1036FC000C37BD4680BC704780B483B000AF786097
:10370C0000BF0C37BD4680BC704780B483B000AF9F
:10371C00786000BF0C37BD4680BC704780B483B066
:10372C0000AF786000BF0C37BD4680BC704700000E
:10373C0080B485B000AF786039607B681B68FB6033
:10374C007B682B4A934207D07B68B3F1804F03D040
:10375C007B68284A934208D1FB6823F07003FB6016
:10376C003B685B68FA681343FB607B68204A9342B2
:10377C0007D07B68B3F1804F03D07B681D4A93421E
:10378C0008D1FB6823F44073FB603B68DB68FA6884
:10379C001343FB60FB6823F080023B685B691343B7
:1037AC00FB607B68FA681A603B689A687B68DA622F
:1037BC003B681A687B689A627B680D4A934203D116
:1037CC003B681A697B681A637B6801225A617B68C3
:1037DC001B6903F00103002B05D07B681B6923F0E8
:1037EC0001027B681A6100BF1437BD4680BC70476C
:1037FC00002C01400004004080B487B000AFF8609A
:10380C00B9607A60FB681B6A7B61FB681B6A23F0FA
:10381C000102FB681A62FB689B693B613B6923F000
:10382C00F0033B617B681B013A6913433B617B6985
:10383C0023F00A037B617A69BB6813437B61FB68E5
:10384C003A699A61FB687A691A6200BF1C37BD46F7
:10385C0080BC704780B487B000AFF860B9607A6004
:10386C00FB681B6A7B61FB681B6A23F01002FB6818
:10387C001A62FB689B693B613B6923F470433B61B3
:10388C007B681B033A6913433B617B6923F0A003FC
:10389C007B61BB681B017A6913437B61FB683A69E6
:1038AC009A61FB687A691A6200BF1C37BD4680BCFE
:1038BC00704780B485B000AF786039607B689B68D6
:1038CC00FB60FB6823F07003FB603A68FB681343F2
:1038DC0043F00703FB607B68FA689A6000BF1437FB
:1038EC00BD4680BC704780B487B000AFF860B9604B
:1038FC007A603B60FB689B687B617B6923F47F4348
:10390C007B613B681A027B681A43BB6813437A6974
:10391C0013437B61FB687A699A6000BF1C37BD4614
:10392C0080BC704780B485B000AF786039607B682C
:10393C0093F83C30012B01D1022341E07B6801223A
:10394C0083F83C207B68022283F83D207B681B684F
:10395C005B68FB607B681B689B68BB60FB6823F043
:10396C007003FB603B681B68FA681343FB607B6861
:10397C001B68FA685A607B681B68144A934209D02A
:10398C007B681B68B3F1804F04D07B681B68104ABE
:10399C0093420CD1BB6823F08003BB603B685B682F
:1039AC00BA681343BB607B681B68BA689A607B6813
:1039BC00012283F83D207B68002283F83C20002301
:1039CC0018461437BD4680BC704700BF002C014020
:1039DC000004004080B483B000AF786000BF0C37A7
:1039EC00BD4680BC704780B483B000AF786000BF28
:1039FC000C37BD4680BC704770B500260C4D0D4C85
:103A0C00641BA410A64209D100F022F800260A4D2E
:103A1C000A4C641BA410A64205D170BD55F8043B9A
:103A2C0098470136EEE755F8043B98470136F2E724
:103A3C00983A0008983A0008983A00089C3A00080E
:103A4C0003460244934200D1704703F8011BF9E787
:103A5C00F8B500BFF8BC08BC9E467047F8B500BF6F
:083A6C00F8BC08BC9E4670473F
:103A7400000000000000000001020304060708091A
:103A840002030405060708090A0B0C0D0E0F10109B
:043A9400010200002B
:043A980031010008F0
:043A9C000D01000810
:103AA0000100000001000000010000000100000012
:103AB0000100000001000000010000000100000002
:103AC00001000000010000000100000001000000F2
:103AD00001000000010000000100000001000000E2
:103AE00001000000010000002C0100003200000075
:103AF000320000002C010000050000000200000060
:103B000003000000050000000200000003000000A8
:103B10000A00000000127A001000000001000000FE
:04000005080023E5E7
:00000001FF
