:020000040800F2
:10000000002800209124000821240008272400084B
:100010002D240008332400083924000800000000C3
:100020000000000000000000000000003F24000865
:100030004B24000800000000572400086324000837
:10004000D9240008D9240008D9240008D92400089C
:10005000D9240008D9240008D9240008D92400088C
:10006000D9240008D9240008D9240008D92400087C
:10007000D9240008D9240008D9240008D92400086C
:10008000D9240008D9240008D9240008D92400085C
:10009000D9240008D9240008D9240008D92400084C
:1000A000D9240008D9240008D9240008D92400083C
:1000B00071240008D924000800000000D924000899
:1000C000D92400080000000000000000D924000826
:1000D00000000000D9240008D92400080000000016
:1000E000D9240008D9240008D92400080000000001
:1000F0000000000000000000000000000000000000
:0C01000000000000000000005FF808F1A3
:10010C0010B5054C237833B9044B13B10448AFF345
:10011C0000800123237010BD880000200000000027
:10012C00083B000808B5034B1BB103490348AFF368
:10013C00008008BD000000008C000020083B000877
:10014C0080B500AF00F0ACFC00F0F2FB00BF80BD4E
:10015C0080B582B000AF78607B68092B00F2B28169
:10016C0001A252F823F000BF9D010008EF01000826
:10017C004102000893020008E5020008370300085A
:10018C0089030008DB0300082D0400087F04000825
:10019C0000224021CD4802F09CFC00228021CB485B
:1001AC0002F097FC00224FF48071C84802F091FCD9
:1001BC0000224FF40071C54802F08BFC00224FF472
:1001CC008061C24802F085FC00224FF40061BF48F8
:1001DC0002F07FFC01224FF48051BC4802F079FC04
:1001EC0070E101224021B94802F073FC0022802109
:1001FC00B64802F06EFC00224FF48071B34802F056
:10020C0068FC01224FF40071B04802F062FC01223C
:10021C004FF48061AD4802F05CFC01224FF40061A8
:10022C00AA4802F056FC01224FF48051A74802F074
:10023C0050FC47E100224021A44802F04AFC002275
:10024C008021A24802F045FC01224FF480719F48A6
:10025C0002F03FFC00224FF400719C4802F039FC84
:10026C0000224FF48061994802F033FC01224FF4D4
:10027C000061964802F02DFC00224FF48051934807
:10028C0002F027FC1EE100224021904802F021FCE4
:10029C00002280218D4802F01CFC00224FF480715A
:1002AC008A4802F016FC00224FF40071874802F0D5
:1002BC0010FC01224FF48061844802F00AFC0122F8
:1002CC004FF40061814802F004FC00224FF480518D
:1002DC007E4802F0FEFBF5E0012240217B4802F053
:1002EC00F8FB00228021794802F0F3FB00224FF446
:1002FC008071764802F0EDFB01224FF400717348D7
:10030C0002F0E7FB01224FF48061704802F0E1FB40
:10031C0000224FF400616D4802F0DBFB00224FF429
:10032C0080516A4802F0D5FBCCE00022402167489E
:10033C0002F0CFFB01228021644802F0CAFB0022AC
:10034C004FF48071614802F0C4FB00224FF400713D
:10035C005E4802F0BEFB01224FF480615B4802F064
:10036C00B8FB00224FF40061584802F0B2FB0022A7
:10037C004FF48051554802F0ACFBA3E00022402121
:10038C00524802F0A6FB01228021504802F0A1FB4A
:10039C0000224FF480714D4802F09BFB00224FF479
:1003AC0000714A4802F095FB00224FF480614748E7
:1003BC0002F08FFB00224FF40061444802F089FBED
:1003CC0000224FF48051414802F083FB7AE0002276
:1003DC0040213E4802F07DFB002280213B4802F088
:1003EC0078FB00224FF48071384802F072FB012236
:1003FC004FF40071354802F06CFB01224FF4806120
:10040C00324802F066FB01224FF400612F4802F0E3
:10041C0060FB01224FF480512C4802F05AFB51E052
:10042C0000224021294802F054FB00228021274859
:10043C0002F04FFB00224FF48071244802F049FB7C
:10044C0000224FF40071214802F043FB00224FF4CC
:10045C0080611E4802F03DFB00224FF400611B48F6
:10046C0002F037FB00224FF48051184802F031FBA8
:10047C0028E000224021154802F02BFB00228021AD
:10048C00124802F026FB00224FF480710F4802F054
:10049C0020FB00224FF400710C4802F01AFB0122E1
:1004AC004FF48061094802F014FB00224FF4006104
:1004BC00064802F00EFB00224FF48051034802F074
:1004CC0008FB00BF00BF0837BD4680BD000C0140D3
:1004DC0080B582B000AF78607B68092B00F2B281E6
:1004EC0001A252F823F000BF1D0500086F0500089B
:1004FC00C10500081306000865060008B7060008C9
:10050C00090700085B070008AD070008FF07000893
:10051C0000224021CD4802F0DCFA00228021CB4899
:10052C0002F0D7FA00224FF48071C84802F0D1FAD9
:10053C0000224FF40071C54802F0CBFA00224FF4B0
:10054C008061C24802F0C5FA00224FF40061BF4836
:10055C0002F0BFFA01224FF48051BC4802F0B9FA04
:10056C0070E101224021B94802F0B3FA0022802147
:10057C00B64802F0AEFA00224FF48071B34802F094
:10058C00A8FA01224FF40071B04802F0A2FA01223D
:10059C004FF48061AD4802F09CFA01224FF40061E7
:1005AC00AA4802F096FA01224FF48051A74802F0B3
:1005BC0090FA47E100224021A44802F08AFA002276
:1005CC008021A24802F085FA01224FF480719F48E5
:1005DC0002F07FFA00224FF400719C4802F079FA85
:1005EC0000224FF48061994802F073FA01224FF413
:1005FC000061964802F06DFA00224FF48051934846
:10060C0002F067FA1EE100224021904802F061FAE4
:10061C00002280218D4802F05CFA00224FF4807198
:10062C008A4802F056FA00224FF40071874802F013
:10063C0050FA01224FF48061844802F04AFA0122F8
:10064C004FF40061814802F044FA00224FF48051CB
:10065C007E4802F03EFAF5E0012240217B4802F090
:10066C0038FA00228021794802F033FA00224FF444
:10067C008071764802F02DFA01224FF40071734814
:10068C0002F027FA01224FF48061704802F021FA3F
:10069C0000224FF400616D4802F01BFA00224FF467
:1006AC0080516A4802F015FACCE0002240216748DC
:1006BC0002F00FFA01228021644802F00AFA0022AB
:1006CC004FF48071614802F004FA00224FF400717B
:1006DC005E4802F0FEF901224FF480615B4802F0A3
:1006EC00F8F900224FF40061584802F0F2F90022A8
:1006FC004FF48051554802F0ECF9A3E00022402160
:10070C00524802F0E6F901228021504802F0E1F94A
:10071C0000224FF480714D4802F0DBF900224FF4B7
:10072C0000714A4802F0D5F900224FF48061474825
:10073C0002F0CFF900224FF40061444802F0C9F9ED
:10074C0000224FF48051414802F0C3F97AE00022B4
:10075C0040213E4802F0BDF9002280213B4802F0C6
:10076C00B8F900224FF48071384802F0B2F9012236
:10077C004FF40071354802F0ACF901224FF480615E
:10078C00324802F0A6F901224FF400612F4802F022
:10079C00A0F901224FF480512C4802F09AF951E053
:1007AC0000224021294802F094F900228021274898
:1007BC0002F08FF900224FF48071244802F089F97D
:1007CC0000224FF40071214802F083F900224FF40B
:1007DC0080611E4802F07DF900224FF400611B4835
:1007EC0002F077F900224FF48051184802F071F9A9
:1007FC0028E000224021154802F06BF900228021EC
:10080C00124802F066F900224FF480710F4802F092
:10081C0060F900224FF400710C4802F05AF90122E1
:10082C004FF48061094802F054F900224FF4006142
:10083C00064802F04EF900224FF48051034802F0B2
:10084C0048F900BF00BF0837BD4680BD0008014015
:10085C0080B582B000AF78607B68002B03D07B68DA
:10086C00012B12D023E000221021134802F031F9A1
:10087C0001222021104802F02CF9104A7B6852F812
:10088C0023301846FFF764FC11E0012210210A48BE
:10089C0002F01FF900222021074802F01AF9074A3A
:1008AC007B6852F823301846FFF752FC00BF00BF9C
:1008BC000837BD4680BD00BF000C0140A4000020DD
:1008CC0080B582B000AF78607B68002B03D07B686A
:1008DC00012B12D023E000220221134802F0F9F878
:1008EC0001220421104802F0F4F8104A7B6852F8F7
:1008FC0023301846FFF7ECFD11E0012202210A48D3
:10090C0002F0E7F800220421074802F0E2F8074A57
:10091C007B6852F823301846FFF7DAFD00BF00BFA2
:10092C000837BD4680BD00BF000C0140AC00002064
:10093C0080B500AF534B1B68013B062B00F2878040
:10094C0001A252F823F000BF71090008B109000898
:10095C00F10900085B0A0008310A00083F0A000888
:10096C004D0A0008484B1A68484B1B68D31A484A72
:10097C0082FB03129210DB17D31A464A1360424BC8
:10098C001A68424B1B68D11A414B83FB01239A1006
:10099C00CB17D21A13469B0013445B00CA1A3D4B6B
:1009AC005A6054E0384B5A68384B1B68D31A384A93
:1009BC0082FB03129210DB17D31A364A1360324BA8
:1009CC005A68324B1B68D11A314B83FB01239A10A6
:1009DC00CB17D21A13469B0013445B00CA1A2D4B3B
:1009EC005A6034E0284B9A68284B1B68D31A284A63
:1009FC0082FB03129210DB17D31A264A1360224B88
:100A0C009A68224B1B68D11A214B83FB01239A1045
:100A1C00CB17D21A13469B0013445B00CA1A1D4B0A
:100A2C005A6014E01B4B00221A601A4B02225A60C7
:100A3C000DE0184B00221A60164B03225A6006E098
:100A4C00144B00221A60134B04225A6000BF124B45
:100A5C001B68012B14D1114B1B68012B02DD0F4BB2
:100A6C0000221A600D4B1B681846FFF7F1FE0B4B6A
:100A7C001B680133094A13604FF4FA7001F060FBF4
:100A8C0000BF80BD7400002058000020C80000206A
:100A9C0067666666A40000200C010020040000209C
:100AAC0080B500AF704B1B68013B062B00F2C08079
:100ABC0001A252F823F000BFE10A0008210B000844
:100ACC00610B00083D0C0008A10B0008D50B0008B9
:100ADC00090C0008654B1A68654B1B68D31A654AEC
:100AEC0082FB03129210DB17D31A634A13605F4B1D
:100AFC001A685F4B1B68D11A5E4B83FB01239A105B
:100B0C00CB17D21A13469B0013445B00CA1A5A4BDC
:100B1C005A608DE0554B5A68554B1B68D31A554A91
:100B2C0082FB03129210DB17D31A534A13604F4BFC
:100B3C005A684F4B1B68D11A4E4B83FB01239A10FA
:100B4C00CB17D21A13469B0013445B00CA1A4A4BAC
:100B5C005A606DE0454B9A68454B1B68D31A454A61
:100B6C0082FB03129210DB17D31A434A13603F4BDC
:100B7C009A683F4B1B68D11A3E4B83FB01239A109A
:100B8C00CB17D21A13469B0013445B00CA1A3A4B7C
:100B9C005A604DE0394B1B68364A82FB03129210A7
:100BAC00DB17D31A344A1360344B1968314B83FB6F
:100BBC0001239A10CB17D21A13469B0013445B00E7
:100BCC00CA1A2D4B5A6033E02C4B5B68294A82FBC6
:100BDC0003129210DB17D31A274A1360274B59685C
:100BEC00244B83FB01239A10CB17D21A13469B007C
:100BFC0013445B00CA1A204B5A6019E01F4B9B68C8
:100C0C001C4A82FB03129210DB17D31A1A4A136088
:100C1C001A4B9968174B83FB01239A10CB17D21AE6
:100C2C0013469B0013445B00CA1A134B5A6000BF57
:100C3C00134B1B68012B14D1124B1B68012B02DDCB
:100C4C00104B00221A600F4B1B681846FFF738FE3A
:100C5C000C4B1B6801330B4A13604FF4FA7001F014
:100C6C0055FA00BF80BD00BF70000020640000205A
:100C7C00C400002067666666AC000020CC00002033
:100C8C00040100200000002080B400AF064B1B685C
:100C9C00012B04D1044B00221A60012300E0002335
:100CAC001846BD4680BC7047B400002080B400AF2D
:100CBC00064B1B68012B04D1044B00221A60012344
:100CCC0000E000231846BD4680BC7047B8000020E9
:100CDC0080B400AF064B1B68012B04D1044B0022DF
:100CEC001A60012300E000231846BD4680BC704703
:100CFC00BC00002080B400AF064B1B68012B04D154
:100D0C00044B00221A60012300E000231846BD4664
:100D1C0080BC7047C000002080B582B000AF0023BB
:100D2C007B60394A7B6852F8232038497B6841F84C
:100D3C002320374A7B6852F8232033497B6841F8DB
:100D4C0023204FF40051334801F0ACFE0346194602
:100D5C002F4A7B6842F823102C4A7B6852F82320D8
:100D6C0029497B6851F823309A4249D1264A7B683D
:100D7C0052F8232026497B6851F823309A423FD100
:100D8C00254A7B6852F8232021497B6851F823308F
:100D9C009A4217D01E4A7B6852F823201E497B6862
:100DAC0041F823201A4A7B6852F82330002B27D1B4
:100DBC001A4B01221A601A4A7B684FF4967142F85A
:100DCC0023101DE0124A7B6852F82330002B17D1F8
:100DDC00134A7B6852F823305A1E11497B6841F83C
:100DEC0023200F4A7B6852F82330002B08D10B4B81
:100DFC0001221A600A4A7B684FF4967142F823105C
:100E0C0000BF0837BD4680BD180000200800002038
:100E1C00280000200008014038000020B400002009
:100E2C004800002080B582B000AF01237B60384AB7
:100E3C007B6852F8232037497B6841F82320364AD7
:100E4C007B6852F8232032497B6841F823204FF409
:100E5C008041324801F026FE034619462E4A7B6833
:100E6C0042F823102B4A7B6852F8232028497B68D0
:100E7C0051F823309A4247D1254A7B6852F82320F7
:100E8C0025497B6851F823309A423DD1244A7B682E
:100E9C0052F8232020497B6851F823309A4216D00F
:100EAC001D4A7B6852F823201D497B6841F823209A
:100EBC00194A7B6852F82330002B25D1194B01229B
:100ECC001A60194A7B68322142F823101CE0124A3E
:100EDC007B6852F82330002B16D1134A7B6852F8EA
:100EEC0023305A1E10497B6841F823200E4A7B6838
:100EFC0052F82330002B07D10A4B01221A600A4A00
:100F0C007B68322142F8231000BF0837BD4680BDF4
:100F1C0018000020080000202800002000080140D4
:100F2C0038000020B80000204800002080B582B0B6
:100F3C0000AF02237B60384A7B6852F82320374984
:100F4C007B6841F82320364A7B6852F823203249CB
:100F5C007B6841F823204FF40041324801F0A2FD98
:100F6C00034619462E4A7B6842F823102B4A7B68AD
:100F7C0052F8232028497B6851F823309A4247D1F4
:100F8C00254A7B6852F8232025497B6851F8233089
:100F9C009A423DD1244A7B6852F8232020497B6831
:100FAC0051F823309A4216D01D4A7B6852F8232000
:100FBC001D497B6841F82320194A7B6852F823307D
:100FCC00002B25D1194B01221A60194A7B6832215A
:100FDC0042F823101CE0124A7B6852F82330002B95
:100FEC0016D1134A7B6852F823305A1E10497B687D
:100FFC0041F823200E4A7B6852F82330002B07D18E
:10100C000A4B01221A600A4A7B68322142F82310EB
:10101C0000BF0837BD4680BD180000200800002026
:10102C00280000200008014038000020BC000020EF
:10103C004800002080B582B000AF03237B60394AA2
:10104C007B6852F8232038497B6841F82320374AC3
:10105C007B6852F8232033497B6841F82320012117
:10106C00334801F01FFD03461946304A7B6842F8AD
:10107C0023102D4A7B6852F823202A497B6851F8AB
:10108C0023309A4249D1274A7B6852F823202749BA
:10109C007B6851F823309A423FD1264A7B6852F83C
:1010AC00232022497B6851F823309A4217D01F4ADB
:1010BC007B6852F823201F497B6841F823201B4A88
:1010CC007B6852F82330002B27D11B4B01221A606E
:1010DC001A4A7B684FF4967142F823101DE0134AAC
:1010EC007B6852F82330002B17D1144A7B6852F8D6
:1010FC0023305A1E11497B6841F823200F4A7B6824
:10110C0052F82330002B08D10B4B01221A600B4AEA
:10111C007B684FF4967142F8231000BF0837BD4628
:10112C0080BD00BF1800002008000020280000200F
:10113C00000C014038000020C000002048000020B6
:10114C0080B500AF00F004F800F0A8F800BF80BD37
:10115C0080B500AF4C4B1B68032B61D0032B00F305
:10116C009180012B02D0022B2DD08BE00122042187
:10117C00464801F0AEFC00220821444801F0A9FCCD
:10118C0000221021414801F0A4FC414B1B68012BAB
:10119C0008D1404B1B6801333E4A13604FF47A7000
:1011AC0000F0E8FF3C4B1A683A4B1B689A4264D13A
:1011BC004FF47A7000F0DEFF364B00221A60324B8F
:1011CC0003221A6059E000220421304801F081FC0E
:1011DC00012208212D4801F07CFC002210212B4813
:1011EC0001F077FC2A4B1B68012B08D1294B1B689B
:1011FC000133284A13604FF47A7000F0BBFF264B82
:10120C005A68244B1B689A4239D14FF47A7000F01B
:10121C00B1FF204B00221A601B4B01221A602EE0FA
:10122C0000220421194801F054FC0022082117481F
:10123C0001F04FFC01221021144801F04AFC144B20
:10124C001B68012B08D1134B1B680133114A136027
:10125C004FF47A7000F08EFF0F4B9A680D4B1B68A1
:10126C009A420ED14FF47A7000F084FF094B0022A1
:10127C001A60054B02221A6003E000BF02E000BFB7
:10128C0000E000BF00BF80BD7000002000080140DE
:10129C0014010020C40000206400002080B500AFC1
:1012AC00514B1B68032B67D0032B00F39A80012B47
:1012BC0002D0022B30D094E001224FF400514B4865
:1012CC0001F007FC00224FF48041484801F001FC7A
:1012DC0000224FF40041454801F0FBFB444B1B68D6
:1012EC00012B08D1434B1B680133424A13604FF466
:1012FC007A7000F059FF404B1A683E4B1B689A42BB
:10130C006AD14FF47A7000F04FFF3A4B00221A600A
:10131C00354B03221A605FE000224FF40051334832
:10132C0001F0D7FB01224FF48041304801F0D1FB92
:10133C0000224FF400412D4801F0CBFB2C4B1B68D5
:10134C00012B08D12B4B1B6801332A4A13604FF435
:10135C007A7000F029FF284B5A68264B1B689A427A
:10136C003CD14FF47A7000F01FFF224B00221A6020
:10137C001D4B01221A6031E000224FF400511B4832
:10138C0001F0A7FB00224FF48041184801F0A1FBAB
:10139C0001224FF40041154801F09BFB144B1B68D4
:1013AC00012B08D1134B1B680133124A13604FF405
:1013BC007A7000F0F9FE104B9A680E4B1B689A423B
:1013CC000ED14FF47A7000F0EFFE0A4B00221A6037
:1013DC00054B02221A6003E000BF02E000BF00E0F0
:1013EC0000BF00BF80BD00BF74000020000C014096
:1013FC001C010020C80000205800002080B584B0DB
:10140C0000AFAE4B1B68013B062B00F2F78401A228
:10141C0052F823F03D140008C114000845150008CB
:10142C00091E0008C9150008AB170008F9190008B7
:10143C00FFF72AFC0346012B40F0D5840023FB6008
:10144C000AE09F4AFB6852F823209E49FB6841F84A
:10145C002320FB680133FB60FB68022BF1DD4FF4AA
:10146C00FA7000F0D5FE42F2107000F0B7FE964B09
:10147C0000221A60954B00221A60954B00221A60CC
:10148C00944B00221A60944B00221A60934B00225A
:10149C001A60934B00221A60924B00221A60924BF6
:1014AC0000221A60854B05221A60904B05221A60A7
:1014BC0000F099BCFFF7E8FB0346012B40F0958444
:1014CC000023BB600AE07E4ABB6852F823207D49AA
:1014DC00BB6841F82320BB680133BB60BB68022B9F
:1014EC00F1DD4FF4FA7000F093FE42F2107000F050
:1014FC0075FE754B00221A60744B00221A60744BF7
:10150C0000221A60734B00221A60734B00221A607F
:10151C00724B00221A60724B00221A60714B00222F
:10152C001A60714B00221A60644B05221A606F4BD3
:10153C0005221A6000F059BCFFF7A6FB0346012BED
:10154C0040F0558400237B600AE05D4A7B6852F8CA
:10155C0023205C497B6841F823207B6801337B6046
:10156C007B68022BF1DD4FF4FA7000F051FE42F271
:10157C00107000F033FE544B00221A60534B0022C3
:10158C001A60534B00221A60524B00221A60524BC5
:10159C0000221A60514B00221A60514B00221A6033
:1015AC00504B00221A60504B00221A60434B05220C
:1015BC001A604E4B05221A6000F019BC424B1B6896
:1015CC00002B0DD1404B01221A6001220421484806
:1015DC0001F07FFA01224FF40051464801F079FAEC
:1015EC00454B1B68012B0CD10421414801F089FAB1
:1015FC004FF400513F4801F084FA4FF4FA7000F0B8
:10160C0007FE002208213A4801F063FA00224FF449
:10161C008041384801F05DFA00221021344801F075
:10162C0058FA00224FF40041324801F052FAFFF709
:10163C002BFB0346012B0DD1204B06221A602B4BA2
:10164C0006221A6042F2107000F0C8FD4FF4FA70D6
:10165C0000F0DEFDFFF72AFB0346012B17D11D4BD3
:10166C0001221A60174B1B68632B09DC154B1B6896
:10167C00002B05DD134B1B680133124A136002E08B
:10168C00104B01221A6042F2107000F0A7FDFFF718
:10169C001FFB0346012B38D1114B01221A60094B59
:1016AC001B68632B2ADC074B1B68002B26DD054BC4
:1016BC001B68013B034A136023E000BF700000204D
:1016CC0064000020CC000020D8000020DC000020AA
:1016DC00E0000020E4000020E8000020EC000020E6
:1016EC00F0000020F4000020F8000020740000201E
:1016FC0000080140000C01402C010020A94B0122E4
:10170C001A6042F2107000F069FDFFF7F3FA03461D
:10171C00012B24D1A44B00221A60A44B00221A6086
:10172C00A34B01221A60A34B03221A60A24B012285
:10173C001A60A24B01221A604FF47A7000F01AFD65
:10174C004FF47A7000F030FD4FF4FA7000F0DEFCCC
:10175C004FF4FA7000F0F4FC994B00221A60984B8D
:10176C001B68012B40F045838F4B00221A608F4B76
:10177C0000221A60904B01221A60904B01221A60D1
:10178C004FF47A7000F0F6FC4FF47A7000F00CFD18
:10179C00874B01221A60874B03221A6029E3894B7D
:1017AC001B68002B0DD1874B01221A6001220821E6
:1017BC00854801F08EF901224FF48041834801F0F5
:1017CC0088F9834B1B68012B0CD108217E4801F052
:1017DC0098F94FF480417D4801F093F94FF4FA7079
:1017EC0000F016FD00220421774801F072F9002266
:1017FC004FF40051754801F06CF900221021724829
:10180C0001F067F900224FF40041704801F061F9D2
:10181C00FFF73AFA0346012B0DD1654B07221A60EC
:10182C00644B07221A6042F2107000F0D7FC4FF4A0
:10183C00FA7000F0EDFCFFF739FA0346012B17D1D3
:10184C00644B01221A60574B5B68632B09DC554BC8
:10185C005B68002B05DD534B5B680133514A5360C9
:10186C0002E0504B01225A6042F2107000F0B6FCBC
:10187C00FFF72EFA0346012B17D1574B01221A60A2
:10188C00484B5B68632B09DC464B5B68002B05DD22
:10189C00444B5B68013B434A536002E0414B0122DD
:1018AC005A6042F2107000F099FCFFF723FA0346DD
:1018BC00012B57D1494B1B68012B03D0484B1B689C
:1018CC00012B32D1434B1B68012B03D0424B1B68BD
:1018DC00012B2AD1334B1A68324B5B68D31A314A2D
:1018EC009360304B5A682F4B9B689A421DDC2D4BF2
:1018FC005A682C4B1B689A4217DC2A4B1B68394AD6
:10190C001360284B1B68384A1360264B5B68354ABA
:10191C005360244B5B68344A5360224B9B68314ABA
:10192C009360204B9B68304A93601F4B00221A60D7
:10193C001E4B00221A601E4B01221A601D4B032203
:10194C001A601D4B01221A601C4B01221A604FF4C5
:10195C007A7000F00FFC4FF47A7000F025FC184BF5
:10196C0000221A60164B1B68012B40F044820E4B70
:10197C0000221A600D4B00221A600F4B01221A60D4
:10198C000E4B01221A604FF47A7000F0F3FB4FF407
:10199C007A7000F009FC064B01221A60054B0322F9
:1019AC001A6028E2CC000020C4000020C8000020EF
:1019BC0070000020740000200000002004000020B3
:1019CC0024010020DC00002000080140000C014034
:1019DC002C010020E8000020F4000020E40000208E
:1019EC00F00000206400002058000020894B1B6888
:1019FC00002B0DD1874B01221A6001221021864841
:101A0C0001F067F801224FF40041844801F061F8BD
:101A1C00834B1B68012B0CD110217F4801F071F80E
:101A2C004FF400417D4801F06CF84FF4FA7000F06F
:101A3C00EFFB00220421784801F04BF800224FF410
:101A4C000051764801F045F800220821724801F057
:101A5C0040F800224FF48041704801F03AF8FFF74B
:101A6C0013F90346012B19D16E4B01221A606E4BF0
:101A7C0003221A606D4B00221A606D4B00221A6013
:101A8C006C4B01221A606C4B01221A604FF47A7075
:101A9C0000F070FB4FF47A7000F086FBFFF706F94C
:101AAC000346012B17D1654B01221A60644B9B68CE
:101ABC00632B09DC624B9B68002B05DD604B9B683C
:101ACC0001335F4A936002E05D4B01229A6042F25F
:101ADC00107000F083FBFFF7FBF80346012B17D1C6
:101AEC00584B01221A60564B9B68632B09DC544BF4
:101AFC009B68002B05DD524B9B68013B504A936061
:101B0C0002E04F4B01229A6042F2107000F066FB2B
:101B1C00FFF7F0F80346012B40F046814A4B1B6857
:101B2C00012B03D0494B1B68012B35D1484B1B684B
:101B3C00012B03D0474B1B68012B2DD1404B1A684E
:101B4C003F4B5B68D31A3E4A93603D4B5A683C4B03
:101B5C009B689A4200F30681394B5A68384B1B68D4
:101B6C009A4200F3FF80364B1B683B4A1360344BA0
:101B7C001B683A4A1360324B5B68374A5360304BF0
:101B8C005B68364A53602E4B9B68334A93602C4BF0
:101B9C009B68324A9360E5E02B4B1B68012B03D00A
:101BAC002A4B1B68012B5BD1244B1B68012B03D0E8
:101BBC00244B1B68012B53D1214B1A68204B9B687B
:101BCC00D31A1F4A53601E4B5A681D4B9B689A428E
:101BDC0000F3CA801A4B5A68194B1B689A4200F3DF
:101BEC00C380174B1B681C4A1360154B1B681B4AA0
:101BFC001360134B5B68184A5360114B5B68174AB0
:101C0C0053600F4B9B68144A93600D4B9B68134AAF
:101C1C009360A9E0E000002000080140000C0140A6
:101C2C002C0100207000002074000020C400002053
:101C3C00C80000200000002004000020EC00002060
:101C4C00CC000020F8000020E4000020F000002070
:101C5C00E8000020F4000020640000205800002060
:101C6C00684B1B68012B03D0674B1B68012B33D1CE
:101C7C00664B1B68012B03D0654B1B68012B2BD1CA
:101C8C00644B5A68634B9B681344624A1360614B04
:101C9C005A68604B9B689A4268DC5E4B5A685D4B95
:101CAC001B689A4262DC5B4B1B685B4A1360594BA6
:101CBC001B685A4A1360574B5B68574A5360554B25
:101CCC005B68564A5360534B9B68534A9360514B25
:101CDC009B68524A936049E0514B1B68012B03D01F
:101CEC00504B1B68012B42D1464B1B68012B03D078
:101CFC00454B1B68012B3AD1444B1B68012B03D07D
:101D0C00434B1B68012B32D1424B5A68414B9B68A9
:101D1C009A422CDC3F4B5A683E4B1B689A4226DC9D
:101D2C003C4B1A683B4B59683A4B9B680B449A42A4
:101D3C001DD1384B1B68384A1360364B1B68374A29
:101D4C001360344B5B68344A5360324B5B68334AE4
:101D5C005360304B9B68304A93602E4B9B682F4AE4
:101D6C00936004E000BF02E000BF00E000BF2E4B18
:101D7C0000221A602D4B00221A602D4B01221A6092
:101D8C002C4B03221A602C4B01221A602B4B012284
:101D9C001A604FF47A7000F0EDF94FF47A7000F09D
:101DAC0003FA274B00221A60254B1B68012B24D108
:101DBC001D4B00221A601D4B00221A601E4B012283
:101DCC001A601E4B01221A604FF47A7000F0D2F99F
:101DDC004FF47A7000F0E8F9154B01221A60154B9C
:101DEC0003221A6009E000BF08E000BF06E000BF54
:101DFC0004E000BF02E000BF00E000BF00BF1037EE
:101E0C00BD4680BDE8000020F4000020EC0000205E
:101E1C00F8000020CC0000206400002058000020B6
:101E2C00E4000020F0000020C4000020C8000020C6
:101E3C00700000207400002000000020040000202E
:101E4C002401002080B500AF00F042FB00F034F814
:101E5C0000F0BAF800F06CF8144801F097FA4FF45F
:101E6C007A7000F039F94FF47A7000F083F94FF47E
:101E7C007A7000F099F94FF4FA7000F047F94FF4CA
:101E8C00FA7000F05DF90A4B1B68012B07D1202179
:101E9C00084800F036FE4FF47A7000F01DF9FFF799
:101EAC00ADFAFFF74DF9FEF74BF9ECE734010020E2
:101EBC00FC0000200008014080B590B000AF07F195
:101ECC00180328220021184601F010FE3B1D0022A9
:101EDC001A605A609A60DA601A610223BB610123AE
:101EEC00BB621023FB6200237B6307F118031846C7
:101EFC0000F020FE0346002B01D000F0E7F80F2382
:101F0C007B600023BB600023FB6000233B6100234C
:101F1C007B613B1D0021184601F08CF80346002B19
:101F2C0001D000F0D3F800BF4037BD4680BD0000A3
:101F3C0080B586B000AF07F1080300221A605A6022
:101F4C009A60DA603B4600221A605A601D4B4FF0D3
:101F5C0080421A601B4B41F63F725A60194B0022AB
:101F6C009A60184B0922DA60164B00221A61154B45
:101F7C0000229A61134801F0B9F90346002B01D0F5
:101F8C0000F0A4F84FF48053BB6007F10803194626
:101F9C000C4801F037FB0346002B01D000F096F8FB
:101FAC0000233B6000237B603B461946054801F04B
:101FBC000FFD0346002B01D000F088F800BF183746
:101FCC00BD4680BD3401002080B586B000AF07F15E
:101FDC00080300221A605A609A60DA602F4B9B69E2
:101FEC002E4A43F0040393612C4B9B6903F00403CA
:101FFC007B607B68294B9B69284A43F008039361FB
:10200C00264B9B6903F008033B603B68002241F6BA
:10201C00FC71234800F05DFD00224FF6F67121485B
:10202C0000F057FD41F6FC73BB600123FB600023FD
:10203C003B6102237B6107F108031946184800F045
:10204C00B7FB0123BB600023FB6001233B6107F15D
:10205C0008031946134800F0ABFB4FF6F673BB6050
:10206C000123FB6000233B6102237B6107F1080322
:10207C0019460C4800F09CFB4FF46043BB600023F6
:10208C00FB6001233B6107F108031946044800F08B
:10209C008FFB00BF1837BD4680BD00BF001002404B
:1020AC0000080140000C014080B582B000AF7860A0
:1020BC0000F0C8F8FEF730FEFEF7B4FEFEF736FF70
:1020CC00FEF7B8FF00BF0837BD4680BD80B400AF37
:1020DC0072B600BFFEE7000080B483B000AF78603A
:1020EC00074B1B687A6892FBF3F3064A1360064BA6
:1020FC0000221A6000BF0C37BD4680BC704700BF81
:10210C007800002000010020FC00002080B483B087
:10211C0000AF7860074B1B687A6892FBF3F3064AB2
:10212C001360064B00221A6000BF0C37BD4680BC02
:10213C00704700BF78000020080100200401002037
:10214C0080B483B000AF7860074B1B687A6892FB51
:10215C00F3F3064A1360064B00221A6000BF0C37DB
:10216C00BD4680BC704700BF7800002010010020E5
:10217C000C01002080B483B000AF7860074B1B6863
:10218C007A6892FBF3F3064A1360064B00221A603E
:10219C0000BF0C37BD4680BC704700BF78000020E4
:1021AC00180100201401002080B483B000AF7860C7
:1021BC00074B1B687A6892FBF3F3064A1360064BD5
:1021CC0000221A6000BF0C37BD4680BC704700BFB0
:1021DC0078000020200100201C01002080B483B076
:1021EC0000AF7860074B1B687A6892FBF3F3064AE2
:1021FC001360064B00221A6000BF0C37BD4680BC32
:10220C00704700BF78000020280100202401002026
:10221C0080B483B000AF7860074B1B687A6892FB80
:10222C00F3F3064A1360064B00221A6000BF0C370A
:10223C00BD4680BC704700BF7800002030010020F4
:10224C002C01002080B400AF394B1B68002B0BDD38
:10225C00374B1B68013B364A1360354B1B68002B10
:10226C0002DC344B01221A60334B1B68002B0BDD54
:10227C00314B1B68013B304A13602F4B1B68002B02
:10228C0002DC2E4B01221A602D4B1B68002B0BDD40
:10229C002B4B1B68013B2A4A1360294B1B68002BF4
:1022AC0002DC284B01221A60274B1B68002B0BDD2C
:1022BC00254B1B68013B244A1360234B1B68002BE6
:1022CC0002DC224B01221A60214B1B68002B0BDD18
:1022DC001F4B1B68013B1E4A13601D4B1B68002BD8
:1022EC0002DC1C4B01221A601B4B1B68002B0BDD04
:1022FC00194B1B68013B184A1360174B1B68002BCA
:10230C0002DC164B01221A60154B1B68002B0BDDEF
:10231C00134B1B68013B124A1360114B1B68002BBB
:10232C0002DC104B01221A6000BFBD4680BC704716
:10233C0000010020FC000020080100200401002006
:10234C00100100200C0100201801002014010020B5
:10235C00200100201C010020280100202401002065
:10236C00300100202C01002080B485B000AF154B4B
:10237C009B69144A43F001039361124B9B6903F070
:10238C000103BB60BB680F4BDB690E4A43F0805303
:10239C00D3610C4BDB6903F080537B607B680A4B89
:1023AC005B68FB60FB6823F0E063FB60FB6843F059
:1023BC008063FB60044AFB68536000BF1437BD4662
:1023CC0080BC7047001002400000014080B584B012
:1023DC0000AF78607B681B68B3F1804F13D10C4B56
:1023EC00DB690B4A43F00103D361094BDB6903F052
:1023FC000103FB60FB68002200211C2000F0A1F906
:10240C001C2000F0BAF900BF1037BD4680BD00BFDC
:10241C000010024080B400AFFEE780B400AFFEE7CE
:10242C0080B400AFFEE780B400AFFEE780B400AF2D
:10243C00FEE780B400AF00BFBD4680BC704780B4DF
:10244C0000AF00BFBD4680BC704780B400AF00BF7A
:10245C00BD4680BC704780B500AF00F07FF800BF70
:10246C0080BD000080B500AF024800F0DBFF00BF6C
:10247C0080BD00BF3401002080B400AF00BFBD465A
:10248C0080BC7047FFF7F8FF0B480C490C4A00233F
:10249C0002E0D458C4500433C4188C42F9D3094A0E
:1024AC00094C002301E013600432A242FBD301F07B
:1024BC00F9FAFFF7C7FC70470000002088000020E5
:1024CC004C3B00088800002080010020FEE7000043
:1024DC0080B500AF084B1B68074A43F0100313602C
:1024EC00032000F023F90F2000F008F8FFF73CFF61
:1024FC000023184680BD00BF0020024080B582B08A
:10250C0000AF7860124B1A68124B1B7819464FF4C7
:10251C007A73B3FBF1F3B2FBF3F3184600F03BF91B
:10252C000346002B01D001230EE07B680F2B0AD849
:10253C00002279684FF0FF3000F003F9064A7B68FF
:10254C001360002300E0012318460837BD4680BD08
:10255C007C000020840000208000002080B400AFAC
:10256C00054B1B781A46054B1B681344034A136032
:10257C0000BFBD4680BC7047840000207C01002059
:10258C0080B400AF024B1B681846BD4680BC704738
:10259C007C01002080B485B000AF78607B6803F0CC
:1025AC000703FB600C4BDB68BB60BA684FF6FF039C
:1025BC001340BB60FB681A02BB68134343F0BF6354
:1025CC0043F40033BB60044ABB68D36000BF1437CC
:1025DC00BD4680BC704700BF00ED00E080B400AF8A
:1025EC00044BDB681B0A03F007031846BD4680BC8E
:1025FC00704700BF00ED00E080B483B000AF03462D
:10260C00FB7197F90730002B0BDBFB7903F01F02F2
:10261C00064997F907305B09012000FA02F241F8EC
:10262C00232000BF0C37BD4680BC704700E100E0A2
:10263C0080B483B000AF03463960FB7197F9073063
:10264C00002B0ADB3B68DAB20C4997F90730120110
:10265C00D2B20B4483F800230AE03B68DAB2084993
:10266C00FB7903F00F03043B1201D2B20B441A7630
:10267C0000BF0C37BD4680BC704700BF00E100E0D6
:10268C0000ED00E080B489B000AFF860B9607A600A
:10269C00FB6803F00703FB61FB69C3F10703042B21
:1026AC0028BF0423BB61FB690433062B02D9FB69E9
:1026BC00033B00E000237B614FF0FF32BB6902FA61
:1026CC0003F3DA43BB681A407B699A404FF0FF3141
:1026DC007B6901FA03F3D9437B680B40134318461B
:1026EC002437BD4680BC704780B582B000AF78609F
:1026FC007B68013BB3F1807F01D301230FE00A4AD1
:10270C007B68013B53600F214FF0FF30FFF790FFC8
:10271C00054B00229A60044B07221A6000231846CE
:10272C000837BD4680BD00BF10E000E080B582B028
:10273C0000AF78607868FFF72DFF00BF0837BD4603
:10274C0080BD80B586B000AF0346B9607A60FB737C
:10275C0000237B61FFF742FF78617A68B96878697A
:10276C00FFF790FF024697F90F3011461846FFF716
:10277C005FFF00BF1837BD4680BD80B582B000AF8B
:10278C000346FB7197F907301846FFF735FF00BF7A
:10279C000837BD4680BD80B582B000AF78607868E0
:1027AC00FFF7A2FF034618460837BD4680BD000060
:1027BC0080B48BB000AF7860396000237B6200235B
:1027CC003B6248E101227B6A02FA03F3FB613B683E
:1027DC001B68FA691340BB61BA69FB699A4240F005
:1027EC0037813B685B68A34A93425ED0A14A93420F
:1027FC0075D8A14A934258D09F4A93426FD89F4AAA
:10280C00934252D09D4A934269D89D4A93424CD0F0
:10281C009B4A934263D89B4A934246D0994A93422F
:10282C005DD8122B2AD8122B59D801A252F823F0BA
:10283C00B728000891280008A3280008E5280008FC
:10284C00EB280008EB280008EB280008EB28000810
:10285C00EB280008EB280008EB280008EB28000800
:10286C00EB280008EB280008EB280008EB280008F0
:10287C00EB28000899280008AD280008824A9342EA
:10288C0013D02CE03B68DB683B6229E03B68DB68DB
:10289C0004333B6224E03B68DB6808333B621FE097
:1028AC003B68DB680C333B621AE03B689B68002B8F
:1028BC0002D104233B6213E03B689B68012B05D1DA
:1028CC0008233B627B68FA691A6109E008233B62C2
:1028DC007B68FA695A6103E000233B6200E000BFA9
:1028EC00BB69FF2B01D87B6801E07B6804337B61FB
:1028FC00BB69FF2B02D87B6A9B0002E07B6A083B1A
:10290C009B003B617B691A680F213B6901FA03F359
:10291C00DB431A40396A3B6901FA03F31A437B69BA
:10292C001A603B685B6803F08053002B00F09080CA
:10293C00564B9B69554A43F001039361534B9B697A
:10294C0003F00103BB60BB68514A7B6A9B080233EE
:10295C0052F82330FB607B6A03F003039B000F22C9
:10296C0002FA03F3DB43FA681340FB607B68494AC5
:10297C0093420DD07B68484A934207D07B68474A04
:10298C00934201D1022304E0032302E0012300E07F
:10299C0000237A6A02F0030292009340FA68134310
:1029AC00FB603B497B6A9B080233FA6841F82320A1
:1029BC003B685B6803F48013002B06D0384B9A6895
:1029CC003749BB6913438B6006E0354B9A68BB698A
:1029DC00DB43334913408B603B685B6803F40013A3
:1029EC00002B06D02E4BDA682D49BB691343CB6004
:1029FC0006E02B4BDA68BB69DB4329491340CB60FB
:102A0C003B685B6803F40033002B06D0244B5A68F8
:102A1C002349BB6913434B6006E0214B5A68BB69E1
:102A2C00DB431F4913404B603B685B6803F4803306
:102A3C00002B06D01A4B1A681949BB6913430B605B
:102A4C0006E0174B1A68BB69DB43154913400B6052
:102A5C007B6A01337B623B681A687B6A22FA03F358
:102A6C00002B7FF4AFAE00BF00BF2C37BD4680BC3F
:102A7C00704700BF0000321000003110000022101F
:102A8C000000211000001210000011100010024074
:102A9C000000014000080140000C01400010014002
:102AAC000004014080B485B000AF78600B467B8099
:102ABC007B689A687B881340002B02D00123FB7340
:102ACC0001E00023FB73FB7B18461437BD4680BC2A
:102ADC00704780B483B000AF78600B467B801346A0
:102AEC007B707B78002B03D07A887B681A6103E0BB
:102AFC007B881A047B681A6100BF0C37BD4680BC0A
:102B0C00704780B485B000AF78600B467B807B68E3
:102B1C00DB68FB607A88FB6813401A04FB68D943B6
:102B2C007B880B401A437B681A6100BF1437BD4683
:102B3C0080BC704780B586B000AF78607B68002B96
:102B4C0001D101236CE27B681B6803F00103002BAD
:102B5C0000F08780924B5B6803F00C03042B0CD0C5
:102B6C008F4B5B6803F00C03082B12D18C4B5B680A
:102B7C0003F48033B3F5803F0BD1894B1B6803F40E
:102B8C000033002B6CD07B685B68002B68D1012371
:102B9C0046E27B685B68B3F5803F06D1804B1B68CF
:102BAC007F4A43F4803313602EE07B685B68002B14
:102BBC000CD17B4B1B687A4A23F480331360784B1F
:102BCC001B68774A23F4802313601DE07B685B68E5
:102BDC00B3F5A02F0CD1724B1B68714A43F48023C0
:102BEC0013606F4B1B686E4A43F4803313600BE029
:102BFC006B4B1B686A4A23F480331360684B1B6869
:102C0C00674A23F4802313607B685B68002B13D026
:102C1C00FFF7B6FC386108E0FFF7B2FC02463B69EF
:102C2C00D31A642B01D90323FAE15D4B1B6803F41F
:102C3C000033002BF0D014E0FFF7A2FC386108E061
:102C4C00FFF79EFC02463B69D31A642B01D9032380
:102C5C00E6E1534B1B6803F40033002BF0D100E08A
:102C6C0000BF7B681B6803F00203002B63D04C4B46
:102C7C005B6803F00C03002B0BD0494B5B6803F033
:102C8C000C03082B1CD1464B5B6803F48033002BE0
:102C9C0016D1434B1B6803F00203002B05D07B6855
:102CAC001B69012B01D00123BAE13D4B1B6823F0BA
:102CBC00F8027B685B69DB00394913430B603AE02F
:102CCC007B681B69002B20D0364B01221A60FFF762
:102CDC0057FC386108E0FFF753FC02463B69D31AF6
:102CEC00022B01D903239BE12D4B1B6803F002033C
:102CFC00002BF0D02A4B1B6823F0F8027B685B6931
:102D0C00DB00274913430B6015E0264B00221A60A9
:102D1C00FFF736FC386108E0FFF732FC02463B69EE
:102D2C00D31A022B01D903237AE11D4B1B6803F044
:102D3C000203002BF0D17B681B6803F00803002B07
:102D4C003AD07B689B69002B19D0174B01221A6073
:102D5C00FFF716FC386108E0FFF712FC02463B69EE
:102D6C00D31A022B01D903235AE10D4B5B6A03F0F2
:102D7C000203002BF0D0012000F09AFA1CE00A4B61
:102D8C0000221A60FFF7FCFB38610FE0FFF7F8FB3D
:102D9C0002463B69D31A022B08D9032340E100BF3A
:102DAC000010024000004242800442429E4B5B6A8B
:102DBC0003F00203002BE9D17B681B6803F00403CA
:102DCC00002B00F0A6800023FB75974BDB6903F00A
:102DDC008053002B0DD1944BDB69934A43F0805305
:102DEC00D361914BDB6903F08053BB60BB6801235B
:102DFC00FB758E4B1B6803F48073002B18D18B4B27
:102E0C001B688A4A43F480731360FFF7B9FB38617F
:102E1C0008E0FFF7B5FB02463B69D31A642B01D9D6
:102E2C000323FDE0814B1B6803F48073002BF0D06F
:102E3C007B68DB68012B06D17B4B1B6A7A4A43F01B
:102E4C00010313622DE07B68DB68002B0CD1764B01
:102E5C001B6A754A23F001031362734B1B6A724A97
:102E6C0023F0040313621CE07B68DB68052B0CD198
:102E7C006D4B1B6A6C4A43F0040313626A4B1B6A6A
:102E8C00694A43F0010313620BE0674B1B6A664A05
:102E9C0023F001031362644B1B6A634A23F004039F
:102EAC0013627B68DB68002B15D0FFF769FB386178
:102EBC000AE0FFF765FB02463B69D31A41F2883200
:102ECC00934201D90323ABE0574B1B6A03F0020377
:102EDC00002BEED014E0FFF753FB38610AE0FFF74C
:102EEC004FFB02463B69D31A41F28832934201D917
:102EFC00032395E04C4B1B6A03F00203002BEED12D
:102F0C00FB7D012B05D1484BDB69474A23F08053ED
:102F1C00D3617B68DB69002B00F08180424B5B68DE
:102F2C0003F00C03082B61D07B68DB69022B46D1C4
:102F3C003F4B00221A60FFF723FB386108E0FFF7D4
:102F4C001FFB02463B69D31A022B01D9032367E00E
:102F5C00354B1B6803F00073002BF0D17B681B6AA8
:102F6C00B3F5803F08D1304B5B6823F400327B68AB
:102F7C009B682D4913434B602B4B5B6823F47412F5
:102F8C007B68196A7B685B6A0B43274913434B6068
:102F9C00274B01221A60FFF7F3FA386108E0FFF7BC
:102FAC00EFFA02463B69D31A022B01D9032337E00F
:102FBC001D4B1B6803F00073002BF0D02FE01C4B53
:102FCC0000221A60FFF7DCFA386108E0FFF7D8FA44
:102FDC0002463B69D31A022B01D9032320E0124B82
:102FEC001B6803F00073002BF0D118E07B68DB69E1
:102FFC00012B01D1012313E00B4B5B68FB60FB68D9
:10300C0003F480327B681B6A9A4206D1FB6803F496
:10301C0070127B685B6A9A4201D0012300E00023A6
:10302C0018461837BD4680BD0010024000700040A5
:10303C006000424280B584B000AF786039607B6834
:10304C00002B01D10123D0E06A4B1B6803F007036E
:10305C003A689A4210D9674B1B6823F007026549FE
:10306C003B6813430B60634B1B6803F007033A6820
:10307C009A4201D00123B8E07B681B6803F002037D
:10308C00002B20D07B681B6803F00403002B05D0B9
:10309C00594B5B68584A43F4E06353607B681B6888
:1030AC0003F00803002B05D0534B5B68524A43F4E2
:1030BC0060535360504B5B6823F0F0027B689B6855
:1030CC004D4913434B607B681B6803F00103002BD5
:1030DC0040D07B685B68012B07D1474B1B6803F41E
:1030EC000033002B15D101237FE07B685B68022B3A
:1030FC0007D1414B1B6803F00073002B09D101234E
:10310C0073E03D4B1B6803F00203002B01D101233C
:10311C006BE0394B5B6823F003027B685B683649D4
:10312C0013434B60FFF72CFAF8600AE0FFF728FA1C
:10313C000246FB68D31A41F28832934201D9032329
:10314C0053E02D4B5B6803F00C027B685B689B00C3
:10315C009A42EBD1274B1B6803F007033A689A425B
:10316C0010D2244B1B6823F0070222493B681343FF
:10317C000B60204B1B6803F007033A689A4201D09E
:10318C00012332E07B681B6803F00403002B08D09A
:10319C00194B5B6823F4E0627B68DB6816491343C8
:1031AC004B607B681B6803F00803002B09D0124BA3
:1031BC005B6823F460527B681B69DB000E49134388
:1031CC004B6000F021F802460B4B5B681B0903F0C7
:1031DC000F030A49CB5C22FA03F3094A1360094B2B
:1031EC001B681846FFF78AF9002318461037BD46AE
:1031FC0080BD00BF0020024000100240203B0008B0
:10320C007C0000208000002080B487B000AF002339
:10321C00FB600023BB6000237B6100237B600023E9
:10322C003B611E4B5B68FB60FB6803F00C03042BDB
:10323C0002D0082B03D027E0194B3B6127E0FB6839
:10324C009B0C03F00F03174AD35C7B60FB6803F401
:10325C008033002B10D0114B5B685B0C03F0010327
:10326C00114AD35CBB607B680D4A02FB03F2BB685E
:10327C00B2FBF3F37B6104E07B680C4A02FB03F3C3
:10328C007B617B693B6102E0054B3B6100BF3B69A5
:10329C0018461C37BD4680BC704700BF001002406A
:1032AC0000127A00303B0008403B000800093D004A
:1032BC0080B485B000AF78600A4B1B680A4AA2FB49
:1032CC0003235B0A7A6802FB03F3FB6000BFFB6815
:1032DC005A1EFA60002BF9D100BF00BF1437BD464F
:1032EC0080BC70477C000020D34D621080B582B04A
:1032FC0000AF78607B68002B01D1012341E07B6833
:10330C0093F83D30DBB2002B06D17B68002283F8AA
:10331C003C207868FFF75AF87B68022283F83D203E
:10332C007B681A687B6804331946104600F056FA1D
:10333C007B68012283F846207B68012283F83E20BB
:10334C007B68012283F83F207B68012283F84020B0
:10335C007B68012283F841207B68012283F842209C
:10336C007B68012283F843207B68012283F8442088
:10337C007B68012283F845207B68012283F83D207D
:10338C00002318460837BD4680BD000080B485B0C8
:10339C0000AF78607B6893F83D30DBB2012B01D035
:1033AC00012335E07B68022283F83D207B681B6893
:1033BC00DA687B681B6842F00102DA607B681B6884
:1033CC00164A934209D07B681B68B3F1804F04D036
:1033DC007B681B68124A934211D17B681B689B68FF
:1033EC0003F00703FB60FB68062B10D07B681B689F
:1033FC001A687B681B6842F001021A6007E07B6860
:10340C001B681A687B681B6842F001021A60002373
:10341C0018461437BD4680BC704700BF002C0140D5
:10342C000004004080B584B000AF78607B681B68F6
:10343C00DB68FB607B681B681B69BB60BB6803F0C7
:10344C000203002B20D0FB6803F00203002B1BD0DF
:10345C007B681B686FF002021A617B6801221A7785
:10346C007B681B689B6903F00303002B03D078680F
:10347C0000F098F905E0786800F08BF9786800F0B6
:10348C009AF97B6800221A77BB6803F00403002BBF
:10349C0020D0FB6803F00403002B1BD07B681B6857
:1034AC006FF004021A617B6802221A777B681B6832
:1034BC009B6903F44073002B03D0786800F072F919
:1034CC0005E0786800F065F9786800F074F97B68BD
:1034DC0000221A77BB6803F00803002B20D0FB688E
:1034EC0003F00803002B1BD07B681B686FF00802ED
:1034FC001A617B6804221A777B681B68DB6903F00E
:10350C000303002B03D0786800F04CF905E07868D1
:10351C0000F03FF9786800F04EF97B6800221A77CA
:10352C00BB6803F01003002B20D0FB6803F01003E2
:10353C00002B1BD07B681B686FF010021A617B6834
:10354C0008221A777B681B68DB6903F44073002B35
:10355C0003D0786800F026F905E0786800F019F9D6
:10356C00786800F028F97B6800221A77BB6803F0B2
:10357C000103002B0CD0FB6803F00103002B07D0D8
:10358C007B681B686FF001021A617868FEF78CFD8E
:10359C00BB6803F08003002B0CD0FB6803F08003A6
:1035AC00002B07D07B681B686FF080021A6178686B
:1035BC0000F06FFABB6803F04003002B0CD0FB68E3
:1035CC0003F04003002B07D07B681B686FF04002B0
:1035DC001A61786800F0F8F8BB6803F02003002B40
:1035EC000CD0FB6803F02003002B07D07B681B6812
:1035FC006FF020021A61786800F042FA00BF1037B1
:10360C00BD4680BD80B584B000AF786039600023C2
:10361C00FB737B6893F83C30012B01D10223B4E09F
:10362C007B68012283F83C207B68022283F83D20D2
:10363C007B681B689B68BB60BB6823F07703BB602F
:10364C00BB6823F47F43BB607B681B68BA689A60D5
:10365C003B681B68B3F5005F3ED0B3F5005F00F22A
:10366C008780B3F5805F00F08680B3F5805F7FD8EC
:10367C00702B1AD0702B7BD8602B50D0602B77D846
:10368C00502B3CD0502B73D8402B58D0402B6FD89C
:10369C00302B64D0302B6BD8202B60D0202B67D8EC
:1036AC00002B5CD0102B5AD062E07B6818683B680A
:1036BC0099683B685A683B68DB6800F06AF97B687C
:1036CC001B689B68BB60BB6843F07703BB607B687F
:1036DC001B68BA689A604FE07B6818683B68996809
:1036EC003B685A683B68DB6800F053F97B681B68E1
:1036FC009A687B681B6842F480429A603CE07B6865
:10370C0018683B6859683B68DB681A4600F0CAF8D1
:10371C007B681B685021184600F021F92CE07B686F
:10372C0018683B6859683B68DB681A4600F0E8F893
:10373C007B681B686021184600F011F91CE07B685F
:10374C0018683B6859683B68DB681A4600F0AAF8B1
:10375C007B681B684021184600F001F90CE07B687F
:10376C001A683B681B681946104600F0F8F803E02D
:10377C000123FB7300E000BF7B68012283F83D202E
:10378C007B68002283F83C20FB7B18461037BD4633
:10379C0080BD80B483B000AF786000BF0C37BD46ED
:1037AC0080BC704780B483B000AF786000BF0C372A
:1037BC00BD4680BC704780B483B000AF786000BF5A
:1037CC000C37BD4680BC704780B483B000AF7860C6
:1037DC0000BF0C37BD4680BC7047000080B485B07C
:1037EC0000AF786039607B681B68FB607B682B4A94
:1037FC00934207D07B68B3F1804F03D07B68284A93
:10380C00934208D1FB6823F07003FB603B685B6854
:10381C00FA681343FB607B68204A934207D07B68AD
:10382C00B3F1804F03D07B681D4A934208D1FB68EB
:10383C0023F44073FB603B68DB68FA681343FB605E
:10384C00FB6823F080023B685B691343FB607B6879
:10385C00FA681A603B689A687B68DA623B681A6897
:10386C007B689A627B680D4A934203D13B681A6964
:10387C007B681A637B6801225A617B681B6903F0C1
:10388C000103002B05D07B681B6923F001027B68C8
:10389C001A6100BF1437BD4680BC7047002C014034
:1038AC000004004080B487B000AFF860B9607A6063
:1038BC00FB681B6A7B61FB681B6A23F00102FB68D7
:1038CC001A62FB689B693B613B6923F0F0033B6127
:1038DC007B681B013A6913433B617B6923F00A0344
:1038EC007B617A69BB6813437B61FB683A699A61B7
:1038FC00FB687A691A6200BF1C37BD4680BC7047F2
:10390C0080B487B000AFF860B9607A60FB681B6A5E
:10391C007B61FB681B6A23F01002FB681A62FB6870
:10392C009B693B613B6923F470433B617B681B03E0
:10393C003A6913433B617B6923F0A0037B61BB684D
:10394C001B017A6913437B61FB683A699A61FB68D6
:10395C007A691A6200BF1C37BD4680BC704780B4C0
:10396C0085B000AF786039607B689B68FB60FB6852
:10397C0023F07003FB603A68FB68134343F00703C2
:10398C00FB607B68FA689A6000BF1437BD4680BC48
:10399C00704780B487B000AFF860B9607A603B6064
:1039AC00FB689B687B617B6923F47F437B613B688D
:1039BC001A027B681A43BB6813437A6913437B6111
:1039CC00FB687A699A6000BF1C37BD4680BC7047A3
:1039DC0080B485B000AF786039607B6893F83C3078
:1039EC00012B01D1022341E07B68012283F83C20AA
:1039FC007B68022283F83D207B681B685B68FB6058
:103A0C007B681B689B68BB60FB6823F07003FB60E2
:103A1C003B681B68FA681343FB607B681B68FA6899
:103A2C005A607B681B68144A934209D07B681B68F8
:103A3C00B3F1804F04D07B681B68104A93420CD1C1
:103A4C00BB6823F08003BB603B685B68BA681343B8
:103A5C00BB607B681B68BA689A607B68012283F83C
:103A6C003D207B68002283F83C2000231846143745
:103A7C00BD4680BC704700BF002C014000040040D4
:103A8C0080B483B000AF786000BF0C37BD4680BCFB
:103A9C00704780B483B000AF786000BF0C37BD4670
:103AAC0080BC704770B500260C4D0D4C641BA410E7
:103ABC00A64209D100F022F800260A4D0A4C641BDC
:103ACC00A410A64205D170BD55F8043B98470136A9
:103ADC00EEE755F8043B98470136F2E7443B000803
:103AEC00443B0008443B0008483B000803460244A2
:103AFC00934200D1704703F8011BF9E7F8B500BFFA
:103B0C00F8BC08BC9E467047F8B500BFF8BC08BCB2
:043B1C009E4670470A
:103B2000000000000000000001020304060708096D
:103B300002030405060708090A0B0C0D0E0F1010EE
:043B4000010200007E
:043B44003101000843
:043B48000D01000863
:103B4C000100000001000000010000000100000065
:103B5C000100000001000000010000000100000055
:103B6C000100000001000000010000000100000045
:103B7C000100000001000000010000000100000035
:103B8C0001000000010000002C01000032000000C8
:103B9C00320000002C0100000500000002000000B3
:103BAC0003000000050000000200000003000000FC
:103BBC0001000000030000000A00000000127A005F
:083BCC001000000001000000E0
:04000005080024913A
:00000001FF
