:020000040800F2
:10000000002800208D2300081D230008232300085A
:10001000292300082F2300083523000800000000D2
:100020000000000000000000000000003B2300086A
:100030004723000800000000532300085F23000846
:10004000D5230008D5230008D5230008D5230008B0
:10005000D5230008D5230008D5230008D5230008A0
:10006000D5230008D5230008D5230008D523000890
:10007000D5230008D5230008D5230008D523000880
:10008000D5230008D5230008D5230008D523000870
:10009000D5230008D5230008D5230008D523000860
:1000A000D5230008D5230008D5230008D523000850
:1000B0006D230008D523000800000000D5230008A8
:1000C000D52300080000000000000000D523000830
:1000D00000000000D5230008D52300080000000020
:1000E000D5230008D5230008D52300080000000010
:1000F0000000000000000000000000000000000000
:0C01000000000000000000005FF808F1A3
:10010C0010B5054C237833B9044B13B10448AFF345
:10011C0000800123237010BD880000200000000027
:10012C00043A000808B5034B1BB103490348AFF36D
:10013C00008008BD000000008C000020043A00087C
:10014C0080B500AF00F0ACFC00F0F2FB00BF80BD4E
:10015C0080B582B000AF78607B68092B00F2B28169
:10016C0001A252F823F000BF9D010008EF01000826
:10017C004102000893020008E5020008370300085A
:10018C0089030008DB0300082D0400087F04000825
:10019C0000224021CD4802F01AFC00228021CB48DD
:1001AC0002F015FC00224FF48071C84802F00FFCDD
:1001BC0000224FF40071C54802F009FC00224FF4F4
:1001CC008061C24802F003FC00224FF40061BF487A
:1001DC0002F0FDFB01224FF48051BC4802F0F7FB0A
:1001EC0070E101224021B94802F0F1FB002280218C
:1001FC00B64802F0ECFB00224FF48071B34802F0D9
:10020C00E6FB01224FF40071B04802F0E0FB012242
:10021C004FF48061AD4802F0DAFB01224FF400612B
:10022C00AA4802F0D4FB01224FF48051A74802F0F7
:10023C00CEFB47E100224021A44802F0C8FB00227B
:10024C008021A24802F0C3FB01224FF480719F4829
:10025C0002F0BDFB00224FF400719C4802F0B7FB8A
:10026C0000224FF48061994802F0B1FB01224FF457
:10027C000061964802F0ABFB00224FF4805193488A
:10028C0002F0A5FB1EE100224021904802F09FFBEA
:10029C00002280218D4802F09AFB00224FF48071DD
:1002AC008A4802F094FB00224FF40071874802F058
:1002BC008EFB01224FF48061844802F088FB0122FE
:1002CC004FF40061814802F082FB00224FF4805110
:1002DC007E4802F07CFBF5E0012240217B4802F0D5
:1002EC0076FB00228021794802F071FB00224FF44A
:1002FC008071764802F06BFB01224FF40071734859
:10030C0002F065FB01224FF48061704802F05FFB44
:10031C0000224FF400616D4802F059FB00224FF4AB
:10032C0080516A4802F053FBCCE000224021674820
:10033C0002F04DFB01228021644802F048FB0022B0
:10034C004FF48071614802F042FB00224FF40071BF
:10035C005E4802F03CFB01224FF480615B4802F0E6
:10036C0036FB00224FF40061584802F030FB0022AB
:10037C004FF48051554802F02AFBA3E000224021A3
:10038C00524802F024FB01228021504802F01FFB4E
:10039C0000224FF480714D4802F019FB00224FF4FB
:1003AC0000714A4802F013FB00224FF48061474869
:1003BC0002F00DFB00224FF40061444802F007FBF1
:1003CC0000224FF48051414802F001FB7AE00022F8
:1003DC0040213E4802F0FBFA002280213B4802F00B
:1003EC00F6FA00224FF48071384802F0F0FA01223C
:1003FC004FF40071354802F0EAFA01224FF48061A3
:10040C00324802F0E4FA01224FF400612F4802F066
:10041C00DEFA01224FF480512C4802F0D8FA51E058
:10042C0000224021294802F0D2FA002280212748DC
:10043C0002F0CDFA00224FF48071244802F0C7FA82
:10044C0000224FF40071214802F0C1FA00224FF44F
:10045C0080611E4802F0BBFA00224FF400611B4879
:10046C0002F0B5FA00224FF48051184802F0AFFAAE
:10047C0028E000224021154802F0A9FA0022802130
:10048C00124802F0A4FA00224FF480710F4802F0D7
:10049C009EFA00224FF400710C4802F098FA0122E7
:1004AC004FF48061094802F092FA00224FF4006187
:1004BC00064802F08CFA00224FF48051034802F0F7
:1004CC0086FA00BF00BF0837BD4680BD000C014056
:1004DC0080B582B000AF78607B68092B00F2B281E6
:1004EC0001A252F823F000BF1D0500086F0500089B
:1004FC00C10500081306000865060008B7060008C9
:10050C00090700085B070008AD070008FF07000893
:10051C0000224021CD4802F05AFA00228021CB481B
:10052C0002F055FA00224FF48071C84802F04FFADD
:10053C0000224FF40071C54802F049FA00224FF432
:10054C008061C24802F043FA00224FF40061BF48B8
:10055C0002F03DFA01224FF48051BC4802F037FA08
:10056C0070E101224021B94802F031FA00228021C9
:10057C00B64802F02CFA00224FF48071B34802F016
:10058C0026FA01224FF40071B04802F020FA012241
:10059C004FF48061AD4802F01AFA01224FF4006169
:1005AC00AA4802F014FA01224FF48051A74802F035
:1005BC000EFA47E100224021A44802F008FA00227A
:1005CC008021A24802F003FA01224FF480719F4867
:1005DC0002F0FDF900224FF400719C4802F0F7F98B
:1005EC0000224FF48061994802F0F1F901224FF496
:1005FC000061964802F0EBF900224FF480519348C9
:10060C0002F0E5F91EE100224021904802F0DFF9EA
:10061C00002280218D4802F0DAF900224FF480711B
:10062C008A4802F0D4F900224FF40071874802F096
:10063C00CEF901224FF48061844802F0C8F90122FE
:10064C004FF40061814802F0C2F900224FF480514E
:10065C007E4802F0BCF9F5E0012240217B4802F013
:10066C00B6F900228021794802F0B1F900224FF44A
:10067C008071764802F0ABF901224FF40071734897
:10068C0002F0A5F901224FF48061704802F09FF945
:10069C0000224FF400616D4802F099F900224FF4EA
:1006AC0080516A4802F093F9CCE00022402167485F
:1006BC0002F08DF901228021644802F088F90022B1
:1006CC004FF48071614802F082F900224FF40071FE
:1006DC005E4802F07CF901224FF480615B4802F025
:1006EC0076F900224FF40061584802F070F90022AC
:1006FC004FF48051554802F06AF9A3E000224021E2
:10070C00524802F064F901228021504802F05FF94E
:10071C0000224FF480714D4802F059F900224FF439
:10072C0000714A4802F053F900224FF480614748A7
:10073C0002F04DF900224FF40061444802F047F9F1
:10074C0000224FF48051414802F041F97AE0002236
:10075C0040213E4802F03BF9002280213B4802F048
:10076C0036F900224FF48071384802F030F901223A
:10077C004FF40071354802F02AF901224FF48061E0
:10078C00324802F024F901224FF400612F4802F0A4
:10079C001EF901224FF480512C4802F018F951E057
:1007AC0000224021294802F012F90022802127481A
:1007BC0002F00DF900224FF48071244802F007F981
:1007CC0000224FF40071214802F001F900224FF48D
:1007DC0080611E4802F0FBF800224FF400611B48B8
:1007EC0002F0F5F800224FF48051184802F0EFF8AF
:1007FC0028E000224021154802F0E9F8002280216F
:10080C00124802F0E4F800224FF480710F4802F015
:10081C00DEF800224FF400710C4802F0D8F80122E7
:10082C004FF48061094802F0D2F800224FF40061C5
:10083C00064802F0CCF800224FF48051034802F035
:10084C00C6F800BF00BF0837BD4680BD0008014098
:10085C0080B582B000AF78607B68002B03D07B68DA
:10086C00012B12D023E000221021134802F0AFF824
:10087C0001222021104802F0AAF8104A7B6852F895
:10088C0023301846FFF764FC11E0012210210A48BE
:10089C0002F09DF800222021074802F098F8074A40
:1008AC007B6852F823301846FFF752FC00BF00BF9C
:1008BC000837BD4680BD00BF000C0140A4000020DD
:1008CC0080B582B000AF78607B68002B03D07B686A
:1008DC00012B12D023E000220221134802F077F8FA
:1008EC0001220421104802F072F8104A7B6852F879
:1008FC0023301846FFF7ECFD11E0012202210A48D3
:10090C0002F065F800220421074802F060F8074A5B
:10091C007B6852F823301846FFF7DAFD00BF00BFA2
:10092C000837BD4680BD00BF000C0140AC00002064
:10093C0080B500AF534B1B68013B062B00F2878040
:10094C0001A252F823F000BF71090008B109000898
:10095C00F10900085B0A0008310A00083F0A000888
:10096C004D0A0008484B1A68484B1B68D31A484A72
:10097C0082FB03129210DB17D31A464A1360424BC8
:10098C001A68424B1B68D11A414B83FB01239A1006
:10099C00CB17D21A13469B0013445B00CA1A3D4B6B
:1009AC005A6054E0384B5A68384B1B68D31A384A93
:1009BC0082FB03129210DB17D31A364A1360324BA8
:1009CC005A68324B1B68D11A314B83FB01239A10A6
:1009DC00CB17D21A13469B0013445B00CA1A2D4B3B
:1009EC005A6034E0284B9A68284B1B68D31A284A63
:1009FC0082FB03129210DB17D31A264A1360224B88
:100A0C009A68224B1B68D11A214B83FB01239A1045
:100A1C00CB17D21A13469B0013445B00CA1A1D4B0A
:100A2C005A6014E01B4B00221A601A4B02225A60C7
:100A3C000DE0184B00221A60164B03225A6006E098
:100A4C00144B00221A60134B04225A6000BF124B45
:100A5C001B68012B14D1114B1B68012B02DD0F4BB2
:100A6C0000221A600D4B1B681846FFF7F1FE0B4B6A
:100A7C001B680133094A13604FF4FA7001F0DEFA77
:100A8C0000BF80BD7400002058000020C80000206A
:100A9C0067666666A40000200C010020040000209C
:100AAC0080B500AF704B1B68013B062B00F2C08079
:100ABC0001A252F823F000BFE10A0008210B000844
:100ACC00610B00083D0C0008A10B0008D50B0008B9
:100ADC00090C0008654B1A68654B1B68D31A654AEC
:100AEC0082FB03129210DB17D31A634A13605F4B1D
:100AFC001A685F4B1B68D11A5E4B83FB01239A105B
:100B0C00CB17D21A13469B0013445B00CA1A5A4BDC
:100B1C005A608DE0554B5A68554B1B68D31A554A91
:100B2C0082FB03129210DB17D31A534A13604F4BFC
:100B3C005A684F4B1B68D11A4E4B83FB01239A10FA
:100B4C00CB17D21A13469B0013445B00CA1A4A4BAC
:100B5C005A606DE0454B9A68454B1B68D31A454A61
:100B6C0082FB03129210DB17D31A434A13603F4BDC
:100B7C009A683F4B1B68D11A3E4B83FB01239A109A
:100B8C00CB17D21A13469B0013445B00CA1A3A4B7C
:100B9C005A604DE0394B1B68364A82FB03129210A7
:100BAC00DB17D31A344A1360344B1968314B83FB6F
:100BBC0001239A10CB17D21A13469B0013445B00E7
:100BCC00CA1A2D4B5A6033E02C4B5B68294A82FBC6
:100BDC0003129210DB17D31A274A1360274B59685C
:100BEC00244B83FB01239A10CB17D21A13469B007C
:100BFC0013445B00CA1A204B5A6019E01F4B9B68C8
:100C0C001C4A82FB03129210DB17D31A1A4A136088
:100C1C001A4B9968174B83FB01239A10CB17D21AE6
:100C2C0013469B0013445B00CA1A134B5A6000BF57
:100C3C00134B1B68012B14D1124B1B68012B02DDCB
:100C4C00104B00221A600F4B1B681846FFF738FE3A
:100C5C000C4B1B6801330B4A13604FF4FA7001F014
:100C6C00D3F900BF80BD00BF7000002064000020DD
:100C7C00C400002067666666AC000020CC00002033
:100C8C00040100200000002080B400AF064B1B685C
:100C9C00012B04D1044B00221A60012300E0002335
:100CAC001846BD4680BC7047B400002080B400AF2D
:100CBC00064B1B68012B04D1044B00221A60012344
:100CCC0000E000231846BD4680BC7047B8000020E9
:100CDC0080B400AF064B1B68012B04D1044B0022DF
:100CEC001A60012300E000231846BD4680BC704703
:100CFC00BC00002080B400AF064B1B68012B04D154
:100D0C00044B00221A60012300E000231846BD4664
:100D1C0080BC7047C000002080B582B000AF0023BB
:100D2C007B60394A7B6852F8232038497B6841F84C
:100D3C002320374A7B6852F8232033497B6841F8DB
:100D4C0023204FF40051334801F02AFE0346194684
:100D5C002F4A7B6842F823102C4A7B6852F82320D8
:100D6C0029497B6851F823309A4249D1264A7B683D
:100D7C0052F8232026497B6851F823309A423FD100
:100D8C00254A7B6852F8232021497B6851F823308F
:100D9C009A4217D01E4A7B6852F823201E497B6862
:100DAC0041F823201A4A7B6852F82330002B27D1B4
:100DBC001A4B01221A601A4A7B684FF4967142F85A
:100DCC0023101DE0124A7B6852F82330002B17D1F8
:100DDC00134A7B6852F823305A1E11497B6841F83C
:100DEC0023200F4A7B6852F82330002B08D10B4B81
:100DFC0001221A600A4A7B684FF4967142F823105C
:100E0C0000BF0837BD4680BD180000200800002038
:100E1C00280000200008014038000020B400002009
:100E2C004800002080B582B000AF01237B60384AB7
:100E3C007B6852F8232037497B6841F82320364AD7
:100E4C007B6852F8232032497B6841F823204FF409
:100E5C008041324801F0A4FD034619462E4A7B68B6
:100E6C0042F823102B4A7B6852F8232028497B68D0
:100E7C0051F823309A4247D1254A7B6852F82320F7
:100E8C0025497B6851F823309A423DD1244A7B682E
:100E9C0052F8232020497B6851F823309A4216D00F
:100EAC001D4A7B6852F823201D497B6841F823209A
:100EBC00194A7B6852F82330002B25D1194B01229B
:100ECC001A60194A7B68322142F823101CE0124A3E
:100EDC007B6852F82330002B16D1134A7B6852F8EA
:100EEC0023305A1E10497B6841F823200E4A7B6838
:100EFC0052F82330002B07D10A4B01221A600A4A00
:100F0C007B68322142F8231000BF0837BD4680BDF4
:100F1C0018000020080000202800002000080140D4
:100F2C0038000020B80000204800002080B582B0B6
:100F3C0000AF02237B60384A7B6852F82320374984
:100F4C007B6841F82320364A7B6852F823203249CB
:100F5C007B6841F823204FF40041324801F020FD1A
:100F6C00034619462E4A7B6842F823102B4A7B68AD
:100F7C0052F8232028497B6851F823309A4247D1F4
:100F8C00254A7B6852F8232025497B6851F8233089
:100F9C009A423DD1244A7B6852F8232020497B6831
:100FAC0051F823309A4216D01D4A7B6852F8232000
:100FBC001D497B6841F82320194A7B6852F823307D
:100FCC00002B25D1194B01221A60194A7B6832215A
:100FDC0042F823101CE0124A7B6852F82330002B95
:100FEC0016D1134A7B6852F823305A1E10497B687D
:100FFC0041F823200E4A7B6852F82330002B07D18E
:10100C000A4B01221A600A4A7B68322142F82310EB
:10101C0000BF0837BD4680BD180000200800002026
:10102C00280000200008014038000020BC000020EF
:10103C004800002080B582B000AF03237B60394AA2
:10104C007B6852F8232038497B6841F82320374AC3
:10105C007B6852F8232033497B6841F82320012117
:10106C00334801F09DFC03461946304A7B6842F830
:10107C0023102D4A7B6852F823202A497B6851F8AB
:10108C0023309A4249D1274A7B6852F823202749BA
:10109C007B6851F823309A423FD1264A7B6852F83C
:1010AC00232022497B6851F823309A4217D01F4ADB
:1010BC007B6852F823201F497B6841F823201B4A88
:1010CC007B6852F82330002B27D11B4B01221A606E
:1010DC001A4A7B684FF4967142F823101DE0134AAC
:1010EC007B6852F82330002B17D1144A7B6852F8D6
:1010FC0023305A1E11497B6841F823200F4A7B6824
:10110C0052F82330002B08D10B4B01221A600B4AEA
:10111C007B684FF4967142F8231000BF0837BD4628
:10112C0080BD00BF1800002008000020280000200F
:10113C00000C014038000020C000002048000020B6
:10114C0080B500AF00F004F800F0A8F800BF80BD37
:10115C0080B500AF4C4B1B68032B61D0032B00F305
:10116C009180012B02D0022B2DD08BE00122042187
:10117C00464801F02CFC00220821444801F027FCD1
:10118C0000221021414801F022FC414B1B68012B2D
:10119C0008D1404B1B6801333E4A13604FF47A7000
:1011AC0000F066FF3C4B1A683A4B1B689A4264D1BC
:1011BC004FF47A7000F05CFF364B00221A60324B11
:1011CC0003221A6059E000220421304801F0FFFB91
:1011DC00012208212D4801F0FAFB002210212B4896
:1011EC0001F0F5FB2A4B1B68012B08D1294B1B681E
:1011FC000133284A13604FF47A7000F039FF264B04
:10120C005A68244B1B689A4239D14FF47A7000F01B
:10121C002FFF204B00221A601B4B01221A602EE07C
:10122C0000220421194801F0D2FB002208211748A2
:10123C0001F0CDFB01221021144801F0C8FB144B26
:10124C001B68012B08D1134B1B680133114A136027
:10125C004FF47A7000F00CFF0F4B9A680D4B1B6823
:10126C009A420ED14FF47A7000F002FF094B002223
:10127C001A60054B02221A6003E000BF02E000BFB7
:10128C0000E000BF00BF80BD7000002000080140DE
:10129C0014010020C40000206400002080B500AFC1
:1012AC00514B1B68032B67D0032B00F39A80012B47
:1012BC0002D0022B30D094E001224FF400514B4865
:1012CC0001F085FB00224FF48041484801F07FFB80
:1012DC0000224FF40041454801F079FB444B1B6858
:1012EC00012B08D1434B1B680133424A13604FF466
:1012FC007A7000F0D7FE404B1A683E4B1B689A423E
:10130C006AD14FF47A7000F0CDFE3A4B00221A608D
:10131C00354B03221A605FE000224FF40051334832
:10132C0001F055FB01224FF48041304801F04FFB96
:10133C0000224FF400412D4801F049FB2C4B1B6857
:10134C00012B08D12B4B1B6801332A4A13604FF435
:10135C007A7000F0A7FE284B5A68264B1B689A42FD
:10136C003CD14FF47A7000F09DFE224B00221A60A3
:10137C001D4B01221A6031E000224FF400511B4832
:10138C0001F025FB00224FF48041184801F01FFBAF
:10139C0001224FF40041154801F019FB144B1B6856
:1013AC00012B08D1134B1B680133124A13604FF405
:1013BC007A7000F077FE104B9A680E4B1B689A42BD
:1013CC000ED14FF47A7000F06DFE0A4B00221A60B9
:1013DC00054B02221A6003E000BF02E000BF00E0F0
:1013EC0000BF00BF80BD00BF74000020000C014096
:1013FC001C010020C80000205800002080B584B0DB
:10140C0000AFAD4B1B68013B062B00F2798401A2A7
:10141C0052F823F03D140008C114000843150008CD
:10142C000D1D0008C51500085F1700086D19000890
:10143C00FFF72AFC0346012B40F057840023FB6086
:10144C000AE09E4AFB6852F823209D49FB6841F84C
:10145C002320FB680133FB60FB68022BF1DD4FF4AA
:10146C00FA7000F053FE42F2107000F035FE954B0E
:10147C0000221A60944B00221A60944B00221A60CE
:10148C00934B00221A60934B00221A60924B00225D
:10149C001A60924B00221A60914B00221A60914BF9
:1014AC0000221A60844B05221A608F4B05221A60A9
:1014BC0000F01BBCFFF7E8FB0346012B40F0178440
:1014CC000023BB600AE07D4ABB6852F823207C49AC
:1014DC00BB6841F82320BB680133BB60BB68022B9F
:1014EC00F1DD4FF4FA7000F011FE42F2107000F0D2
:1014FC00F3FD744B00221A60734B00221A60734B7D
:10150C0000221A60724B00221A60724B00221A6081
:10151C00714B00221A60714B00221A60704B002232
:10152C001A60704B00221A60634B05221A606E4BD6
:10153C0005221A60DBE3FFF7A7FB0346012B40F003
:10154C00D88300237B600AE05C4A7B6852F8232036
:10155C005B497B6841F823207B6801337B607B68A7
:10156C00022BF1DD4FF4FA7000F0D0FD42F2107056
:10157C0000F0B2FD534B00221A60534B00221A604C
:10158C00524B00221A60524B00221A60514B00221F
:10159C001A60514B00221A60504B00221A60504BBB
:1015AC0000221A604F4B00221A60434B05221A602E
:1015BC004D4B05221A609CE3424B1B68002B0DD14E
:1015CC00404B01221A6001220421484801F0FFF926
:1015DC0001224FF40051464801F0F9F9454B1B68C4
:1015EC00012B0CD10421414801F009FA4FF40051B0
:1015FC003F4801F004FA4FF4FA7000F087FD002226
:10160C0008213A4801F0E3F900224FF480413848B0
:10161C0001F0DDF900221021344801F0D8F9002244
:10162C004FF40041324801F0D2F9FFF72DFB03468D
:10163C00012B0DD1204B06221A602B4B06221A606F
:10164C0042F2107000F048FD4FF4FA7000F05EFDAD
:10165C00FFF72CFB0346012B17D11D4B01221A60FF
:10166C00174B1B68632B09DC154B1B68002B05DD26
:10167C00134B1B680133124A136002E0104B01221A
:10168C001A6042F2107000F027FDFFF721FB0346B1
:10169C00012B38D1114B01221A60094B1B68632BAB
:1016AC002ADC074B1B68002B26DD054B1B68013B16
:1016BC00034A136023E000BF700000206400002088
:1016CC00CC000020D8000020DC000020E00000202E
:1016DC00E4000020E8000020EC000020F0000020D6
:1016EC00F4000020F80000207400002000080140E5
:1016FC00000C01402C010020894B01221A6042F29F
:10170C00107000F0E9FCFFF7F5FA0346012B0ED13F
:10171C00844B01221A60844B03221A60834B0122F2
:10172C001A60834B01221A60824B00221A60814B93
:10173C001B68012B40F0DF827C4B01221A607C4B32
:10174C0001221A60774B01221A60774B03221A6030
:10175C00D1E2794B1B68002B0DD1774B01221A601B
:10176C0001220821754801F032F901224FF4804121
:10177C00734801F02CF9734B1B68012B0CD1082119
:10178C006E4801F03CF94FF480416D4801F037F997
:10179C004FF4FA7000F0BAFC00220421674801F003
:1017AC0016F900224FF40051654801F010F900229F
:1017BC001021624801F00BF900224FF400416048FF
:1017CC0001F005F9FFF760FA0346012B0DD1554BDB
:1017DC0007221A60544B07221A6042F2107000F074
:1017EC007BFC4FF4FA7000F091FCFFF75FFA0346B4
:1017FC00012B17D1544B01221A60494B5B68632BA8
:10180C0009DC474B5B68002B05DD454B5B680133FE
:10181C00434A536002E0424B01225A6042F210707C
:10182C0000F05AFCFFF754FA0346012B17D1474B33
:10183C0001221A603A4B5B68632B09DC384B5B68FE
:10184C00002B05DD364B5B68013B354A536002E0EB
:10185C00334B01225A6042F2107000F03DFCFFF74E
:10186C0049FA0346012B49D1394B1B68012B03D094
:10187C00384B1B68012B32D1334B1B68012B03D027
:10188C00324B1B68012B2AD1254B1A68244B5B6801
:10189C00D31A234A9360224B5A68214B9B689A4275
:1018AC001DDA1F4B5A681E4B1B689A4217DA1C4BE9
:1018BC001B68294A13601A4B1B68284A1360184B83
:1018CC005B68254A5360164B5B68244A5360144B83
:1018DC009B68214A9360124B9B68204A9360114B82
:1018EC0001221A60104B03221A60104B01221A605D
:1018FC000F4B01221A600F4B00221A600D4B1B6814
:10190C00012B40F0FA81094B01221A60084B01228D
:10191C001A60044B01221A60034B03221A60ECE19B
:10192C00CC0000207000002074000020000000207B
:10193C000400002024010020DC00002000080140ED
:10194C00000C01402C010020E8000020F4000020D5
:10195C00E4000020F000002064000020580000206B
:10196C007F4B1B68002B0DD17D4B01221A6001228D
:10197C0010217C4801F02BF801224FF400417A48E9
:10198C0001F025F8794B1B68012B0CD110217548FF
:10199C0001F035F84FF40041734801F030F84FF482
:1019AC00FA7000F0B3FB002204216E4801F00FF82E
:1019BC0000224FF400516C4801F009F80022082174
:1019CC00684801F004F800224FF48041664800F0AA
:1019DC00FEFFFFF759F90346012B05D1644B012299
:1019EC001A60644B03221A60FFF760F90346012B5F
:1019FC0017D1614B01221A60604B9B68632B09DC89
:101A0C005E4B9B68002B05DD5C4B9B6801335B4A8E
:101A1C00936002E0594B01229A6042F2107000F080
:101A2C005BFBFFF755F90346012B17D1544B0122F1
:101A3C001A60524B9B68632B09DC504B9B68002B44
:101A4C0005DD4E4B9B68013B4C4A936002E04B4BCF
:101A5C0001229A6042F2107000F03EFBFFF74AF947
:101A6C000346012B40F03081464B1B68012B03D001
:101A7C00454B1B68012B35D1444B1B68012B03D004
:101A8C00434B1B68012B2DD13C4B1A683B4B5B68BD
:101A9C00D31A3A4A9360394B5A68384B9B689A422E
:101AAC0080F2FE80354B5A68344B1B689A4280F2A8
:101ABC00F780324B1B68374A1360304B1B68364A31
:101ACC0013602E4B5B68334A53602C4B5B68324A75
:101ADC0053602A4B9B682F4A9360284B9B682E4A75
:101AEC009360DDE0274B1B68012B03D0264B1B6852
:101AFC00012B53D1204B1B68012B03D0204B1B68AF
:101B0C00012B4BD11D4B1A681C4B9B68D31A1B4ADB
:101B1C0053601A4B5A68194B9B689A4280F2C280E8
:101B2C00164B5A68154B1B689A4280F2BB80134BBC
:101B3C001B68184A1360114B1B68174A13600F4B34
:101B4C005B68144A53600D4B5B68134A53600B4B34
:101B5C009B68104A9360094B9B680F4A9360A1E005
:101B6C00E000002000080140000C01402C01002086
:101B7C007000002074000020EC000020CC0000203D
:101B8C00F8000020E4000020F0000020E800002015
:101B9C00F400002064000020580000205A4B1B6801
:101BAC00012B03D0594B1B68012B33D1584B1B68AD
:101BBC00012B03D0574B1B68012B2BD1564B5A686A
:101BCC00554B9B681344544A1360534B5A68524B01
:101BDC009B689A4268DA504B5A684F4B1B689A4282
:101BEC0062DA4D4B1B684D4A13604B4B1B684C4AD9
:101BFC001360494B5B68494A5360474B5B68484AE2
:101C0C005360454B9B68454A9360434B9B68444AE1
:101C1C00936049E0434B1B68012B03D0424B1B687C
:101C2C00012B42D1384B1B68012B03D0374B1B685F
:101C3C00012B3AD1364B1B68012B03D0354B1B685B
:101C4C00012B32D1344B5A68334B9B689A422CDAB5
:101C5C00314B5A68304B1B689A4226DA2E4B1A6865
:101C6C002D4B59682C4B9B680B449A421DD12A4B27
:101C7C001B682A4A1360284B1B68294A1360264BA1
:101C8C005B68264A5360244B5B68254A5360224BA1
:101C9C009B68224A9360204B9B68214A936004E026
:101CAC0000BF02E000BF00E000BF204B01221A6021
:101CBC001F4B03221A601F4B01221A601E4B01227C
:101CCC001A601E4B00221A601C4B1B68012B16D18C
:101CDC00184B01221A60184B01221A60134B012277
:101CEC001A60134B03221A6009E000BF08E000BF22
:101CFC0006E000BF04E000BF02E000BF00E000BF50
:101D0C0000BF1037BD4680BDE8000020F400002065
:101D1C00EC000020F8000020CC0000206400002023
:101D2C0058000020E4000020F0000020700000208B
:101D3C00740000200000002004000020240100207A
:101D4C0080B500AF00F042FB00F034F800F0BAF8B8
:101D5C0000F06CF8144801F097FA4FF47A7000F028
:101D6C0039F94FF47A7000F083F94FF47A7000F07F
:101D7C0099F94FF4FA7000F047F94FF4FA7000F04B
:101D8C005DF90A4B1B68012B07D12021084800F094
:101D9C0036FE4FF47A7000F01DF9FEF7D1F9FFF71B
:101DAC002DFBFFF7CDF9ECE734010020FC000020FF
:101DBC000008014080B590B000AF07F1180328224D
:101DCC000021184601F010FE3B1D00221A605A60DB
:101DDC009A60DA601A610223BB610123BB62102393
:101DEC00FB6200237B6307F11803184600F020FE0A
:101DFC000346002B01D000F0E7F80F237B60002393
:101E0C00BB600023FB6000233B6100237B613B1D17
:101E1C000021184601F08CF80346002B01D000F08D
:101E2C00D3F800BF4037BD4680BD000080B586B0FA
:101E3C0000AF07F1080300221A605A609A60DA605A
:101E4C003B4600221A605A601D4B4FF080421A60CC
:101E5C001B4B41F63F725A60194B00229A60184B8B
:101E6C000922DA60164B00221A61154B00229A6186
:101E7C00134801F0B9F90346002B01D000F0A4F887
:101E8C004FF48053BB6007F1080319460C4801F06E
:101E9C0037FB0346002B01D000F096F800233B6083
:101EAC0000237B603B461946054801F00FFD0346B5
:101EBC00002B01D000F088F800BF1837BD4680BD5C
:101ECC003401002080B586B000AF07F10803002272
:101EDC001A605A609A60DA602F4B9B692E4A43F065
:101EEC00040393612C4B9B6903F004037B607B68B8
:101EFC00294B9B69284A43F008039361264B9B6945
:101F0C0003F008033B603B68002241F6FC71234858
:101F1C0000F05DFD00224FF6F671214800F057FDF0
:101F2C0041F6FC73BB600123FB6000233B61022381
:101F3C007B6107F108031946184800F0B7FB012331
:101F4C00BB600023FB6001233B6107F108031946CA
:101F5C00134800F0ABFB4FF6F673BB600123FB603C
:101F6C0000233B6102237B6107F1080319460C48EF
:101F7C0000F09CFB4FF46043BB600023FB6001232B
:101F8C003B6107F108031946044800F08FFB00BFC2
:101F9C001837BD4680BD00BF00100240000801404C
:101FAC00000C014080B582B000AF786000F0C8F83A
:101FBC00FEF7B2FEFEF736FFFEF7B8FFFFF73AF872
:101FCC0000BF0837BD4680BD80B400AF72B600BFFD
:101FDC00FEE7000080B483B000AF7860074B1B684D
:101FEC007A6892FBF3F3064A1360064B00221A60E0
:101FFC0000BF0C37BD4680BC704700BF7800002086
:10200C0000010020FC00002080B483B000AF786099
:10201C00074B1B687A6892FBF3F3064A1360064B76
:10202C0000221A6000BF0C37BD4680BC704700BF51
:10203C0078000020080100200401002080B483B047
:10204C0000AF7860074B1B687A6892FBF3F3064A83
:10205C001360064B00221A6000BF0C37BD4680BCD3
:10206C00704700BF78000020100100200C010020F8
:10207C0080B483B000AF7860074B1B687A6892FB22
:10208C00F3F3064A1360064B00221A6000BF0C37AC
:10209C00BD4680BC704700BF7800002018010020AE
:1020AC001401002080B483B000AF7860074B1B682C
:1020BC007A6892FBF3F3064A1360064B00221A600F
:1020CC0000BF0C37BD4680BC704700BF78000020B5
:1020DC00200100201C01002080B483B000AF786088
:1020EC00074B1B687A6892FBF3F3064A1360064BA6
:1020FC0000221A6000BF0C37BD4680BC704700BF81
:10210C0078000020280100202401002080B483B036
:10211C0000AF7860074B1B687A6892FBF3F3064AB2
:10212C001360064B00221A6000BF0C37BD4680BC02
:10213C00704700BF78000020300100202C010020E7
:10214C0080B400AF394B1B68002B0BDD374B1B6881
:10215C00013B364A1360354B1B68002B02DC344BB9
:10216C0001221A60334B1B68002B0BDD314B1B68B3
:10217C00013B304A13602F4B1B68002B02DC2E4BAB
:10218C0001221A602D4B1B68002B0BDD2B4B1B689F
:10219C00013B2A4A1360294B1B68002B02DC284B9D
:1021AC0001221A60274B1B68002B0BDD254B1B688B
:1021BC00013B244A1360234B1B68002B02DC224B8F
:1021CC0001221A60214B1B68002B0BDD1F4B1B6877
:1021DC00013B1E4A13601D4B1B68002B02DC1C4B81
:1021EC0001221A601B4B1B68002B0BDD194B1B6863
:1021FC00013B184A1360174B1B68002B02DC164B73
:10220C0001221A60154B1B68002B0BDD134B1B684E
:10221C00013B124A1360114B1B68002B02DC104B64
:10222C0001221A6000BFBD4680BC7047000100202F
:10223C00FC000020080100200401002010010020F7
:10224C000C010020180100201401002020010020A6
:10225C001C01002028010020240100203001002056
:10226C002C01002080B485B000AF154B9B69144A3B
:10227C0043F001039361124B9B6903F00103BB60B4
:10228C00BB680F4BDB690E4A43F08053D3610C4B98
:10229C00DB6903F080537B607B680A4B5B68FB60F7
:1022AC00FB6823F0E063FB60FB6843F08063FB603A
:1022BC00044AFB68536000BF1437BD4680BC7047AE
:1022CC00001002400000014080B584B000AF78607F
:1022DC007B681B68B3F1804F13D10C4BDB690B4A45
:1022EC0043F00103D361094BDB6903F00103FB608D
:1022FC00FB68002200211C2000F0A1F91C2000F03A
:10230C00BAF900BF1037BD4680BD00BF00100240B7
:10231C0080B400AFFEE780B400AFFEE780B400AF3E
:10232C00FEE780B400AFFEE780B400AFFEE780B4F8
:10233C0000AF00BFBD4680BC704780B400AF00BF8B
:10234C00BD4680BC704780B400AF00BFBD4680BCAA
:10235C00704780B500AF00F07FF800BF80BD000073
:10236C0080B500AF024800F0DBFF00BF80BD00BFAE
:10237C003401002080B400AF00BFBD4680BC704764
:10238C00FFF7F8FF0B480C490C4A002302E0D45825
:10239C00C4500433C4188C42F9D3094A094C0023A5
:1023AC0001E013600432A242FBD301F0F9FAFFF70B
:1023BC00C7FC70470000002088000020483A000845
:1023CC008800002080010020FEE7000080B500AFEF
:1023DC00084B1B68074A43F010031360032000F0FE
:1023EC0023F90F2000F008F8FFF73CFF00231846F4
:1023FC0080BD00BF0020024080B582B000AF786085
:10240C00124B1A68124B1B7819464FF47A73B3FBB4
:10241C00F1F3B2FBF3F3184600F03BF90346002B43
:10242C0001D001230EE07B680F2B0AD800227968BB
:10243C004FF0FF3000F003F9064A7B68136000236D
:10244C0000E0012318460837BD4680BD7C00002003
:10245C00840000208000002080B400AF054B1B7866
:10246C001A46054B1B681344034A136000BFBD4654
:10247C0080BC7047840000207C01002080B400AF39
:10248C00024B1B681846BD4680BC70477C0100207F
:10249C0080B485B000AF78607B6803F00703FB6005
:1024AC000C4BDB68BB60BA684FF6FF031340BB6094
:1024BC00FB681A02BB68134343F0BF6343F4003359
:1024CC00BB60044ABB68D36000BF1437BD4680BCF8
:1024DC00704700BF00ED00E080B400AF044BDB6838
:1024EC001B0A03F007031846BD4680BC704700BFAB
:1024FC0000ED00E080B483B000AF0346FB7197F9A8
:10250C000730002B0BDBFB7903F01F02064997F910
:10251C0007305B09012000FA02F241F8232000BFCA
:10252C000C37BD4680BC704700E100E080B483B03E
:10253C0000AF03463960FB7197F90730002B0ADBBB
:10254C003B68DAB20C4997F907301201D2B20B444E
:10255C0083F800230AE03B68DAB20849FB7903F000
:10256C000F03043B1201D2B20B441A7600BF0C3796
:10257C00BD4680BC704700BF00E100E000ED00E00C
:10258C0080B489B000AFF860B9607A60FB6803F082
:10259C000703FB61FB69C3F10703042B28BF04236A
:1025AC00BB61FB690433062B02D9FB69033B00E0DA
:1025BC0000237B614FF0FF32BB6902FA03F3DA436D
:1025CC00BB681A407B699A404FF0FF317B6901FA76
:1025DC0003F3D9437B680B40134318462437BD469D
:1025EC0080BC704780B582B000AF78607B68013BDF
:1025FC00B3F1807F01D301230FE00A4A7B68013BD2
:10260C0053600F214FF0FF30FFF790FF054B002276
:10261C009A60044B07221A60002318460837BD46FF
:10262C0080BD00BF10E000E080B582B000AF7860E4
:10263C007868FFF72DFF00BF0837BD4680BD80B519
:10264C0086B000AF0346B9607A60FB7300237B61F0
:10265C00FFF742FF78617A68B9687869FFF790FFF5
:10266C00024697F90F3011461846FFF75FFF00BF7F
:10267C001837BD4680BD80B582B000AF0346FB71F4
:10268C0097F907301846FFF735FF00BF0837BD46EE
:10269C0080BD80B582B000AF78607868FFF7A2FF8C
:1026AC00034618460837BD4680BD000080B48BB089
:1026BC0000AF7860396000237B6200233B6248E105
:1026CC0001227B6A02FA03F3FB613B681B68FA691F
:1026DC001340BB61BA69FB699A4240F037813B6891
:1026EC005B68A34A93425ED0A14A934275D8A14A33
:1026FC00934258D09F4A93426FD89F4A934252D0EC
:10270C009D4A934269D89D4A93424CD09B4A93422E
:10271C0063D89B4A934246D0994A93425DD8122B78
:10272C002AD8122B59D801A252F823F0B32700084B
:10273C008D2700089F270008E1270008E7270008DD
:10274C00E7270008E7270008E7270008E727000825
:10275C00E7270008E7270008E7270008E727000815
:10276C00E7270008E7270008E7270008E727000805
:10277C0095270008A9270008824A934213D02CE021
:10278C003B68DB683B6229E03B68DB6804333B62F7
:10279C0024E03B68DB6808333B621FE03B68DB6886
:1027AC000C333B621AE03B689B68002B02D104237C
:1027BC003B6213E03B689B68012B05D108233B620D
:1027CC007B68FA691A6109E008233B627B68FA6945
:1027DC005A6103E000233B6200E000BFBB69FF2BA2
:1027EC0001D87B6801E07B6804337B61BB69FF2BFC
:1027FC0002D87B6A9B0002E07B6A083B9B003B6132
:10280C007B691A680F213B6901FA03F3DB431A4019
:10281C00396A3B6901FA03F31A437B691A603B6816
:10282C005B6803F08053002B00F09080564B9B6943
:10283C00554A43F001039361534B9B6903F0010329
:10284C00BB60BB68514A7B6A9B08023352F8233049
:10285C00FB607B6A03F003039B000F2202FA03F375
:10286C00DB43FA681340FB607B68494A93420DD006
:10287C007B68484A934207D07B68474A934201D110
:10288C00022304E0032302E0012300E000237A6A20
:10289C0002F0030292009340FA681343FB603B4939
:1028AC007B6A9B080233FA6841F823203B685B681B
:1028BC0003F48013002B06D0384B9A683749BB6958
:1028CC0013438B6006E0354B9A68BB69DB43334995
:1028DC0013408B603B685B6803F40013002B06D03D
:1028EC002E4BDA682D49BB691343CB6006E02B4BAA
:1028FC00DA68BB69DB4329491340CB603B685B68F2
:10290C0003F40033002B06D0244B5A682349BB69CF
:10291C0013434B6006E0214B5A68BB69DB431F49EC
:10292C0013404B603B685B6803F48033002B06D08C
:10293C001A4B1A681949BB6913430B6006E0174B15
:10294C001A68BB69DB43154913400B607B6A013382
:10295C007B623B681A687B6A22FA03F3002B7FF4D4
:10296C00AFAE00BF00BF2C37BD4680BC704700BF68
:10297C000000321000003110000022100000211065
:10298C000000121000001110001002400000014065
:10299C0000080140000C01400010014000040140FF
:1029AC0080B485B000AF78600B467B807B689A68FA
:1029BC007B881340002B02D00123FB7301E0002322
:1029CC00FB73FB7B18461437BD4680BC704780B444
:1029DC0083B000AF78600B467B8013467B707B78AE
:1029EC00002B03D07A887B681A6103E07B881A0479
:1029FC007B681A6100BF0C37BD4680BC704780B441
:102A0C0085B000AF78600B467B807B68DB68FB6031
:102A1C007A88FB6813401A04FB68D9437B880B4007
:102A2C001A437B681A6100BF1437BD4680BC7047DF
:102A3C0080B586B000AF78607B68002B01D1012394
:102A4C006CE27B681B6803F00103002B00F08780AD
:102A5C00924B5B6803F00C03042B0CD08F4B5B6820
:102A6C0003F00C03082B12D18C4B5B6803F48033FE
:102A7C00B3F5803F0BD1894B1B6803F40033002B5B
:102A8C006CD07B685B68002B68D1012346E27B68C5
:102A9C005B68B3F5803F06D1804B1B687F4A43F4DB
:102AAC00803313602EE07B685B68002B0CD17B4B72
:102ABC001B687A4A23F480331360784B1B68774A7F
:102ACC0023F4802313601DE07B685B68B3F5A02FB3
:102ADC000CD1724B1B68714A43F4802313606F4B0B
:102AEC001B686E4A43F4803313600BE06B4B1B681E
:102AFC006A4A23F480331360684B1B68674A23F4DB
:102B0C00802313607B685B68002B13D0FFF7B6FC47
:102B1C00386108E0FFF7B2FC02463B69D31A642B1C
:102B2C0001D90323FAE15D4B1B6803F40033002B3E
:102B3C00F0D014E0FFF7A2FC386108E0FFF79EFC30
:102B4C0002463B69D31A642B01D90323E6E1534BAC
:102B5C001B6803F40033002BF0D100E000BF7B684E
:102B6C001B6803F00203002B63D04C4B5B6803F033
:102B7C000C03002B0BD0494B5B6803F00C03082BA8
:102B8C001CD1464B5B6803F48033002B16D1434BAE
:102B9C001B6803F00203002B05D07B681B69012B1B
:102BAC0001D00123BAE13D4B1B6823F0F8027B688E
:102BBC005B69DB00394913430B603AE07B681B69A6
:102BCC00002B20D0364B01221A60FFF757FC3861DE
:102BDC0008E0FFF753FC02463B69D31A022B01D9DC
:102BEC0003239BE12D4B1B6803F00203002BF0D059
:102BFC002A4B1B6823F0F8027B685B69DB002749D2
:102C0C0013430B6015E0264B00221A60FFF736FCCD
:102C1C00386108E0FFF732FC02463B69D31A022BFD
:102C2C0001D903237AE11D4B1B6803F00203002B2F
:102C3C00F0D17B681B6803F00803002B3AD07B684B
:102C4C009B69002B19D0174B01221A60FFF716FC59
:102C5C00386108E0FFF712FC02463B69D31A022BDD
:102C6C0001D903235AE10D4B5B6A03F00203002BDD
:102C7C00F0D0012000F09AFA1CE00A4B00221A60F6
:102C8C00FFF7FCFB38610FE0FFF7F8FB02463B69EE
:102C9C00D31A022B08D9032340E100BF00100240D5
:102CAC0000004242800442429E4B5B6A03F00203E6
:102CBC00002BE9D17B681B6803F00403002B00F0A8
:102CCC00A6800023FB75974BDB6903F08053002B28
:102CDC000DD1944BDB69934A43F08053D361914BF4
:102CEC00DB6903F08053BB60BB680123FB758E4B23
:102CFC001B6803F48073002B18D18B4B1B688A4A1A
:102D0C0043F480731360FFF7B9FB386108E0FFF7F9
:102D1C00B5FB02463B69D31A642B01D90323FDE0B2
:102D2C00814B1B6803F48073002BF0D07B68DB684D
:102D3C00012B06D17B4B1B6A7A4A43F001031362C9
:102D4C002DE07B68DB68002B0CD1764B1B6A754A37
:102D5C0023F001031362734B1B6A724A23F00403C2
:102D6C0013621CE07B68DB68052B0CD16D4B1B6A76
:102D7C006C4A43F0040313626A4B1B6A694A43F0C2
:102D8C00010313620BE0674B1B6A664A23F00103D5
:102D9C001362644B1B6A634A23F0040313627B685F
:102DAC00DB68002B15D0FFF769FB38610AE0FFF7F1
:102DBC0065FB02463B69D31A41F28832934201D932
:102DCC000323ABE0574B1B6A03F00203002BEED03E
:102DDC0014E0FFF753FB38610AE0FFF74FFB0246A4
:102DEC003B69D31A41F28832934201D9032395E00F
:102DFC004C4B1B6A03F00203002BEED1FB7D012B25
:102E0C0005D1484BDB69474A23F08053D3617B687B
:102E1C00DB69002B00F08180424B5B6803F00C03F4
:102E2C00082B61D07B68DB69022B46D13F4B00221B
:102E3C001A60FFF723FB386108E0FFF71FFB02461F
:102E4C003B69D31A022B01D9032367E0354B1B686E
:102E5C0003F00073002BF0D17B681B6AB3F5803F45
:102E6C0008D1304B5B6823F400327B689B682D499A
:102E7C0013434B602B4B5B6823F474127B68196A09
:102E8C007B685B6A0B43274913434B60274B01223A
:102E9C001A60FFF7F3FA386108E0FFF7EFFA024621
:102EAC003B69D31A022B01D9032337E01D4B1B6856
:102EBC0003F00073002BF0D02FE01C4B00221A60A3
:102ECC00FFF7DCFA386108E0FFF7D8FA02463B69F5
:102EDC00D31A022B01D9032320E0124B1B6803F0F9
:102EEC000073002BF0D118E07B68DB69012B01D15A
:102EFC00012313E00B4B5B68FB60FB6803F480322F
:102F0C007B681B6A9A4206D1FB6803F470127B68DB
:102F1C005B6A9A4201D0012300E00023184618375F
:102F2C00BD4680BD0010024000700040600042426F
:102F3C0080B584B000AF786039607B68002B01D11C
:102F4C000123D0E06A4B1B6803F007033A689A42EE
:102F5C0010D9674B1B6823F0070265493B68134384
:102F6C000B60634B1B6803F007033A689A4201D06D
:102F7C000123B8E07B681B6803F00203002B20D010
:102F8C007B681B6803F00403002B05D0594B5B686E
:102F9C00584A43F4E06353607B681B6803F00803F2
:102FAC00002B05D0534B5B68524A43F4605353607B
:102FBC00504B5B6823F0F0027B689B684D491343D0
:102FCC004B607B681B6803F00103002B40D07B68CF
:102FDC005B68012B07D1474B1B6803F40033002BB4
:102FEC0015D101237FE07B685B68022B07D1414B35
:102FFC001B6803F00073002B09D1012373E03D4BD8
:10300C001B6803F00203002B01D101236BE0394B49
:10301C005B6823F003027B685B68364913434B60A3
:10302C00FFF72CFAF8600AE0FFF728FA0246FB6873
:10303C00D31A41F28832934201D9032353E02D4B2A
:10304C005B6803F00C027B685B689B009A42EBD1D7
:10305C00274B1B6803F007033A689A4210D2244BA3
:10306C001B6823F0070222493B6813430B60204B7B
:10307C001B6803F007033A689A4201D0012332E03F
:10308C007B681B6803F00403002B08D0194B5B68AA
:10309C0023F4E0627B68DB68164913434B607B6862
:1030AC001B6803F00803002B09D0124B5B6823F458
:1030BC0060527B681B69DB000E4913434B6000F0C8
:1030CC0021F802460B4B5B681B0903F00F030A49FE
:1030DC00CB5C22FA03F3094A1360094B1B681846B0
:1030EC00FFF78AF9002318461037BD4680BD00BF94
:1030FC0000200240001002401C3A00087C00002016
:10310C008000002080B487B000AF0023FB60002358
:10311C00BB6000237B6100237B6000233B611E4B63
:10312C005B68FB60FB6803F00C03042B02D0082BDC
:10313C0003D027E0194B3B6127E0FB689B0C03F0A5
:10314C000F03174AD35C7B60FB6803F48033002BBE
:10315C0010D0114B5B685B0C03F00103114AD35C7C
:10316C00BB607B680D4A02FB03F2BB68B2FBF3F356
:10317C007B6104E07B680C4A02FB03F37B617B6997
:10318C003B6102E0054B3B6100BF3B6918461C37B5
:10319C00BD4680BC704700BF0010024000127A0090
:1031AC002C3A00083C3A000800093D0080B485B078
:1031BC0000AF78600A4B1B680A4AA2FB03235B0A28
:1031CC007A6802FB03F3FB6000BFFB685A1EFA60CF
:1031DC00002BF9D100BF00BF1437BD4680BC70472F
:1031EC007C000020D34D621080B582B000AF7860B7
:1031FC007B68002B01D1012341E07B6893F83D30C3
:10320C00DBB2002B06D17B68002283F83C20786867
:10321C00FFF75AF87B68022283F83D207B681A6816
:10322C007B6804331946104600F056FA7B6801227D
:10323C0083F846207B68012283F83E207B680122BC
:10324C0083F83F207B68012283F840207B680122B1
:10325C0083F841207B68012283F842207B6801229D
:10326C0083F843207B68012283F844207B68012289
:10327C0083F845207B68012283F83D200023184603
:10328C000837BD4680BD000080B485B000AF7860C3
:10329C007B6893F83D30DBB2012B01D0012335E084
:1032AC007B68022283F83D207B681B68DA687B68A8
:1032BC001B6842F00102DA607B681B68164A934275
:1032CC0009D07B681B68B3F1804F04D07B681B6806
:1032DC00124A934211D17B681B689B6803F0070369
:1032EC00FB60FB68062B10D07B681B681A687B6838
:1032FC001B6842F001021A6007E07B681B681A68C1
:10330C007B681B6842F001021A60002318461437D0
:10331C00BD4680BC704700BF002C0140000400403B
:10332C0080B584B000AF78607B681B68DB68FB609D
:10333C007B681B681B69BB60BB6803F00203002B36
:10334C0020D0FB6803F00203002B1BD07B681B68AA
:10335C006FF002021A617B6801221A777B681B6886
:10336C009B6903F00303002B03D0786800F098F9F5
:10337C0005E0786800F08BF9786800F09AF97B68C2
:10338C0000221A77BB6803F00403002B20D0FB68E3
:10339C0003F00403002B1BD07B681B686FF0040246
:1033AC001A617B6802221A777B681B689B6903F49D
:1033BC004073002B03D0786800F072F905E0786850
:1033CC0000F065F9786800F074F97B6800221A77D0
:1033DC00BB6803F00803002B20D0FB6803F0080344
:1033EC00002B1BD07B681B686FF008021A617B688E
:1033FC0004221A777B681B68DB6903F00303002B3C
:10340C0003D0786800F04CF905E0786800F03FF9DB
:10341C00786800F04EF97B6800221A77BB6803F0DD
:10342C001003002B20D0FB6803F01003002B1BD0E3
:10343C007B681B686FF010021A617B6808221A7790
:10344C007B681B68DB6903F44073002B03D078683E
:10345C0000F026F905E0786800F019F9786800F0BA
:10346C0028F97B6800221A77BB6803F00103002B54
:10347C000CD0FB6803F00103002B07D07B681B68A2
:10348C006FF001021A617868FEF78CFDBB6803F0DF
:10349C008003002B0CD0FB6803F08003002B07D0BB
:1034AC007B681B686FF080021A61786800F06FFA15
:1034BC00BB6803F04003002B0CD0FB6803F0400307
:1034CC00002B07D07B681B686FF040021A6178688C
:1034DC0000F0F8F8BB6803F02003002B0CD0FB685D
:1034EC0003F02003002B07D07B681B686FF02002D1
:1034FC001A61786800F042FA00BF1037BD4680BDF3
:10350C0080B584B000AF786039600023FB737B68B2
:10351C0093F83C30012B01D10223B4E07B680122EB
:10352C0083F83C207B68022283F83D207B681B6873
:10353C009B68BB60BB6823F07703BB60BB6823F45C
:10354C007F43BB607B681B68BA689A603B681B68EA
:10355C00B3F5005F3ED0B3F5005F00F28780B3F5A2
:10356C00805F00F08680B3F5805F7FD8702B1AD017
:10357C00702B7BD8602B50D0602B77D8502B3CD045
:10358C00502B73D8402B58D0402B6FD8302B64D095
:10359C00302B6BD8202B60D0202B67D8002B5CD025
:1035AC00102B5AD062E07B6818683B6899683B68BE
:1035BC005A683B68DB6800F06AF97B681B689B689B
:1035CC00BB60BB6843F07703BB607B681B68BA6861
:1035DC009A604FE07B6818683B6899683B685A684A
:1035EC003B68DB6800F053F97B681B689A687B6862
:1035FC001B6842F480429A603CE07B6818683B6828
:10360C0059683B68DB681A4600F0CAF87B681B688F
:10361C005021184600F021F92CE07B6818683B68B3
:10362C0059683B68DB681A4600F0E8F87B681B6851
:10363C006021184600F011F91CE07B6818683B68A3
:10364C0059683B68DB681A4600F0AAF87B681B686F
:10365C004021184600F001F90CE07B681A683B68C1
:10366C001B681946104600F0F8F803E00123FB73C1
:10367C0000E000BF7B68012283F83D207B680022BC
:10368C0083F83C20FB7B18461037BD4680BD80B4C8
:10369C0083B000AF786000BF0C37BD4680BC70476C
:1036AC0080B483B000AF786000BF0C37BD4680BCDF
:1036BC00704780B483B000AF786000BF0C37BD4654
:1036CC0080BC704780B483B000AF786000BF0C370B
:1036DC00BD4680BC7047000080B485B000AF7860F8
:1036EC0039607B681B68FB607B682B4A934207D070
:1036FC007B68B3F1804F03D07B68284A934208D192
:10370C00FB6823F07003FB603B685B68FA6813434B
:10371C00FB607B68204A934207D07B68B3F1804FF3
:10372C0003D07B681D4A934208D1FB6823F4407395
:10373C00FB603B68DB68FA681343FB60FB6823F0B3
:10374C0080023B685B691343FB607B68FA681A6014
:10375C003B689A687B68DA623B681A687B689A6295
:10376C007B680D4A934203D13B681A697B681A63E4
:10377C007B6801225A617B681B6903F00103002BF3
:10378C0005D07B681B6923F001027B681A6100BFBE
:10379C001437BD4680BC7047002C0140000400402B
:1037AC0080B487B000AFF860B9607A60FB681B6AC0
:1037BC007B61FB681B6A23F00102FB681A62FB68E1
:1037CC009B693B613B6923F0F0033B617B681B0108
:1037DC003A6913433B617B6923F00A037B617A6985
:1037EC00BB6813437B61FB683A699A61FB687A6931
:1037FC001A6200BF1C37BD4680BC704780B487B0CE
:10380C0000AFF860B9607A60FB681B6A7B61FB688B
:10381C001B6A23F01002FB681A62FB689B693B6110
:10382C003B6923F470433B617B681B033A69134388
:10383C003B617B6923F0A0037B61BB681B017A6948
:10384C0013437B61FB683A699A61FB687A691A6277
:10385C0000BF1C37BD4680BC704780B485B000AF3C
:10386C00786039607B689B68FB60FB6823F07003B1
:10387C00FB603A68FB68134343F00703FB607B680B
:10388C00FA689A6000BF1437BD4680BC704780B49C
:10389C0087B000AFF860B9607A603B60FB689B68EA
:1038AC007B617B6923F47F437B613B681A027B68F5
:1038BC001A43BB6813437A6913437B61FB687A69CB
:1038CC009A6000BF1C37BD4680BC704780B485B081
:1038DC0000AF786039607B6893F83C30012B01D1E4
:1038EC00022341E07B68012283F83C207B680222A2
:1038FC0083F83D207B681B685B68FB607B681B68FA
:10390C009B68BB60FB6823F07003FB603B681B6823
:10391C00FA681343FB607B681B68FA685A607B6823
:10392C001B68144A934209D07B681B68B3F1804F23
:10393C0004D07B681B68104A93420CD1BB6823F0FF
:10394C008003BB603B685B68BA681343BB607B68F1
:10395C001B68BA689A607B68012283F83D207B68FB
:10396C00002283F83C20002318461437BD4680BC47
:10397C00704700BF002C01400004004080B483B0AD
:10398C0000AF786000BF0C37BD4680BC704780B478
:10399C0083B000AF786000BF0C37BD4680BC704769
:1039AC0070B500260C4D0D4C641BA410A64209D119
:1039BC0000F022F800260A4D0A4C641BA410A64203
:1039CC0005D170BD55F8043B98470136EEE755F824
:1039DC00043B98470136F2E7403A0008403A0008A9
:1039EC00403A0008443A000803460244934200D18E
:1039FC00704703F8011BF9E7F8B500BFF8BC08BC29
:103A0C009E467047F8B500BFF8BC08BC9E46704790
:103A1C000000000000000000010203040607080972
:103A2C0002030405060708090A0B0C0D0E0F1010F3
:043A3C000102000083
:043A40003101000848
:043A44000D01000868
:103A4800010000000100000001000000010000006A
:103A5800010000000100000001000000010000005A
:103A6800010000000100000001000000010000004A
:103A7800010000000100000001000000010000003A
:103A880001000000010000002C01000032000000CD
:103A9800320000002C0100000500000002000000B8
:103AA8000300000005000000020000000300000001
:103AB80001000000030000000A00000000127A0064
:083AC8001000000001000000E5
:040000050800238D3F
:00000001FF
