:020000040800F2
:1000000000280020D5210008652100086B21000888
:1000100071210008772100087D2100080000000000
:100020000000000000000000000000008321000824
:100030008F210008000000009B210008A721000874
:100040001D2200081D2200081D2200081D22000894
:100050001D2200081D2200081D2200081D22000884
:100060001D2200081D2200081D2200081D22000874
:100070001D2200081D2200081D2200081D22000864
:100080001D2200081D2200081D2200081D22000854
:100090001D2200081D2200081D2200081D22000844
:1000A0001D2200081D2200081D2200081D22000834
:1000B000B52100081D220008000000001D220008D4
:1000C0001D22000800000000000000001D220008A2
:1000D000000000001D2200081D2200080000000092
:1000E0001D2200081D2200081D220008000000003B
:1000F0000000000000000000000000000000000000
:0C01000000000000000000005FF808F1A3
:10010C0010B5054C237833B9044B13B10448AFF345
:10011C0000800123237010BD6C0000200000000043
:10012C004C38000808B5034B1BB103490348AFF327
:10013C00008008BD00000000700000204C38000852
:10014C0080B582B000AF78607B68092B00F2B28179
:10015C0001A252F823F000BF8D010008DF01000856
:10016C003102000883020008D502000827030008AA
:10017C0079030008CB0300081D0400086F04000875
:10018C0000224021CD4802F046FB00228021CB48C2
:10019C0002F041FB00224FF48071C84802F03BFB97
:1001AC0000224FF40071C54802F035FB00224FF4D9
:1001BC008061C24802F02FFB00224FF40061BF485F
:1001CC0002F029FB01224FF48051BC4802F023FBC2
:1001DC0070E101224021B94802F01DFB0022802170
:1001EC00B64802F018FB00224FF48071B34802F0BD
:1001FC0012FB01224FF40071B04802F00CFB0122FB
:10020C004FF48061AD4802F006FB01224FF400610F
:10021C00AA4802F000FB01224FF48051A74802F0DB
:10022C00FAFA47E100224021A44802F0F4FA002235
:10023C008021A24802F0EFFA01224FF480719F480E
:10024C0002F0E9FA00224FF400719C4802F0E3FA44
:10025C0000224FF48061994802F0DDFA01224FF43C
:10026C000061964802F0D7FA00224FF4805193486F
:10027C0002F0D1FA1EE100224021904802F0CBFAA4
:10028C00002280218D4802F0C6FA00224FF48071C2
:10029C008A4802F0C0FA00224FF40071874802F03D
:1002AC00BAFA01224FF48061844802F0B4FA0122B8
:1002BC004FF40061814802F0AEFA00224FF48051F5
:1002CC007E4802F0A8FAF5E0012240217B4802F0BA
:1002DC00A2FA00228021794802F09DFA00224FF404
:1002EC008071764802F097FA01224FF4007173483E
:1002FC0002F091FA01224FF48061704802F08BFAFF
:10030C0000224FF400616D4802F085FA00224FF490
:10031C0080516A4802F07FFACCE000224021674805
:10032C0002F079FA01228021644802F074FA00226A
:10033C004FF48071614802F06EFA00224FF40071A4
:10034C005E4802F068FA01224FF480615B4802F0CB
:10035C0062FA00224FF40061584802F05CFA002265
:10036C004FF48051554802F056FAA3E00022402188
:10037C00524802F050FA01228021504802F04BFA08
:10038C0000224FF480714D4802F045FA00224FF4E0
:10039C0000714A4802F03FFA00224FF4806147484E
:1003AC0002F039FA00224FF40061444802F033FAAB
:1003BC0000224FF48051414802F02DFA7AE00022DD
:1003CC0040213E4802F027FA002280213B4802F0EF
:1003DC0022FA00224FF48071384802F01CFA0122F4
:1003EC004FF40071354802F016FA01224FF4806187
:1003FC00324802F010FA01224FF400612F4802F04B
:10040C000AFA01224FF480512C4802F004FA51E010
:10041C0000224021294802F0FEF9002280212748C1
:10042C0002F0F9F900224FF48071244802F0F3F93C
:10043C0000224FF40071214802F0EDF900224FF434
:10044C0080611E4802F0E7F900224FF400611B485E
:10045C0002F0E1F900224FF48051184802F0DBF968
:10046C0028E000224021154802F0D5F90022802115
:10047C00124802F0D0F900224FF480710F4802F0BC
:10048C00CAF900224FF400710C4802F0C4F90122A1
:10049C004FF48061094802F0BEF900224FF400616C
:1004AC00064802F0B8F900224FF48051034802F0DC
:1004BC00B2F900BF00BF0837BD4680BD000C01403B
:1004CC0080B582B000AF78607B68092B00F2B281F6
:1004DC0001A252F823F000BF0D0500085F050008CB
:1004EC00B10500080306000855060008A706000819
:1004FC00F90600084B0700089D070008EF070008E5
:10050C0000224021CD4802F086F900228021CB4800
:10051C0002F081F900224FF48071C84802F07BF997
:10052C0000224FF40071C54802F075F900224FF417
:10053C008061C24802F06FF900224FF40061BF489D
:10054C0002F069F901224FF48051BC4802F063F9C2
:10055C0070E101224021B94802F05DF900228021AE
:10056C00B64802F058F900224FF48071B34802F0FB
:10057C0052F901224FF40071B04802F04CF90122FB
:10058C004FF48061AD4802F046F901224FF400614E
:10059C00AA4802F040F901224FF48051A74802F01A
:1005AC003AF947E100224021A44802F034F9002234
:1005BC008021A24802F02FF901224FF480719F484C
:1005CC0002F029F900224FF400719C4802F023F943
:1005DC0000224FF48061994802F01DF901224FF47A
:1005EC000061964802F017F900224FF480519348AD
:1005FC0002F011F91EE100224021904802F00BF9A3
:10060C00002280218D4802F006F900224FF48071FF
:10061C008A4802F000F900224FF40071874802F07A
:10062C00FAF801224FF48061844802F0F4F80122B8
:10063C004FF40061814802F0EEF800224FF4805133
:10064C007E4802F0E8F8F5E0012240217B4802F0F8
:10065C00E2F800228021794802F0DDF800224FF404
:10066C008071764802F0D7F801224FF4007173487C
:10067C0002F0D1F801224FF48061704802F0CBF8FF
:10068C0000224FF400616D4802F0C5F800224FF4CF
:10069C0080516A4802F0BFF8CCE000224021674844
:1006AC0002F0B9F801228021644802F0B4F800226B
:1006BC004FF48071614802F0AEF800224FF40071E3
:1006CC005E4802F0A8F801224FF480615B4802F00A
:1006DC00A2F800224FF40061584802F09CF8002266
:1006EC004FF48051554802F096F8A3E000224021C7
:1006FC00524802F090F801228021504802F08BF809
:10070C0000224FF480714D4802F085F800224FF41E
:10071C0000714A4802F07FF800224FF4806147488C
:10072C0002F079F800224FF40061444802F073F8AB
:10073C0000224FF48051414802F06DF87AE000221B
:10074C0040213E4802F067F8002280213B4802F02D
:10075C0062F800224FF48071384802F05CF80122F4
:10076C004FF40071354802F056F801224FF48061C5
:10077C00324802F050F801224FF400612F4802F089
:10078C004AF801224FF480512C4802F044F851E011
:10079C0000224021294802F03EF8002280212748FF
:1007AC0002F039F800224FF48071244802F033F83B
:1007BC0000224FF40071214802F02DF800224FF472
:1007CC0080611E4802F027F800224FF400611B489C
:1007DC0002F021F800224FF48051184802F01BF867
:1007EC0028E000224021154802F015F80022802153
:1007FC00124802F010F800224FF480710F4802F0FA
:10080C000AF800224FF400710C4802F004F801229F
:10081C004FF48061094801F0FEFF00224FF40061A3
:10082C00064801F0F8FF00224FF48051034801F014
:10083C00F2FF00BF00BF0837BD4680BD0008014075
:10084C0080B582B000AF78607B68002B03D07B68EA
:10085C00012B12D023E000221021134801F0DBFF02
:10086C0001222021104801F0D6FF104A7B6852F873
:10087C0023301846FFF764FC11E0012210210A48CE
:10088C0001F0C9FF00222021074801F0C4FF074AEC
:10089C007B6852F823301846FFF752FC00BF00BFAC
:1008AC000837BD4680BD00BF000C01408800002009
:1008BC0080B582B000AF78607B68002B03D07B687A
:1008CC00012B12D023E000220121134801F0A3FFD9
:1008DC0001220221104801F09EFF104A7B6852F859
:1008EC0023301846FFF7ECFD11E0012201210A48E4
:1008FC0001F091FF00220221074801F08CFF074A0A
:10090C007B6852F823301846FFF7DAFD00BF00BFB2
:10091C000837BD4680BD00BF000C01409000002090
:10092C0080B400AF064B1B68012B04D1044B002292
:10093C001A60012300E000231846BD4680BC7047B6
:10094C009800002080B400AF064B1B68012B04D12B
:10095C00044B00221A60012300E000231846BD4618
:10096C0080BC70479C00002080B400AF064B1B6815
:10097C00012B04D1044B00221A60012300E0002358
:10098C001846BD4680BC7047A000002080B582B0E0
:10099C0000AF00237B60394A7B6852F8232038492A
:1009AC007B6841F82320374A7B6852F8232033496F
:1009BC007B6841F823204FF40051334801F014FFB9
:1009CC00034619462F4A7B6842F823102C4A7B6851
:1009DC0052F8232029497B6851F823309A4249D197
:1009EC00264A7B6852F8232026497B6851F823302D
:1009FC009A423FD1254A7B6852F8232021497B68D3
:100A0C0051F823309A4217D01E4A7B6852F82320A3
:100A1C001E497B6841F823201A4A7B6852F8233020
:100A2C00002B27D11A4B01221A601A4A7B684FF40B
:100A3C00967142F823101DE0124A7B6852F823305D
:100A4C00002B17D1134A7B6852F823305A1E1149D8
:100A5C007B6841F823200F4A7B6852F82330002B27
:100A6C0008D10B4B01221A600A4A7B684FF496712D
:100A7C0042F8231000BF0837BD4680BD0C00002093
:100A8C000000002018000020000801402400002075
:100A9C00980000203000002080B582B000AF012308
:100AAC007B60384A7B6852F8232037497B6841F8D1
:100ABC002320364A7B6852F8232032497B6841F860
:100ACC0023204FF48041324801F08EFE0346194634
:100ADC002E4A7B6842F823102B4A7B6852F823205D
:100AEC0028497B6851F823309A4247D1254A7B68C4
:100AFC0052F8232025497B6851F823309A423DD186
:100B0C00244A7B6852F8232020497B6851F8233013
:100B1C009A4216D01D4A7B6852F823201D497B68E7
:100B2C0041F82320194A7B6852F82330002B25D139
:100B3C00194B01221A60194A7B68322142F82310A2
:100B4C001CE0124A7B6852F82330002B16D1134A52
:100B5C007B6852F823305A1E10497B6841F82320D9
:100B6C000E4A7B6852F82330002B07D10A4B012226
:100B7C001A600A4A7B68322142F8231000BF0837FA
:100B8C00BD4680BD0C000020000000201800002095
:100B9C0000080140240000209C00002030000020B0
:100BAC0080B582B000AF02237B60394A7B6852F873
:100BBC00232038497B6841F82320374A7B6852F858
:100BCC00232033497B6841F823204FF400413348FC
:100BDC0001F00AFE034619462F4A7B6842F823109F
:100BEC002C4A7B6852F8232029497B6851F8233022
:100BFC009A4249D1264A7B6852F8232026497B68C1
:100C0C0051F823309A423FD1254A7B6852F8232071
:100C1C0021497B6851F823309A4217D01E4A7B68D1
:100C2C0052F823201E497B6841F823201A4A7B681E
:100C3C0052F82330002B27D11A4B01221A601A4A82
:100C4C007B684FF4967142F823101DE0124A7B68C2
:100C5C0052F82330002B17D1134A7B6852F82330FB
:100C6C005A1E11497B6841F823200F4A7B6852F8C1
:100C7C002330002B08D10B4B01221A600A4A7B68E7
:100C8C004FF4967142F8231000BF0837BD4680BD63
:100C9C000C0000200000002018000020000801407B
:100CAC0024000020A00000203000002080B500AF00
:100CBC0000F004F800F030F900BF80BD80B582B0C0
:100CCC0000AF8A4B1B68032B00F2F38001A252F891
:100CDC0023F000BFF10C0008290D0008B30D00082B
:100CEC002D0E000800237B600AE0814A7B6852F8D5
:100CFC00232080497B6841F823207B6801337B608B
:100D0C007B68022BF1DD4FF47A7000F0C1FF7A4B57
:100D1C0001221A60754B01221A60CAE001220421DB
:100D2C00764801F078FD00220821744801F073FD2B
:100D3C0000221021714801F06EFD6E4B1B68002BD8
:100D4C0009DA4FF47A7000F0D7FF6B4B01221A606E
:100D5C00664B03221A60674B1B68694A82FB0312BD
:100D6C009210DB17D31A674A1360624B1968644BF5
:100D7C0083FB01239A10CB17D21A13469B00134402
:100D8C005B00CA1A5F4B5A605F4B1B68012B40F02B
:100D9C008B80584B1B68013B564A13604FF47A709A
:100DAC0000F076FF80E000220421544801F033FD6E
:100DBC0001220821514801F02EFD002210214F483C
:100DCC0001F029FD4B4B5B68002B02DA474B0022EC
:100DDC001A60484B5B684A4A82FB03129210DB177D
:100DEC00D31A484A1360434B5968454B83FB012384
:100DFC009A10CB17D21A13469B0013445B00CA1AE5
:100E0C00404B5A60414B1B68012B4FD1394B5B68EF
:100E1C00013B384A53604FF47A7000F053FF45E0C1
:100E2C0000220421354801F0F6FC00220821334849
:100E3C0001F0F1FC01221021304801F0ECFC2D4BAB
:100E4C009B68002B09DA4FF47A7000F03BFF2A4BB9
:100E5C0001221A60254B02221A60264B9B68284AF5
:100E6C0082FB03129210DB17D31A264A1360214B14
:100E7C009968234B83FB01239A10CB17D21A134684
:100E8C009B0013445B00CA1A1E4B5A60204B1B6814
:100E9C00012B0DD1174B9B68013B164A93604FF405
:100EAC007A7000F029FF03E000BF02E000BF00E011
:100EBC0000BF184B1B68012B14D10F4B1B68012B67
:100ECC0002DD0D4B00221A600B4B1B681846FFF716
:100EDC00EFFC094B1B680133074A13604FF4FA709F
:100EEC0000F0A2FE00BF0837BD4680BDBC0000204C
:100EFC0048000020B00000205400002000080140F1
:100F0C006766666690000020000100200801002042
:100F1C0010010020F000002080B582B000AF8F4B94
:100F2C001B68032B00F2FC8001A252F823F000BFD7
:100F3C004D0F0008850F00080710000895100008D9
:100F4C0000237B600AE0864A7B6852F8232085499F
:100F5C007B6841F823207B6801337B607B68022B24
:100F6C00F1DD4FF47A7000F015FF7F4B01221A600F
:100F7C007A4B03221A60D3E001224FF400517B48D4
:100F8C0001F049FC00224FF48041784801F043FC09
:100F9C0000224FF40041754801F03DFC714B1B6879
:100FAC00002B02DA6D4B00221A606E4B1B68704AE4
:100FBC0082FB03129210DB17D31A6E4A1360694B33
:100FCC0019686B4B83FB01239A10CB17D21A13466B
:100FDC009B0013445B00CA1A664B5A60664B1B6835
:100FEC00012B40F098805F4B1B68013B5D4A1360FE
:100FFC004FF47A7000F09AFE8DE000224FF400510D
:10100C005A4801F008FC01224FF48041574801F086
:10101C0002FC00224FF40041544801F0FCFB514B00
:10102C005B68002B09DA4FF47A7000F07FFE4E4BB0
:10103C0001221A60494B01221A604A4B5B684C4AE8
:10104C0082FB03129210DB17D31A4A4A1360454BEA
:10105C005968474B83FB01239A10CB17D21A1346BE
:10106C009B0013445B00CA1A424B5A60434B1B68EB
:10107C00012B52D13B4B5B68013B3A4A53604FF416
:10108C007A7000F06DFE48E000224FF400513748B2
:10109C0001F0C1FB00224FF48041344801F0BBFB4E
:1010AC0001224FF40041314801F0B5FB2D4B9B68F8
:1010BC00002B09DA4FF47A7000F052FE2A4B012211
:1010CC001A60264B02221A60264B9B68284A82FB28
:1010DC0003129210DB17D31A264A1360214B99681E
:1010EC00234B83FB01239A10CB17D21A13469B0078
:1010FC0013445B00CA1A1F4B5A60214B1B68012B0F
:10110C000DD1184B9B68013B164A93604FF47A70D3
:10111C0000F040FE03E000BF02E000BF00E000BFB3
:10112C00184B1B68012B14D10F4B1B68012B02DDD4
:10113C000D4B00221A600C4B1B681846FFF780FB06
:10114C00094B1B680133084A13604FF4FA7000F026
:10115C0085FD00BF0837BD4680BD00BFC000002024
:10116C003C000020A400002058000020000C01408E
:10117C0067666666880000201801002020010020A8
:10118C0028010020F800002080B500AF8F4B1B68B1
:10119C00072B00F2308201A252F823F0C91100088B
:1011AC00E3110008FD1100081712000803160008CF
:1011BC0031120008B112000897130008FFF7B0FBBA
:1011CC000346012B40F00A82804B04221A60804BAC
:1011DC0004221A6002E2FFF7A3FB0346012B40F046
:1011EC00FF817A4B04221A60794B04221A60F7E1D2
:1011FC00FFF796FB0346012B40F0F481734B04225E
:10120C001A60734B04221A60ECE1FFF789FB03466A
:10121C00012B40F0E9816D4B04221A606C4B0422C7
:10122C001A60E1E1FFF77CFB0346012B0DD1674B04
:10123C0006221A60664B06221A6042F2107000F009
:10124C00C3FD4FF4FA7000F0F3FDFFF77BFB034690
:10125C00012B17D15F4B01221A605F4B1B68632B6C
:10126C0009DC5D4B1B68002B05DD5B4B1B680133F8
:10127C00594A136002E0584B01221A6042F2107076
:10128C0000F0A2FDFFF770FB0346012B40F0AE818E
:10129C004E4B00221A604E4B00221A604F4B00221C
:1012AC001A60A3E1FFF73CFB0346012B0DD1474B22
:1012BC0007221A60464B07221A6042F2107000F0A7
:1012CC0083FD4FF4FA7000F0CDFDFFF73BFB0346B6
:1012DC00012B17D1424B01221A603F4B5B68632BE9
:1012EC0009DC3D4B5B68002B05DD3B4B5B68013338
:1012FC00394A536002E0384B01225A6042F21070B6
:10130C0000F062FDFFF730FB0346012B40F07081CB
:10131C00304B1B68012B2ED1314B1B68012B2AD172
:10132C002D4B1A682C4B5B68D31A2B4A93602A4BB3
:10133C005A68294B9B689A421DDA274B5A68264BF0
:10134C001B689A4217DA244B1B68264A1360224BFF
:10135C001B68254A1360204B5B68224A53601E4B66
:10136C005B68214A53601C4B9B681E4A93601A4B66
:10137C009B681D4A9360154B00221A60144B002287
:10138C001A60164B00221A6032E1FFF7C9FA0346C5
:10139C00012B05D10D4B00221A600D4B00221A6057
:1013AC00FFF7D0FA0346012B29D1104B01221A600A
:1013BC00094B9B68632B1BDC074B9B68002B17DDD1
:1013CC00054B9B680133044A936014E0BC00002079
:1013DC00C0000020DC000020C400002030010020F0
:1013EC00E0000020480000203C000020E400002029
:1013FC00824B01229A6042F2107000F0E5FCFFF77C
:10140C00B3FA0346012B40F0F5807D4B1B68012B92
:10141C0031D17C4B1B68012B2DD1784B1A68774B43
:10142C005B68D31A754A9360744B5A68734B9B680C
:10143C009A4280F2C480714B5A68704B1B689A4276
:10144C0080F2BD806D4B1B686F4A13606B4B1B6841
:10145C006E4A1360694B5B686B4A5360674B5B6801
:10146C006A4A5360654B9B68674A9360634B9B6801
:10147C00664A9360A3E0624B1B68012B31D1644B2D
:10148C001B68012B2DD15D4B1A685C4B9B68D31AE2
:10149C005A4A5360594B5A68584B9B689A4280F28F
:1014AC009080564B5A68554B1B689A4280F2898043
:1014BC00524B1B68544A1360504B1B68534A1360C1
:1014CC004E4B5B68504A53604C4B5B684F4A5360C1
:1014DC004A4B9B684C4A9360484B9B684B4A9360C1
:1014EC006FE0484B1B68012B2FD1494B1B68012B1C
:1014FC002BD1424B5A68414B9B6813443F4A1360B3
:10150C003E4B5A683D4B9B689A425CDA3B4B5A689F
:10151C003A4B1B689A4256DA384B1B683A4A1360AE
:10152C00364B1B68394A1360344B5B68364A536040
:10153C00324B5B68354A5360304B9B68324A936040
:10154C002E4B9B68314A93603DE02D4B1B68012B61
:10155C003AD12C4B1B68012B36D12D4B1B68012B20
:10156C0032D1264B5A68254B9B689A422CDA234B76
:10157C005A68224B1B689A4226DA204B1A681F4B7A
:10158C0059681E4B9B680B449A421DD11B4B1B6820
:10159C001D4A1360194B1B681C4A1360174B5B6880
:1015AC00194A5360154B5B68184A5360134B9B6880
:1015BC00154A9360114B9B68144A936004E000BF7A
:1015CC0002E000BF00E000BF124B00221A60124B79
:1015DC0000221A60114B00221A600BE000BF0AE0D7
:1015EC0000BF08E000BF06E000BF04E000BF02E05F
:1015FC0000BF00E000BF00BF80BD00BFC4000020E2
:10160C00DC000020E0000020480000203C0000200E
:10161C00E4000020BC000020C000002030010020AD
:10162C0080B582B000AF854B1B68043B032B00F2E6
:10163C00938101A252F823F055160008B916000840
:10164C00811700089518000800237B600AE07C4A8B
:10165C007B6852F823207B497B6841F823207B6808
:10166C0001337B607B68022BF1DD42F2107000F0DD
:10167C00ABFB4FF4FA7000F0C1FB734B00221A6005
:10168C00724B00221A60724B00221A60714B0022BE
:10169C001A60714B00221A60704B00221A60704B5A
:1016AC0001221A60654B05221A6055E1694B1B68D3
:1016BC00002B0DD1674B01221A60012204216948CD
:1016CC0001F0A9F801224FF40051674801F0A3F88A
:1016DC00664B1B68012B0CD10421624801F0B3F856
:1016EC004FF40051604801F0AEF84FF4FA7000F07E
:1016FC0085FB002208215B4801F08DF800224FF495
:10170C008041594801F087F800221021554801F01A
:10171C0082F800224FF40041534801F07CF8494B09
:10172C001B68534A82FB03129210DB17D31A514ADF
:10173C001360444B19684E4B83FB01239A10CB1753
:10174C00D21A13469B0013445B00CA1A494B5A60C9
:10175C00494B00221A60484B02225A60474B1B68C7
:10176C00012B40F0F480354B00221A60444B0022D0
:10177C001A60ECE0384B1B68002B0DD1364B012264
:10178C001A6001220821374801F045F801224FF474
:10179C008041354801F03FF83A4B1B68012B0CD1C6
:1017AC000821304801F04FF84FF480412E4801F0E9
:1017BC004AF84FF4FA7000F03BFB00220421294850
:1017CC0001F029F800224FF40051274801F023F8CA
:1017DC0000221021234801F01EF800224FF4004192
:1017EC00214801F018F8174B5B68214A82FB031261
:1017FC009210DB17D31A1F4A1360124B59681C4BFB
:10180C0083FB01239A10CB17D21A13469B00134467
:10181C005B00CA1A174B5A60174B00221A60164B02
:10182C0003225A60154B1B68012B40F09280034B2E
:10183C0000221A60124B00221A608AE0BC000020C1
:10184C0048000020C4000020DC000020E000002044
:10185C00E4000020D0000020D4000020D80000209C
:10186C005400002000080140000C01403801002009
:10187C00676666669000002088000020300100201A
:10188C00C000002040010020354B1B68002B0DD1FF
:10189C00334B01221A6001221021324800F0BBFFA9
:1018AC0001224FF40041304800F0B5FF2F4B1B686C
:1018BC00012B0CD110212B4800F0C5FF4FF4004137
:1018CC00294800F0C0FF4FF4FA7000F0CBFA002268
:1018DC000421244800F09FFF00224FF400512248BD
:1018EC0000F099FF002208211E4800F094FF00220E
:1018FC004FF480411C4800F08EFF1D4B9B681D4A25
:10190C0082FB03129210DB17D31A1B4A1360184B7D
:10191C009968184B83FB01239A10CB17D21A1346E4
:10192C009B0013445B00CA1A134B5A60134B0022E2
:10193C001A60124B04225A60114B1B68012B0AD1FE
:10194C00104B00221A60104B00221A6003E000BFFB
:10195C0002E000BF00E000BF00BF0837BD4680BDFD
:10196C00D800002000080140000C01404801002074
:10197C00C400002067666666900000208800002086
:10198C0030010020BC000020C000002080B500AF5A
:10199C0000F040FC00F02CF800F0B2F800F064F815
:1019AC00104801F095FB4FF47A7000F023F94FF4D6
:1019BC00FA7000F039F94FF4FA7000F04FF90A4B55
:1019CC001B68012B07D12021084800F03CFF4FF485
:1019DC007A7000F00FF9FFF769F9FFF721FEFFF7B6
:1019EC00D3FBECE750010020E80000200008014088
:1019FC0080B590B000AF07F11803282200211846DB
:101A0C0001F016FF3B1D00221A605A609A60DA60E2
:101A1C001A610223BB610123BB621023FB6200230A
:101A2C007B6307F11803184600F026FF0346002BD2
:101A3C0001D000F0D9F80F237B600023BB6000239A
:101A4C00FB6000233B6100237B613B1D002118469A
:101A5C0001F092F90346002B01D000F0C5F800BF4D
:101A6C004037BD4680BD000080B586B000AF07F1A1
:101A7C00080300221A605A609A60DA603B46002222
:101A8C001A605A601D4B4FF080421A601B4B41F696
:101A9C003F725A60194B00229A60184B0922DA6087
:101AAC00164B00221A61154B00229A61134801F063
:101ABC00BFFA0346002B01D000F096F84FF4805388
:101ACC00BB6007F1080319460C4801F03DFC0346C6
:101ADC00002B01D000F088F800233B6000237B60D2
:101AEC003B461946054801F015FE0346002B01D074
:101AFC0000F07AF800BF1837BD4680BD50010020B9
:101B0C0080B586B000AF07F1080300221A605A6056
:101B1C009A60DA60294B9B69284A43F0040393616D
:101B2C00264B9B6903F004037B607B68234B9B690A
:101B3C00224A43F008039361204B9B6903F008038E
:101B4C003B603B68002241F6FC711D4800F063FECF
:101B5C0000224FF6F3711B4800F05DFE41F6FC735A
:101B6C00BB600123FB6000233B6102237B6107F117
:101B7C0008031946124800F0BDFC4FF6F373BB6026
:101B8C000123FB6000233B6102237B6107F1080307
:101B9C0019460C4800F0AEFC4FF46043BB600023C8
:101BAC00FB6001233B6107F108031946044800F070
:101BBC00A1FC00BF1837BD4680BD00BF001002401D
:101BCC0000080140000C014080B582B000AF786085
:101BDC0000F062F9FEF7DAFEFEF75EFFFEF7E0FFBB
:101BEC0000BF0837BD4680BD80B400AF72B600BFE1
:101BFC00FEE7000080B483B000AF7860074B1B6831
:101C0C007A6892FBF3F3064A1360064B00221A60C3
:101C1C0000BF0C37BD4680BC704700BF5C00002085
:101C2C00EC000020E800002080B483B000AF7860A6
:101C3C00074B1B687A6892FBF3F3064A1360064B5A
:101C4C0000221A6000BF0C37BD4680BC704700BF35
:101C5C005C000020F4000020F000002080B483B071
:101C6C0000AF7860074B1B687A6892FBF3F3064A67
:101C7C001360064B00221A6000BF0C37BD4680BCB7
:101C8C00704700BF5C000020FC000020F800002022
:101C9C0080B483B000AF7860074B1B687A6892FB06
:101CAC00F3F3064A1360064B00221A6000BF0C3790
:101CBC00BD4680BC704700BF5C00002004010020C2
:101CCC000001002080B483B000AF7860074B1B6824
:101CDC007A6892FBF3F3064A1360064B00221A60F3
:101CEC0000BF0C37BD4680BC704700BF5C000020B5
:101CFC000C0100200801002080B483B000AF786094
:101D0C00074B1B687A6892FBF3F3064A1360064B89
:101D1C0000221A6000BF0C37BD4680BC704700BF64
:101D2C005C000020140100201001002080B483B05E
:101D3C0000AF7860074B1B687A6892FBF3F3064A96
:101D4C001360064B00221A6000BF0C37BD4680BCE6
:101D5C00704700BF5C0000201C010020180100200F
:101D6C0080B483B000AF7860074B1B687A6892FB35
:101D7C00F3F3064A1360064B00221A6000BF0C37BF
:101D8C00BD4680BC704700BF5C00002024010020D1
:101D9C002001002080B483B000AF7860074B1B6833
:101DAC007A6892FBF3F3064A1360064B00221A6022
:101DBC0000BF0C37BD4680BC704700BF5C000020E4
:101DCC002C0100202801002080B483B000AF786083
:101DDC00074B1B687A6892FBF3F3064A1360064BB9
:101DEC0000221A6000BF0C37BD4680BC704700BF94
:101DFC005C000020340100203001002080B483B04E
:101E0C0000AF7860074B1B687A6892FBF3F3064AC5
:101E1C001360064B00221A6000BF0C37BD4680BC15
:101E2C00704700BF5C0000203C01002038010020FE
:101E3C0080B483B000AF7860074B1B687A6892FB64
:101E4C00F3F3064A1360064B00221A6000BF0C37EE
:101E5C00BD4680BC704700BF5C00002044010020E0
:101E6C004001002080B483B000AF7860074B1B6842
:101E7C007A6892FBF3F3064A1360064B00221A6051
:101E8C0000BF0C37BD4680BC704700BF5C00002013
:101E9C004C0100204801002080B400AF694B1B6846
:101EAC00002B0BDD674B1B68013B664A1360654BCF
:101EBC001B68002B02DC644B01221A60634B1B680D
:101ECC00002B0BDD614B1B68013B604A13605F4BC1
:101EDC001B68002B02DC5E4B01221A605D4B1B68F9
:101EEC00002B0BDD5B4B1B68013B5A4A1360594BB3
:101EFC001B68002B02DC584B01221A60574B1B68E5
:101F0C00002B0BDD554B1B68013B544A1360534BA4
:101F1C001B68002B02DC524B01221A60514B1B68D0
:101F2C00002B0BDD4F4B1B68013B4E4A13604D4B96
:101F3C001B68002B02DC4C4B01221A604B4B1B68BC
:101F4C00002B0BDD494B1B68013B484A1360474B88
:101F5C001B68002B02DC464B01221A60454B1B68A8
:101F6C00002B0BDD434B1B68013B424A1360414B7A
:101F7C001B68002B02DC404B01221A603F4B1B6894
:101F8C00002B0BDD3D4B1B68013B3C4A13603B4B6C
:101F9C001B68002B02DC3A4B01221A60394B1B6880
:101FAC00002B0BDD374B1B68013B364A1360354B5E
:101FBC001B68002B02DC344B01221A60334B1B686C
:101FCC00002B0BDD314B1B68013B304A13602F4B50
:101FDC001B68002B02DC2E4B01221A602D4B1B6858
:101FEC00002B0BDD2B4B1B68013B2A4A1360294B42
:101FFC001B68002B02DC284B01221A60274B1B6844
:10200C00002B0BDD254B1B68013B244A1360234B33
:10201C001B68002B02DC224B01221A60214B1B682F
:10202C00002B0BDD1F4B1B68013B1E4A13601D4B25
:10203C001B68002B02DC1C4B01221A6000BFBD4642
:10204C0080BC7047EC000020E8000020F400002069
:10205C00F0000020FC000020F8000020040100200B
:10206C00000100200C0100200801002014010020B8
:10207C00100100201C010020180100202401002068
:10208C00200100202C010020280100203401002018
:10209C00300100203C0100203801002044010020C8
:1020AC00400100204C0100204801002080B485B084
:1020BC0000AF154B9B69144A43F001039361124B1B
:1020CC009B6903F00103BB60BB680F4BDB690E4AD5
:1020DC0043F08053D3610C4BDB6903F080537B607E
:1020EC007B680A4B5B68FB60FB6823F0E063FB607A
:1020FC00FB6843F08063FB60044AFB68536000BFDD
:10210C001437BD4680BC70470010024000000140EF
:10211C0080B584B000AF78607B681B68B3F1804FEA
:10212C0013D10C4BDB690B4A43F00103D361094B10
:10213C00DB6903F00103FB60FB68002200211C201B
:10214C0000F0A1F91C2000F0BAF900BF1037BD4611
:10215C0080BD00BF0010024080B400AFFEE780B429
:10216C0000AFFEE780B400AFFEE780B400AFFEE73F
:10217C0080B400AFFEE780B400AF00BFBD4680BCAA
:10218C00704780B400AF00BFBD4680BC704780B4C0
:10219C0000AF00BFBD4680BC704780B500AF00F0FB
:1021AC007FF800BF80BD000080B500AF024800F092
:1021BC00DBFF00BF80BD00BF5001002080B400AF2A
:1021CC0000BFBD4680BC7047FFF7F8FF0B480C49B9
:1021DC000C4A002302E0D458C4500433C4188C4277
:1021EC00F9D3094A094C002301E013600432A242DE
:1021FC00FBD301F0F9FAFFF7C9FB70470000002090
:10220C006C000020903800086C0000209C0100201D
:10221C00FEE7000080B500AF084B1B68074A43F08F
:10222C0010031360032000F023F90F2000F008F8CE
:10223C00FFF73CFF0023184680BD00BF0020024082
:10224C0080B582B000AF7860124B1A68124B1B78C5
:10225C0019464FF47A73B3FBF1F3B2FBF3F3184660
:10226C0000F03BF90346002B01D001230EE07B6804
:10227C000F2B0AD8002279684FF0FF3000F003F9D9
:10228C00064A7B681360002300E0012318460837D8
:10229C00BD4680BD60000020680000206400002066
:1022AC0080B400AF054B1B781A46054B1B681344D2
:1022BC00034A136000BFBD4680BC70476800002015
:1022CC009801002080B400AF024B1B681846BD4635
:1022DC0080BC70479801002080B485B000AF786056
:1022EC007B6803F00703FB600C4BDB68BB60BA68D0
:1022FC004FF6FF031340BB60FB681A02BB68134325
:10230C0043F0BF6343F40033BB60044ABB68D36043
:10231C0000BF1437BD4680BC704700BF00ED00E025
:10232C0080B400AF044BDB681B0A03F007031846AC
:10233C00BD4680BC704700BF00ED00E080B483B0A8
:10234C0000AF0346FB7197F90730002B0BDBFB79D1
:10235C0003F01F02064997F907305B09012000FAC8
:10236C0002F241F8232000BF0C37BD4680BC7047F9
:10237C0000E100E080B483B000AF03463960FB712C
:10238C0097F90730002B0ADB3B68DAB20C4997F956
:10239C0007301201D2B20B4483F800230AE03B68E9
:1023AC00DAB20849FB7903F00F03043B1201D2B2F5
:1023BC000B441A7600BF0C37BD4680BC704700BF7B
:1023CC0000E100E000ED00E080B489B000AFF860FF
:1023DC00B9607A60FB6803F00703FB61FB69C3F12A
:1023EC000703042B28BF0423BB61FB690433062BB2
:1023FC0002D9FB69033B00E000237B614FF0FF3205
:10240C00BB6902FA03F3DA43BB681A407B699A4052
:10241C004FF0FF317B6901FA03F3D9437B680B4022
:10242C00134318462437BD4680BC704780B582B034
:10243C0000AF78607B68013BB3F1807F01D301234F
:10244C000FE00A4A7B68013B53600F214FF0FF30CD
:10245C00FFF790FF054B00229A60044B07221A608D
:10246C00002318460837BD4680BD00BF10E000E0D1
:10247C0080B582B000AF78607868FFF72DFF00BFA1
:10248C000837BD4680BD80B586B000AF0346B96045
:10249C007A60FB7300237B61FFF742FF78617A68F7
:1024AC00B9687869FFF790FF024697F90F3011462B
:1024BC001846FFF75FFF00BF1837BD4680BD80B5DB
:1024CC0082B000AF0346FB7197F907301846FFF74F
:1024DC0035FF00BF0837BD4680BD80B582B000AF68
:1024EC0078607868FFF7A2FF034618460837BD46A8
:1024FC0080BD000080B48BB000AF786039600023E1
:10250C007B6200233B6248E101227B6A02FA03F3FF
:10251C00FB613B681B68FA691340BB61BA69FB69D4
:10252C009A4240F037813B685B68A34A93425ED085
:10253C00A14A934275D8A14A934258D09F4A9342DC
:10254C006FD89F4A934252D09D4A934269D89D4A74
:10255C0093424CD09B4A934263D89B4A934246D0B9
:10256C00994A93425DD8122B2AD8122B59D801A222
:10257C0052F823F0FB250008D5250008E7250008B4
:10258C00292600082F2600082F2600082F260008D1
:10259C002F2600082F2600082F2600082F260008BB
:1025AC002F2600082F2600082F2600082F260008AB
:1025BC002F2600082F260008DD250008F12500082D
:1025CC00824A934213D02CE03B68DB683B6229E0E3
:1025DC003B68DB6804333B6224E03B68DB68083310
:1025EC003B621FE03B68DB680C333B621AE03B68E4
:1025FC009B68002B02D104233B6213E03B689B6871
:10260C00012B05D108233B627B68FA691A6109E04A
:10261C0008233B627B68FA695A6103E000233B6242
:10262C0000E000BFBB69FF2B01D87B6801E07B6831
:10263C0004337B61BB69FF2B02D87B6A9B0002E0F1
:10264C007B6A083B9B003B617B691A680F213B69E5
:10265C0001FA03F3DB431A40396A3B6901FA03F3CD
:10266C001A437B691A603B685B6803F08053002B4C
:10267C0000F09080564B9B69554A43F001039361DF
:10268C00534B9B6903F00103BB60BB68514A7B6AE7
:10269C009B08023352F82330FB607B6A03F0030380
:1026AC009B000F2202FA03F3DB43FA681340FB6032
:1026BC007B68494A93420DD07B68484A934207D0C5
:1026CC007B68474A934201D1022304E0032302E0D2
:1026DC00012300E000237A6A02F003029200934087
:1026EC00FA681343FB603B497B6A9B080233FA6828
:1026FC0041F823203B685B6803F48013002B06D061
:10270C00384B9A683749BB6913438B6006E0354BED
:10271C009A68BB69DB43334913408B603B685B6849
:10272C0003F40013002B06D02E4BDA682D49BB693D
:10273C001343CB6006E02B4BDA68BB69DB432949BA
:10274C001340CB603B685B6803F40033002B06D06E
:10275C00244B5A682349BB6913434B6006E0214B59
:10276C005A68BB69DB431F4913404B603B685B688D
:10277C0003F48033002B06D01A4B1A681949BB6935
:10278C0013430B6006E0174B1A68BB69DB43154912
:10279C0013400B607B6A01337B623B681A687B6A6F
:1027AC0022FA03F3002B7FF4AFAE00BF00BF2C372F
:1027BC00BD4680BC704700BF0000321000003110D5
:1027CC000000221000002110000012100000111057
:1027DC00001002400000014000080140000C0140C4
:1027EC00001001400004014080B485B000AF786057
:1027FC000B467B807B689A687B881340002B02D049
:10280C000123FB7301E00023FB73FB7B1846143799
:10281C00BD4680BC704780B483B000AF78600B4677
:10282C007B8013467B707B78002B03D07A887B6887
:10283C001A6103E07B881A047B681A6100BF0C37AD
:10284C00BD4680BC704780B485B000AF78600B4645
:10285C007B807B68DB68FB607A88FB6813401A041A
:10286C00FB68D9437B880B401A437B681A6100BF15
:10287C001437BD4680BC704780B586B000AF786019
:10288C007B68002B01D101236CE27B681B6803F091
:10289C000103002B00F08780924B5B6803F00C0364
:1028AC00042B0CD08F4B5B6803F00C03082B12D15C
:1028BC008C4B5B6803F48033B3F5803F0BD1894BB1
:1028CC001B6803F40033002B6CD07B685B68002B17
:1028DC0068D1012346E27B685B68B3F5803F06D183
:1028EC00804B1B687F4A43F4803313602EE07B6877
:1028FC005B68002B0CD17B4B1B687A4A23F480332A
:10290C001360784B1B68774A23F4802313601DE017
:10291C007B685B68B3F5A02F0CD1724B1B68714AB6
:10292C0043F4802313606F4B1B686E4A43F480336F
:10293C0013600BE06B4B1B686A4A23F48033136003
:10294C00684B1B68674A23F4802313607B685B68C1
:10295C00002B13D0FFF7B6FC386108E0FFF7B2FC90
:10296C0002463B69D31A642B01D90323FAE15D4B70
:10297C001B6803F40033002BF0D014E0FFF7A2FC2B
:10298C00386108E0FFF79EFC02463B69D31A642BC2
:10299C0001D90323E6E1534B1B6803F40033002BEE
:1029AC00F0D100E000BF7B681B6803F00203002B32
:1029BC0063D04C4B5B6803F00C03002B0BD0494BE2
:1029CC005B6803F00C03082B1CD1464B5B6803F4CB
:1029DC008033002B16D1434B1B6803F00203002BF2
:1029EC0005D07B681B69012B01D00123BAE13D4B5B
:1029FC001B6823F0F8027B685B69DB0039491343E1
:102A0C000B603AE07B681B69002B20D0364B01220F
:102A1C001A60FFF757FC386108E0FFF753FC0246D9
:102A2C003B69D31A022B01D903239BE12D4B1B6865
:102A3C0003F00203002BF0D02A4B1B6823F0F802A2
:102A4C007B685B69DB00274913430B6015E0264B61
:102A5C0000221A60FFF736FC386108E0FFF732FC01
:102A6C0002463B69D31A022B01D903237AE11D4B91
:102A7C001B6803F00203002BF0D17B681B6803F08A
:102A8C000803002B3AD07B689B69002B19D0174B9D
:102A9C0001221A60FFF716FC386108E0FFF712FC00
:102AAC0002463B69D31A022B01D903235AE10D4B81
:102ABC005B6A03F00203002BF0D0012000F09AFABD
:102ACC001CE00A4B00221A60FFF7FCFB38610FE098
:102ADC00FFF7F8FB02463B69D31A022B08D90323F4
:102AEC0040E100BF0010024000004242800442421C
:102AFC009E4B5B6A03F00203002BE9D17B681B68D9
:102B0C0003F00403002B00F0A6800023FB75974B09
:102B1C00DB6903F08053002B0DD1944BDB69934A96
:102B2C0043F08053D361914BDB6903F08053BB605E
:102B3C00BB680123FB758E4B1B6803F48073002B61
:102B4C0018D18B4B1B688A4A43F480731360FFF7D0
:102B5C00B9FB386108E0FFF7B5FB02463B69D31AB5
:102B6C00642B01D90323FDE0814B1B6803F48073B4
:102B7C00002BF0D07B68DB68012B06D17B4B1B6AEA
:102B8C007A4A43F0010313622DE07B68DB68002B6B
:102B9C000CD1764B1B6A754A23F001031362734BFD
:102BAC001B6A724A23F0040313621CE07B68DB6827
:102BBC00052B0CD16D4B1B6A6C4A43F0040313625A
:102BCC006A4B1B6A694A43F0010313620BE0674BC3
:102BDC001B6A664A23F001031362644B1B6A634A47
:102BEC0023F0040313627B68DB68002B15D0FFF71E
:102BFC0069FB38610AE0FFF765FB02463B69D31AB3
:102C0C0041F28832934201D90323ABE0574B1B6A44
:102C1C0003F00203002BEED014E0FFF753FB3861F6
:102C2C000AE0FFF74FFB02463B69D31A41F28832A8
:102C3C00934201D9032395E04C4B1B6A03F002032A
:102C4C00002BEED1FB7D012B05D1484BDB69474AAC
:102C5C0023F08053D3617B68DB69002B00F081800B
:102C6C00424B5B6803F00C03082B61D07B68DB697B
:102C7C00022B46D13F4B00221A60FFF723FB386131
:102C8C0008E0FFF71FFB02463B69D31A022B01D960
:102C9C00032367E0354B1B6803F00073002BF0D166
:102CAC007B681B6AB3F5803F08D1304B5B6823F41B
:102CBC0000327B689B682D4913434B602B4B5B6840
:102CCC0023F474127B68196A7B685B6A0B4327498F
:102CDC0013434B60274B01221A60FFF7F3FA38615C
:102CEC0008E0FFF7EFFA02463B69D31A022B01D931
:102CFC00032337E01D4B1B6803F00073002BF0D04F
:102D0C002FE01C4B00221A60FFF7DCFA386108E058
:102D1C00FFF7D8FA02463B69D31A022B01D90323D9
:102D2C0020E0124B1B6803F00073002BF0D118E06D
:102D3C007B68DB69012B01D1012313E00B4B5B6832
:102D4C00FB60FB6803F480327B681B6A9A4206D1F5
:102D5C00FB6803F470127B685B6A9A4201D0012312
:102D6C0000E0002318461837BD4680BD0010024015
:102D7C00007000406000424280B584B000AF7860C3
:102D8C0039607B68002B01D10123D0E06A4B1B68B2
:102D9C0003F007033A689A4210D9674B1B6823F07B
:102DAC00070265493B6813430B60634B1B6803F0D8
:102DBC0007033A689A4201D00123B8E07B681B688C
:102DCC0003F00203002B20D07B681B6803F0040384
:102DDC00002B05D0594B5B68584A43F4E0635360B1
:102DEC007B681B6803F00803002B05D0534B5B6812
:102DFC00524A43F460535360504B5B6823F0F0022B
:102E0C007B689B684D4913434B607B681B6803F0E0
:102E1C000103002B40D07B685B68012B07D1474B2B
:102E2C001B6803F40033002B15D101237FE07B6872
:102E3C005B68022B07D1414B1B6803F00073002B1E
:102E4C0009D1012373E03D4B1B6803F00203002BF7
:102E5C0001D101236BE0394B5B6823F003027B68E3
:102E6C005B68364913434B60FFF72CFAF8600AE0B5
:102E7C00FFF728FA0246FB68D31A41F288329342D4
:102E8C0001D9032353E02D4B5B6803F00C027B68E4
:102E9C005B689B009A42EBD1274B1B6803F007033E
:102EAC003A689A4210D2244B1B6823F0070222493D
:102EBC003B6813430B60204B1B6803F007033A6815
:102ECC009A4201D0012332E07B681B6803F00403B3
:102EDC00002B08D0194B5B6823F4E0627B68DB683D
:102EEC00164913434B607B681B6803F00803002BE7
:102EFC0009D0124B5B6823F460527B681B69DB00C2
:102F0C000E4913434B6000F021F802460B4B5B68F3
:102F1C001B0903F00F030A49CB5C22FA03F3094A9D
:102F2C001360094B1B681846FFF78AF900231846F3
:102F3C001037BD4680BD00BF00200240001002408B
:102F4C0064380008600000206400002080B487B062
:102F5C0000AF0023FB600023BB6000237B610023D8
:102F6C007B6000233B611E4B5B68FB60FB6803F0DE
:102F7C000C03042B02D0082B03D027E0194B3B6128
:102F8C0027E0FB689B0C03F00F03174AD35C7B60B4
:102F9C00FB6803F48033002B10D0114B5B685B0C87
:102FAC0003F00103114AD35CBB607B680D4A02FB42
:102FBC0003F2BB68B2FBF3F37B6104E07B680C4A61
:102FCC0002FB03F37B617B693B6102E0054B3B61D8
:102FDC0000BF3B6918461C37BD4680BC704700BF1C
:102FEC000010024000127A0074380008843800087F
:102FFC0000093D0080B485B000AF78600A4B1B68B7
:10300C000A4AA2FB03235B0A7A6802FB03F3FB6008
:10301C0000BFFB685A1EFA60002BF9D100BF00BF3D
:10302C001437BD4680BC704760000020D34D621041
:10303C0080B582B000AF78607B68002B01D1012392
:10304C0041E07B6893F83D30DBB2002B06D17B6806
:10305C00002283F83C207868FFF75AF87B6802223C
:10306C0083F83D207B681A687B6804331946104648
:10307C0000F056FA7B68012283F846207B68012217
:10308C0083F83E207B68012283F83F207B68012275
:10309C0083F840207B68012283F841207B68012261
:1030AC0083F842207B68012283F843207B6801224D
:1030BC0083F844207B68012283F845207B68012239
:1030CC0083F83D20002318460837BD4680BD00001C
:1030DC0080B485B000AF78607B6893F83D30DBB28C
:1030EC00012B01D0012335E07B68022283F83D20BF
:1030FC007B681B68DA687B681B6842F00102DA6047
:10310C007B681B68164A934209D07B681B68B3F135
:10311C00804F04D07B681B68124A934211D17B68A4
:10312C001B689B6803F00703FB60FB68062B10D041
:10313C007B681B681A687B681B6842F001021A6086
:10314C0007E07B681B681A687B681B6842F0010209
:10315C001A60002318461437BD4680BC704700BF68
:10316C00002C01400004004080B584B000AF7860B2
:10317C007B681B68DB68FB607B681B681B69BB603A
:10318C00BB6803F00203002B20D0FB6803F00203A2
:10319C00002B1BD07B681B686FF002021A617B68E6
:1031AC0001221A777B681B689B6903F00303002BD1
:1031BC0003D0786800F098F905E0786800F08BF996
:1031CC00786800F09AF97B6800221A77BB6803F0E4
:1031DC000403002B20D0FB6803F00403002B1BD04E
:1031EC007B681B686FF004021A617B6802221A77F5
:1031FC007B681B689B6903F44073002B03D07868D1
:10320C0000F072F905E0786800F065F9786800F074
:10321C0074F97B6800221A77BB6803F00803002B53
:10322C0020D0FB6803F00803002B1BD07B681B68C5
:10323C006FF008021A617B6804221A777B681B689E
:10324C00DB6903F00303002B03D0786800F04CF922
:10325C0005E0786800F03FF9786800F04EF97B687B
:10326C0000221A77BB6803F01003002B20D0FB68F8
:10327C0003F01003002B1BD07B681B686FF010024F
:10328C001A617B6808221A777B681B68DB6903F478
:10329C004073002B03D0786800F026F905E07868BD
:1032AC0000F019F9786800F028F97B6800221A7789
:1032BC00BB6803F00103002B0CD0FB6803F0010387
:1032CC00002B07D07B681B686FF001021A617868CD
:1032DC00FEF77AFCBB6803F08003002B0CD0FB6874
:1032EC0003F08003002B07D07B681B686FF0800213
:1032FC001A61786800F06FFABB6803F04003002B8A
:10330C000CD0FB6803F04003002B07D07B681B68D4
:10331C006FF040021A61786800F0F8F8BB6803F0AF
:10332C002003002B0CD0FB6803F02003002B07D0EC
:10333C007B681B686FF020021A61786800F042FA13
:10334C0000BF1037BD4680BD80B584B000AF78603B
:10335C0039600023FB737B6893F83C30012B01D15F
:10336C000223B4E07B68012283F83C207B680222B4
:10337C0083F83D207B681B689B68BB60BB6823F0AF
:10338C007703BB60BB6823F47F43BB607B681B681F
:10339C00BA689A603B681B68B3F5005F3ED0B3F522
:1033AC00005F00F28780B3F5805F00F08680B3F594
:1033BC00805F7FD8702B1AD0702B7BD8602B50D0AD
:1033CC00602B77D8502B3CD0502B73D8402B58D037
:1033DC00402B6FD8302B64D0302B6BD8202B60D087
:1033EC00202B67D8002B5CD0102B5AD062E07B6866
:1033FC0018683B6899683B685A683B68DB6800F062
:10340C006AF97B681B689B68BB60BB6843F07703F9
:10341C00BB607B681B68BA689A604FE07B68186871
:10342C003B6899683B685A683B68DB6800F053F965
:10343C007B681B689A687B681B6842F480429A60C0
:10344C003CE07B6818683B6859683B68DB681A4647
:10345C0000F0CAF87B681B685021184600F021F96F
:10346C002CE07B6818683B6859683B68DB681A4637
:10347C0000F0E8F87B681B686021184600F011F931
:10348C001CE07B6818683B6859683B68DB681A4627
:10349C0000F0AAF87B681B684021184600F001F97F
:1034AC000CE07B681A683B681B681946104600F0F4
:1034BC00F8F803E00123FB7300E000BF7B680122F6
:1034CC0083F83D207B68002283F83C20FB7B184668
:1034DC001037BD4680BD80B483B000AF786000BFAC
:1034EC000C37BD4680BC704780B483B000AF7860A9
:1034FC0000BF0C37BD4680BC704780B483B000AFB2
:10350C00786000BF0C37BD4680BC704780B483B078
:10351C0000AF786000BF0C37BD4680BC7047000020
:10352C0080B485B000AF786039607B681B68FB6045
:10353C007B682B4A934207D07B68B3F1804F03D052
:10354C007B68284A934208D1FB6823F07003FB6028
:10355C003B685B68FA681343FB607B68204A9342C4
:10356C0007D07B68B3F1804F03D07B681D4A934230
:10357C0008D1FB6823F44073FB603B68DB68FA6896
:10358C001343FB60FB6823F080023B685B691343C9
:10359C00FB607B68FA681A603B689A687B68DA6241
:1035AC003B681A687B689A627B680D4A934203D128
:1035BC003B681A697B681A637B6801225A617B68D5
:1035CC001B6903F00103002B05D07B681B6923F0FA
:1035DC0001027B681A6100BF1437BD4680BC70477E
:1035EC00002C01400004004080B487B000AFF860AC
:1035FC00B9607A60FB681B6A7B61FB681B6A23F00D
:10360C000102FB681A62FB689B693B613B6923F012
:10361C00F0033B617B681B013A6913433B617B6997
:10362C0023F00A037B617A69BB6813437B61FB68F7
:10363C003A699A61FB687A691A6200BF1C37BD4609
:10364C0080BC704780B487B000AFF860B9607A6016
:10365C00FB681B6A7B61FB681B6A23F01002FB682A
:10366C001A62FB689B693B613B6923F470433B61C5
:10367C007B681B033A6913433B617B6923F0A0030E
:10368C007B61BB681B017A6913437B61FB683A69F8
:10369C009A61FB687A691A6200BF1C37BD4680BC10
:1036AC00704780B485B000AF786039607B689B68E8
:1036BC00FB60FB6823F07003FB603A68FB68134304
:1036CC0043F00703FB607B68FA689A6000BF14370D
:1036DC00BD4680BC704780B487B000AFF860B9605D
:1036EC007A603B60FB689B687B617B6923F47F435A
:1036FC007B613B681A027B681A43BB6813437A6987
:10370C0013437B61FB687A699A6000BF1C37BD4626
:10371C0080BC704780B485B000AF786039607B683E
:10372C0093F83C30012B01D1022341E07B6801224C
:10373C0083F83C207B68022283F83D207B681B6861
:10374C005B68FB607B681B689B68BB60FB6823F055
:10375C007003FB603B681B68FA681343FB607B6873
:10376C001B68FA685A607B681B68144A934209D03C
:10377C007B681B68B3F1804F04D07B681B68104AD0
:10378C0093420CD1BB6823F08003BB603B685B6841
:10379C00BA681343BB607B681B68BA689A607B6825
:1037AC00012283F83D207B68002283F83C20002313
:1037BC0018461437BD4680BC704700BF002C014032
:1037CC000004004080B483B000AF786000BF0C37B9
:1037DC00BD4680BC704780B483B000AF786000BF3A
:1037EC000C37BD4680BC704770B500260C4D0D4C97
:1037FC00641BA410A64209D100F022F800260A4D41
:10380C000A4C641BA410A64205D170BD55F8043BAC
:10381C0098470136EEE755F8043B98470136F2E736
:10382C008838000888380008883800088C38000868
:10383C0003460244934200D1704703F8011BF9E799
:10384C00F8B500BFF8BC08BC9E467047F8B500BF81
:08385C00F8BC08BC9E46704751
:10386400000000000000000001020304060708092C
:1038740002030405060708090A0B0C0D0E0F1010AD
:04388400010200003D
:043888003101000802
:04388C000D01000822
:103890000100000001000000010000000100000024
:1038A0000100000001000000010000000100000014
:1038B0000100000001000000010000000100000004
:1038C0002C010000320000002C0100000D0000005F
:1038D000030000000A0000000D00000003000000CB
:1038E0000A00000001000000010000000A000000C2
:0C38F00000127A0010000000010000002F
:04000005080021D5F9
:00000001FF
