:020000040800F2
:10000000002800206D210008FD20000803210008C1
:10001000092100080F210008152100080000000038
:100020000000000000000000000000001B2100088C
:100030002721000800000000332100083F210008AC
:10004000B5210008B5210008B5210008B521000838
:10005000B5210008B5210008B5210008B521000828
:10006000B5210008B5210008B5210008B521000818
:10007000B5210008B5210008B5210008B521000808
:10008000B5210008B5210008B5210008B5210008F8
:10009000B5210008B5210008B5210008B5210008E8
:1000A000B5210008B5210008B5210008B5210008D8
:1000B0004D210008B521000800000000B52100080E
:1000C000B52100080000000000000000B521000874
:1000D00000000000B5210008B52100080000000064
:1000E000B5210008B5210008B52100080000000076
:1000F0000000000000000000000000000000000000
:0C01000000000000000000005FF808F1A3
:10010C0010B5054C237833B9044B13B10448AFF345
:10011C0000800123237010BD6C0000200000000043
:10012C00E437000808B5034B1BB103490348AFF390
:10013C00008008BD0000000070000020E4370008BB
:10014C0080B582B000AF78607B68092B00F2B28179
:10015C0001A252F823F000BF8D010008DF01000856
:10016C003102000883020008D502000827030008AA
:10017C0079030008CB0300081D0400086F04000875
:10018C0000224021CD4802F012FB00228021CB48F6
:10019C0002F00DFB00224FF48071C84802F007FBFF
:1001AC0000224FF40071C54802F001FB00224FF40D
:1001BC008061C24802F0FBFA00224FF40061BF4894
:1001CC0002F0F5FA01224FF48051BC4802F0EFFA2C
:1001DC0070E101224021B94802F0E9FA00228021A5
:1001EC00B64802F0E4FA00224FF48071B34802F0F2
:1001FC00DEFA01224FF40071B04802F0D8FA012265
:10020C004FF48061AD4802F0D2FA01224FF4006144
:10021C00AA4802F0CCFA01224FF48051A74802F010
:10022C00C6FA47E100224021A44802F0C0FA00229D
:10023C008021A24802F0BBFA01224FF480719F4842
:10024C0002F0B5FA00224FF400719C4802F0AFFAAC
:10025C0000224FF48061994802F0A9FA01224FF470
:10026C000061964802F0A3FA00224FF480519348A3
:10027C0002F09DFA1EE100224021904802F097FA0C
:10028C00002280218D4802F092FA00224FF48071F6
:10029C008A4802F08CFA00224FF40071874802F071
:1002AC0086FA01224FF48061844802F080FA012220
:1002BC004FF40061814802F07AFA00224FF4805129
:1002CC007E4802F074FAF5E0012240217B4802F0EE
:1002DC006EFA00228021794802F069FA00224FF46C
:1002EC008071764802F063FA01224FF40071734872
:1002FC0002F05DFA01224FF48061704802F057FA67
:10030C0000224FF400616D4802F051FA00224FF4C4
:10031C0080516A4802F04BFACCE000224021674839
:10032C0002F045FA01228021644802F040FA0022D2
:10033C004FF48071614802F03AFA00224FF40071D8
:10034C005E4802F034FA01224FF480615B4802F0FF
:10035C002EFA00224FF40061584802F028FA0022CD
:10036C004FF48051554802F022FAA3E000224021BC
:10037C00524802F01CFA01228021504802F017FA70
:10038C0000224FF480714D4802F011FA00224FF414
:10039C0000714A4802F00BFA00224FF48061474882
:1003AC0002F005FA00224FF40061444802F0FFF914
:1003BC0000224FF48051414802F0F9F97AE0002212
:1003CC0040213E4802F0F3F9002280213B4802F024
:1003DC00EEF900224FF48071384802F0E8F901225E
:1003EC004FF40071354802F0E2F901224FF48061BC
:1003FC00324802F0DCF901224FF400612F4802F080
:10040C00D6F901224FF480512C4802F0D0F951E07A
:10041C0000224021294802F0CAF9002280212748F5
:10042C0002F0C5F900224FF48071244802F0BFF9A4
:10043C0000224FF40071214802F0B9F900224FF468
:10044C0080611E4802F0B3F900224FF400611B4892
:10045C0002F0ADF900224FF48051184802F0A7F9D0
:10046C0028E000224021154802F0A1F90022802149
:10047C00124802F09CF900224FF480710F4802F0F0
:10048C0096F900224FF400710C4802F090F9012209
:10049C004FF48061094802F08AF900224FF40061A0
:1004AC00064802F084F900224FF48051034802F010
:1004BC007EF900BF00BF0837BD4680BD000C01406F
:1004CC0080B582B000AF78607B68092B00F2B281F6
:1004DC0001A252F823F000BF0D0500085F050008CB
:1004EC00B10500080306000855060008A706000819
:1004FC00F90600084B0700089D070008EF070008E5
:10050C0000224021CD4802F052F900228021CB4834
:10051C0002F04DF900224FF48071C84802F047F9FF
:10052C0000224FF40071C54802F041F900224FF44B
:10053C008061C24802F03BF900224FF40061BF48D1
:10054C0002F035F901224FF48051BC4802F02FF92A
:10055C0070E101224021B94802F029F900228021E2
:10056C00B64802F024F900224FF48071B34802F02F
:10057C001EF901224FF40071B04802F018F9012263
:10058C004FF48061AD4802F012F901224FF4006182
:10059C00AA4802F00CF901224FF48051A74802F04E
:1005AC0006F947E100224021A44802F000F900229C
:1005BC008021A24802F0FBF801224FF480719F4881
:1005CC0002F0F5F800224FF400719C4802F0EFF8AD
:1005DC0000224FF48061994802F0E9F801224FF4AF
:1005EC000061964802F0E3F800224FF480519348E2
:1005FC0002F0DDF81EE100224021904802F0D7F80D
:10060C00002280218D4802F0D2F800224FF4807134
:10061C008A4802F0CCF800224FF40071874802F0AF
:10062C00C6F801224FF48061844802F0C0F8012220
:10063C004FF40061814802F0BAF800224FF4805167
:10064C007E4802F0B4F8F5E0012240217B4802F02C
:10065C00AEF800228021794802F0A9F800224FF46C
:10066C008071764802F0A3F801224FF400717348B0
:10067C0002F09DF801224FF48061704802F097F867
:10068C0000224FF400616D4802F091F800224FF403
:10069C0080516A4802F08BF8CCE000224021674878
:1006AC0002F085F801228021644802F080F80022D3
:1006BC004FF48071614802F07AF800224FF4007117
:1006CC005E4802F074F801224FF480615B4802F03E
:1006DC006EF800224FF40061584802F068F80022CE
:1006EC004FF48051554802F062F8A3E000224021FB
:1006FC00524802F05CF801228021504802F057F871
:10070C0000224FF480714D4802F051F800224FF452
:10071C0000714A4802F04BF800224FF480614748C0
:10072C0002F045F800224FF40061444802F03FF813
:10073C0000224FF48051414802F039F87AE000224F
:10074C0040213E4802F033F8002280213B4802F061
:10075C002EF800224FF48071384802F028F801225C
:10076C004FF40071354802F022F801224FF48061F9
:10077C00324802F01CF801224FF400612F4802F0BD
:10078C0016F801224FF480512C4802F010F851E079
:10079C0000224021294802F00AF800228021274833
:1007AC0002F005F800224FF48071244801F0FFFF9D
:1007BC0000224FF40071214801F0F9FF00224FF4A0
:1007CC0080611E4801F0F3FF00224FF400611B48CA
:1007DC0001F0EDFF00224FF48051184801F0E7FFC3
:1007EC0028E000224021154801F0E1FF0022802181
:1007FC00124801F0DCFF00224FF480710F4801F029
:10080C00D6FF00224FF400710C4801F0D0FF0122FA
:10081C004FF48061094801F0CAFF00224FF40061D7
:10082C00064801F0C4FF00224FF48051034801F048
:10083C00BEFF00BF00BF0837BD4680BD00080140A9
:10084C0080B582B000AF78607B68002B03D07B68EA
:10085C00012B12D023E000221021134801F0A7FF36
:10086C0001222021104801F0A2FF104A7B6852F8A7
:10087C0023301846FFF764FC11E0012210210A48CE
:10088C0001F095FF00222021074801F090FF074A54
:10089C007B6852F823301846FFF752FC00BF00BFAC
:1008AC000837BD4680BD00BF000C01408800002009
:1008BC0080B582B000AF78607B68002B03D07B687A
:1008CC00012B12D023E000220121134801F06FFF0D
:1008DC0001220221104801F06AFF104A7B6852F88D
:1008EC0023301846FFF7ECFD11E0012201210A48E4
:1008FC0001F05DFF00220221074801F058FF074A72
:10090C007B6852F823301846FFF7DAFD00BF00BFB2
:10091C000837BD4680BD00BF000C01409000002090
:10092C0080B400AF064B1B68012B04D1044B002292
:10093C001A60012300E000231846BD4680BC7047B6
:10094C009800002080B400AF064B1B68012B04D12B
:10095C00044B00221A60012300E000231846BD4618
:10096C0080BC70479C00002080B400AF064B1B6815
:10097C00012B04D1044B00221A60012300E0002358
:10098C001846BD4680BC7047A000002080B582B0E0
:10099C0000AF00237B60394A7B6852F8232038492A
:1009AC007B6841F82320374A7B6852F8232033496F
:1009BC007B6841F823204FF40051334801F0E0FEEE
:1009CC00034619462F4A7B6842F823102C4A7B6851
:1009DC0052F8232029497B6851F823309A4249D197
:1009EC00264A7B6852F8232026497B6851F823302D
:1009FC009A423FD1254A7B6852F8232021497B68D3
:100A0C0051F823309A4217D01E4A7B6852F82320A3
:100A1C001E497B6841F823201A4A7B6852F8233020
:100A2C00002B27D11A4B01221A601A4A7B684FF40B
:100A3C00967142F823101DE0124A7B6852F823305D
:100A4C00002B17D1134A7B6852F823305A1E1149D8
:100A5C007B6841F823200F4A7B6852F82330002B27
:100A6C0008D10B4B01221A600A4A7B684FF496712D
:100A7C0042F8231000BF0837BD4680BD0C00002093
:100A8C000000002018000020000801402400002075
:100A9C00980000203000002080B582B000AF012308
:100AAC007B60384A7B6852F8232037497B6841F8D1
:100ABC002320364A7B6852F8232032497B6841F860
:100ACC0023204FF48041324801F05AFE0346194668
:100ADC002E4A7B6842F823102B4A7B6852F823205D
:100AEC0028497B6851F823309A4247D1254A7B68C4
:100AFC0052F8232025497B6851F823309A423DD186
:100B0C00244A7B6852F8232020497B6851F8233013
:100B1C009A4216D01D4A7B6852F823201D497B68E7
:100B2C0041F82320194A7B6852F82330002B25D139
:100B3C00194B01221A60194A7B68322142F82310A2
:100B4C001CE0124A7B6852F82330002B16D1134A52
:100B5C007B6852F823305A1E10497B6841F82320D9
:100B6C000E4A7B6852F82330002B07D10A4B012226
:100B7C001A600A4A7B68322142F8231000BF0837FA
:100B8C00BD4680BD0C000020000000201800002095
:100B9C0000080140240000209C00002030000020B0
:100BAC0080B582B000AF02237B60394A7B6852F873
:100BBC00232038497B6841F82320374A7B6852F858
:100BCC00232033497B6841F823204FF400413348FC
:100BDC0001F0D6FD034619462F4A7B6842F82310D4
:100BEC002C4A7B6852F8232029497B6851F8233022
:100BFC009A4249D1264A7B6852F8232026497B68C1
:100C0C0051F823309A423FD1254A7B6852F8232071
:100C1C0021497B6851F823309A4217D01E4A7B68D1
:100C2C0052F823201E497B6841F823201A4A7B681E
:100C3C0052F82330002B27D11A4B01221A601A4A82
:100C4C007B684FF4967142F823101DE0124A7B68C2
:100C5C0052F82330002B17D1134A7B6852F82330FB
:100C6C005A1E11497B6841F823200F4A7B6852F8C1
:100C7C002330002B08D10B4B01221A600A4A7B68E7
:100C8C004FF4967142F8231000BF0837BD4680BD63
:100C9C000C0000200000002018000020000801407B
:100CAC0024000020A00000203000002080B500AF00
:100CBC0000F004F800F030F900BF80BD80B582B0C0
:100CCC0000AF8A4B1B68032B00F2F38001A252F891
:100CDC0023F000BFF10C0008290D0008B30D00082B
:100CEC002D0E000800237B600AE0814A7B6852F8D5
:100CFC00232080497B6841F823207B6801337B608B
:100D0C007B68022BF1DD4FF47A7000F08DFF7A4B8B
:100D1C0001221A60754B01221A60CAE001220421DB
:100D2C00764801F044FD00220821744801F03FFD93
:100D3C0000221021714801F03AFD6E4B1B68002B0C
:100D4C0009DA4FF47A7000F0A3FF6B4B01221A60A2
:100D5C00664B03221A60674B1B68694A82FB0312BD
:100D6C009210DB17D31A674A1360624B1968644BF5
:100D7C0083FB01239A10CB17D21A13469B00134402
:100D8C005B00CA1A5F4B5A605F4B1B68012B40F02B
:100D9C008B80584B1B68013B564A13604FF47A709A
:100DAC0000F042FF80E000220421544801F0FFFCD7
:100DBC0001220821514801F0FAFC002210214F4871
:100DCC0001F0F5FC4B4B5B68002B02DA474B002221
:100DDC001A60484B5B684A4A82FB03129210DB177D
:100DEC00D31A484A1360434B5968454B83FB012384
:100DFC009A10CB17D21A13469B0013445B00CA1AE5
:100E0C00404B5A60414B1B68012B4FD1394B5B68EF
:100E1C00013B384A53604FF47A7000F01FFF45E0F5
:100E2C0000220421354801F0C2FC0022082133487D
:100E3C0001F0BDFC01221021304801F0B8FC2D4B13
:100E4C009B68002B09DA4FF47A7000F007FF2A4BED
:100E5C0001221A60254B02221A60264B9B68284AF5
:100E6C0082FB03129210DB17D31A264A1360214B14
:100E7C009968234B83FB01239A10CB17D21A134684
:100E8C009B0013445B00CA1A1E4B5A60204B1B6814
:100E9C00012B0DD1174B9B68013B164A93604FF405
:100EAC007A7000F0F5FE03E000BF02E000BF00E046
:100EBC0000BF184B1B68012B14D10F4B1B68012B67
:100ECC0002DD0D4B00221A600B4B1B681846FFF716
:100EDC00EFFC094B1B680133074A13604FF4FA709F
:100EEC0000F06EFE00BF0837BD4680BDBC00002080
:100EFC0048000020B00000205400002000080140F1
:100F0C006766666690000020000100200801002042
:100F1C0010010020F000002080B582B000AF8F4B94
:100F2C001B68032B00F2FC8001A252F823F000BFD7
:100F3C004D0F0008850F00080710000895100008D9
:100F4C0000237B600AE0864A7B6852F8232085499F
:100F5C007B6841F823207B6801337B607B68022B24
:100F6C00F1DD4FF47A7000F0E1FE7F4B01221A6044
:100F7C007A4B03221A60D3E001224FF400517B48D4
:100F8C0001F015FC00224FF48041784801F00FFC71
:100F9C0000224FF40041754801F009FC714B1B68AD
:100FAC00002B02DA6D4B00221A606E4B1B68704AE4
:100FBC0082FB03129210DB17D31A6E4A1360694B33
:100FCC0019686B4B83FB01239A10CB17D21A13466B
:100FDC009B0013445B00CA1A664B5A60664B1B6835
:100FEC00012B40F098805F4B1B68013B5D4A1360FE
:100FFC004FF47A7000F066FE8DE000224FF4005141
:10100C005A4801F0D4FB01224FF48041574801F0BB
:10101C00CEFB00224FF40041544801F0C8FB514B69
:10102C005B68002B09DA4FF47A7000F04BFE4E4BE4
:10103C0001221A60494B01221A604A4B5B684C4AE8
:10104C0082FB03129210DB17D31A4A4A1360454BEA
:10105C005968474B83FB01239A10CB17D21A1346BE
:10106C009B0013445B00CA1A424B5A60434B1B68EB
:10107C00012B52D13B4B5B68013B3A4A53604FF416
:10108C007A7000F039FE48E000224FF400513748E6
:10109C0001F08DFB00224FF48041344801F087FBB6
:1010AC0001224FF40041314801F081FB2D4B9B682C
:1010BC00002B09DA4FF47A7000F01EFE2A4B012245
:1010CC001A60264B02221A60264B9B68284A82FB28
:1010DC0003129210DB17D31A264A1360214B99681E
:1010EC00234B83FB01239A10CB17D21A13469B0078
:1010FC0013445B00CA1A1F4B5A60214B1B68012B0F
:10110C000DD1184B9B68013B164A93604FF47A70D3
:10111C0000F00CFE03E000BF02E000BF00E000BFE7
:10112C00184B1B68012B14D10F4B1B68012B02DDD4
:10113C000D4B00221A600C4B1B681846FFF780FB06
:10114C00094B1B680133084A13604FF4FA7000F026
:10115C0051FD00BF0837BD4680BD00BFC000002058
:10116C003C000020A400002058000020000C01408E
:10117C0067666666880000201801002020010020A8
:10118C0028010020F800002080B500AFFFF7C8FB55
:10119C000346012B0DD1994B1B68032B09DC984B93
:1011AC001B68032B05DC954B04221A60944B04221C
:1011BC001A60924B1B68072B00F0BB80072B00F3C7
:1011CC00E781052B02D0062B40D0E1E1FFF7A8FB0D
:1011DC000346012B0DD1894B06221A60884B06223F
:1011EC001A6042F2107000F0BBFD4FF4FA7000F080
:1011FC00EBFDFFF7A7FB0346012B17D1814B012217
:10120C001A60814B1B68632B09DC7F4B1B68002B1E
:10121C0005DD7D4B1B6801337B4A136002E07A4B82
:10122C0001221A6042F2107000F09AFDFFF79CFB4D
:10123C000346012B40F0A781704B00221A60704BC3
:10124C0000221A60714B00221A609CE1FFF768FBC8
:10125C000346012B0DD1694B07221A60684B0722FC
:10126C001A6042F2107000F07BFD4FF4FA7000F03F
:10127C00C5FDFFF767FB0346012B17D1644B012219
:10128C001A60614B5B68632B09DC5F4B5B68002B5E
:10129C0005DD5D4B5B6801335B4A536002E05A4BE2
:1012AC0001225A6042F2107000F05AFDFFF75CFB0D
:1012BC000346012B40F06981524B1B68012B2ED148
:1012CC00534B1B68012B2AD14F4B1A684E4B5B6852
:1012DC00D31A4D4A93604C4B5A684B4B9B689A42BD
:1012EC001DDA494B5A68484B1B689A4217DA464B31
:1012FC001B68484A1360444B1B68474A1360424BB7
:10130C005B68444A5360404B5B68434A53603E4BB6
:10131C009B68404A93603C4B9B683F4A9360374BB9
:10132C0000221A60364B00221A60384B00221A60D9
:10133C002BE1FFF7F5FA0346012B05D12F4B0022C9
:10134C001A602F4B00221A60FFF7FCFA0346012BA0
:10135C0017D1324B01221A602B4B9B68632B09DC93
:10136C00294B9B68002B05DD274B9B680133264AD4
:10137C00936002E0244B01229A6042F2107000F05C
:10138C00EFFCFFF7F1FA0346012B40F000811D4BF7
:10139C001B68012B44D11E4B1B68012B40D11A4BEF
:1013AC001A68194B5B68D31A174A9360164B5A6824
:1013BC00154B9B689A4280F2D780134B5A68124B9C
:1013CC001B689A4280F2D0800F4B1B68114A136045
:1013DC000D4B1B68104A13600B4B5B680D4A536036
:1013EC00094B5B680C4A5360074B9B68094A936036
:1013FC00054B9B68084A9360B6E000BFBC00002018
:10140C00C0000020DC000020C400002030010020BF
:10141C00E0000020480000203C000020E4000020F8
:10142C005C4B1B68012B31D15B4B1B68012B2DD105
:10143C005A4B1A68594B9B68D31A584A5360574BEE
:10144C005A68564B9B689A4280F29080534B5A686C
:10145C00524B1B689A4280F28980504B1B68504A51
:10146C0013604E4B1B684F4A13604C4B5B684C4AE5
:10147C0053604A4B5B684B4A5360484B9B68484AE5
:10148C009360464B9B68474A93606FE0464B1B68E2
:10149C00012B2FD1404B1B68012B2BD13F4B5A6892
:1014AC003E4B9B6813443D4A13603C4B5A683B4B84
:1014BC009B689A425CDA394B5A68384B1B689A42E3
:1014CC0056DA364B1B68364A1360344B1B68354A68
:1014DC001360324B5B68324A5360304B5B68314A65
:1014EC0053602E4B9B682E4A93602C4B9B682D4A65
:1014FC0093603DE0274B1B68012B3AD12A4B1B68AC
:10150C00012B36D1244B1B68012B32D1234B5A684B
:10151C00224B9B689A422CDA204B5A681F4B1B6853
:10152C009A4226DA1D4B1A681C4B59681B4B9B6858
:10153C000B449A421DD1194B1B68194A1360174B67
:10154C001B68184A1360154B5B68154A5360134BA4
:10155C005B68144A5360114B9B68114A93600F4BA4
:10156C009B68104A936004E000BF02E000BF00E0FB
:10157C0000BF0E4B00221A600D4B00221A600D4B5F
:10158C0000221A6003E000BF02E000BF00E000BFD1
:10159C0000BF80BDDC000020E4000020C40000205F
:1015AC00480000203C000020E0000020BC0000208F
:1015BC00C00000203001002080B582B000AF854B08
:1015CC001B68043B032B00F2938101A252F823F019
:1015DC00ED15000851160008191700082D18000801
:1015EC0000237B600AE07C4A7B6852F823207B490D
:1015FC007B6841F823207B6801337B607B68022B7E
:10160C00F1DD42F2107000F0ABFB4FF4FA7000F019
:10161C00C1FB734B00221A60724B00221A60724B92
:10162C0000221A60714B00221A60714B00221A6062
:10163C00704B00221A60704B01221A60654B052218
:10164C001A6055E1694B1B68002B0DD1674B0122C9
:10165C001A6001220421694801F0A9F801224FF413
:10166C000051674801F0A3F8664B1B68012B0CD1A5
:10167C000421624801F0B3F84FF40051604801F0C6
:10168C00AEF84FF4FA7000F085FB002208215B489D
:10169C0001F08DF800224FF48041594801F087F891
:1016AC0000221021554801F082F800224FF400412D
:1016BC00534801F07CF8494B1B68534A82FB0312D8
:1016CC009210DB17D31A514A1360444B19684E4BD6
:1016DC0083FB01239A10CB17D21A13469B00134499
:1016EC005B00CA1A494B5A60494B00221A60484B9E
:1016FC0002225A60474B1B68012B40F0F480354B9B
:10170C0000221A60444B00221A60ECE0384B1B6834
:10171C00002B0DD1364B01221A60012208213748CB
:10172C0001F045F801224FF48041354801F03FF8B3
:10173C003A4B1B68012B0CD10821304801F04FF8B3
:10174C004FF480412E4801F04AF84FF4FA7000F043
:10175C003BFB00220421294801F029F800224FF418
:10176C000051274801F023F800221021234801F0F2
:10177C001EF800224FF40041214801F018F8174BD5
:10178C005B68214A82FB03129210DB17D31A1F4AA3
:10179C001360124B59681C4B83FB01239A10CB1717
:1017AC00D21A13469B0013445B00CA1A174B5A609B
:1017BC00174B00221A60164B03225A60154B1B68FC
:1017CC00012B40F09280034B00221A60124B002236
:1017DC001A608AE0BC00002048000020C4000020F1
:1017EC00DC000020E0000020E4000020D0000020FD
:1017FC00D4000020D8000020540000200008014034
:10180C00000C0140380100206766666690000020DD
:10181C008800002030010020C00000204001002082
:10182C00354B1B68002B0DD1334B01221A60012262
:10183C001021324800F0BBFF01224FF40041304828
:10184C0000F0B5FF2F4B1B68012B0CD110212B483E
:10185C0000F0C5FF4FF40041294800F0C0FF4FF4E1
:10186C00FA7000F0CBFA00220421244800F09FFF0C
:10187C0000224FF40051224800F099FF0022082169
:10188C001E4800F094FF00224FF480411C4800F0E9
:10189C008EFF1D4B9B681D4A82FB03129210DB17B7
:1018AC00D31A1B4A1360184B9968184B83FB0123FE
:1018BC009A10CB17D21A13469B0013445B00CA1A1A
:1018CC00134B5A60134B00221A60124B04225A60BD
:1018DC00114B1B68012B0AD1104B00221A60104BC4
:1018EC0000221A6003E000BF02E000BF00E000BF6E
:1018FC0000BF0837BD4680BDD8000020000801405D
:10190C00000C014048010020C40000206766666698
:10191C00900000208800002030010020BC00002036
:10192C00C000002080B500AF00F040FC00F02CF8A7
:10193C0000F0B2F800F064F8104801F095FB4FF499
:10194C007A7000F023F94FF4FA7000F039F94FF483
:10195C00FA7000F04FF90A4B1B68012B07D12021BC
:10196C00084800F03CFF4FF47A7000F00FF9FFF7D5
:10197C0023FEFFF79BF9FFF707FCECE75001002073
:10198C00E80000200008014080B590B000AF07F1DE
:10199C00180328220021184601F016FF3B1D0022D7
:1019AC001A605A609A60DA601A610223BB610123E3
:1019BC00BB621023FB6200237B6307F118031846FC
:1019CC0000F026FF0346002B01D000F0D9F80F23BE
:1019DC007B600023BB600023FB6000233B61002382
:1019EC007B613B1D0021184601F092F90346002B48
:1019FC0001D000F0C5F800BF4037BD4680BD0000E7
:101A0C0080B586B000AF07F1080300221A605A6057
:101A1C009A60DA603B4600221A605A601D4B4FF008
:101A2C0080421A601B4B41F63F725A60194B0022E0
:101A3C009A60184B0922DA60164B00221A61154B7A
:101A4C0000229A61134801F0BFFA0346002B01D023
:101A5C0000F096F84FF48053BB6007F10803194669
:101A6C000C4801F03DFC0346002B01D000F088F837
:101A7C0000233B6000237B603B461946054801F080
:101A8C0015FE0346002B01D000F07AF800BF183782
:101A9C00BD4680BD5001002080B586B000AF07F177
:101AAC00080300221A605A609A60DA60294B9B691D
:101ABC00284A43F004039361264B9B6903F004030B
:101ACC007B607B68234B9B69224A43F0080393613C
:101ADC00204B9B6903F008033B603B68002241F6F6
:101AEC00FC711D4800F063FE00224FF6F3711B4899
:101AFC0000F05DFE41F6FC73BB600123FB6000232C
:101B0C003B6102237B6107F108031946124800F080
:101B1C00BDFC4FF6F373BB600123FB6000233B61FC
:101B2C0002237B6107F1080319460C4800F0AEFC58
:101B3C004FF46043BB600023FB6001233B6107F162
:101B4C0008031946044800F0A1FC00BF1837BD4635
:101B5C0080BD00BF0010024000080140000C014095
:101B6C0080B582B000AF786000F062F9FEF70EFF2E
:101B7C00FEF792FFFFF714F800BF0837BD4680BD93
:101B8C0080B400AF72B600BFFEE7000080B483B033
:101B9C0000AF7860074B1B687A6892FBF3F3064A38
:101BAC001360064B00221A6000BF0C37BD4680BC88
:101BBC00704700BF5C000020EC000020E800002013
:101BCC0080B483B000AF7860074B1B687A6892FBD7
:101BDC00F3F3064A1360064B00221A6000BF0C3761
:101BEC00BD4680BC704700BF5C000020F4000020A4
:101BFC00F000002080B483B000AF7860074B1B6806
:101C0C007A6892FBF3F3064A1360064B00221A60C3
:101C1C0000BF0C37BD4680BC704700BF5C00002085
:101C2C00FC000020F800002080B483B000AF786086
:101C3C00074B1B687A6892FBF3F3064A1360064B5A
:101C4C0000221A6000BF0C37BD4680BC704700BF35
:101C5C005C000020040100200001002080B483B04F
:101C6C0000AF7860074B1B687A6892FBF3F3064A67
:101C7C001360064B00221A6000BF0C37BD4680BCB7
:101C8C00704700BF5C0000200C0100200801002000
:101C9C0080B483B000AF7860074B1B687A6892FB06
:101CAC00F3F3064A1360064B00221A6000BF0C3790
:101CBC00BD4680BC704700BF5C00002014010020B2
:101CCC001001002080B483B000AF7860074B1B6814
:101CDC007A6892FBF3F3064A1360064B00221A60F3
:101CEC0000BF0C37BD4680BC704700BF5C000020B5
:101CFC001C0100201801002080B483B000AF786074
:101D0C00074B1B687A6892FBF3F3064A1360064B89
:101D1C0000221A6000BF0C37BD4680BC704700BF64
:101D2C005C000020240100202001002080B483B03E
:101D3C0000AF7860074B1B687A6892FBF3F3064A96
:101D4C001360064B00221A6000BF0C37BD4680BCE6
:101D5C00704700BF5C0000202C01002028010020EF
:101D6C0080B483B000AF7860074B1B687A6892FB35
:101D7C00F3F3064A1360064B00221A6000BF0C37BF
:101D8C00BD4680BC704700BF5C00002034010020C1
:101D9C003001002080B483B000AF7860074B1B6823
:101DAC007A6892FBF3F3064A1360064B00221A6022
:101DBC0000BF0C37BD4680BC704700BF5C000020E4
:101DCC003C0100203801002080B483B000AF786063
:101DDC00074B1B687A6892FBF3F3064A1360064BB9
:101DEC0000221A6000BF0C37BD4680BC704700BF94
:101DFC005C000020440100204001002080B483B02E
:101E0C0000AF7860074B1B687A6892FBF3F3064AC5
:101E1C001360064B00221A6000BF0C37BD4680BC15
:101E2C00704700BF5C0000204C01002048010020DE
:101E3C0080B400AF694B1B68002B0BDD674B1B6834
:101E4C00013B664A1360654B1B68002B02DC644B3C
:101E5C0001221A60634B1B68002B0BDD614B1B6866
:101E6C00013B604A13605F4B1B68002B02DC5E4B2E
:101E7C0001221A605D4B1B68002B0BDD5B4B1B6852
:101E8C00013B5A4A1360594B1B68002B02DC584B20
:101E9C0001221A60574B1B68002B0BDD554B1B683E
:101EAC00013B544A1360534B1B68002B02DC524B12
:101EBC0001221A60514B1B68002B0BDD4F4B1B682A
:101ECC00013B4E4A13604D4B1B68002B02DC4C4B04
:101EDC0001221A604B4B1B68002B0BDD494B1B6816
:101EEC00013B484A1360474B1B68002B02DC464BF6
:101EFC0001221A60454B1B68002B0BDD434B1B6802
:101F0C00013B424A1360414B1B68002B02DC404BE7
:101F1C0001221A603F4B1B68002B0BDD3D4B1B68ED
:101F2C00013B3C4A13603B4B1B68002B02DC3A4BD9
:101F3C0001221A60394B1B68002B0BDD374B1B68D9
:101F4C00013B364A1360354B1B68002B02DC344BCB
:101F5C0001221A60334B1B68002B0BDD314B1B68C5
:101F6C00013B304A13602F4B1B68002B02DC2E4BBD
:101F7C0001221A602D4B1B68002B0BDD2B4B1B68B1
:101F8C00013B2A4A1360294B1B68002B02DC284BAF
:101F9C0001221A60274B1B68002B0BDD254B1B689D
:101FAC00013B244A1360234B1B68002B02DC224BA1
:101FBC0001221A60214B1B68002B0BDD1F4B1B6889
:101FCC00013B1E4A13601D4B1B68002B02DC1C4B93
:101FDC0001221A6000BFBD4680BC7047EC00002097
:101FEC00E8000020F4000020F0000020FC0000209D
:101FFC00F800002004010020000100200C0100204A
:10200C000801002014010020100100201C010020F8
:10201C001801002024010020200100202C010020A8
:10202C002801002034010020300100203C01002058
:10203C003801002044010020400100204C01002008
:10204C004801002080B485B000AF154B9B69144A41
:10205C0043F001039361124B9B6903F00103BB60D6
:10206C00BB680F4BDB690E4A43F08053D3610C4BBA
:10207C00DB6903F080537B607B680A4B5B68FB6019
:10208C00FB6823F0E063FB60FB6843F08063FB605C
:10209C00044AFB68536000BF1437BD4680BC7047D0
:1020AC00001002400000014080B584B000AF7860A1
:1020BC007B681B68B3F1804F13D10C4BDB690B4A67
:1020CC0043F00103D361094BDB6903F00103FB60AF
:1020DC00FB68002200211C2000F0A1F91C2000F05C
:1020EC00BAF900BF1037BD4680BD00BF00100240DA
:1020FC0080B400AFFEE780B400AFFEE780B400AF61
:10210C00FEE780B400AFFEE780B400AFFEE780B41A
:10211C0000AF00BFBD4680BC704780B400AF00BFAD
:10212C00BD4680BC704780B400AF00BFBD4680BCCC
:10213C00704780B500AF00F07FF800BF80BD000095
:10214C0080B500AF024800F0DBFF00BF80BD00BFD0
:10215C005001002080B400AF00BFBD4680BC70476A
:10216C00FFF7F8FF0B480C490C4A002302E0D45847
:10217C00C4500433C4188C42F9D3094A094C0023C7
:10218C0001E013600432A242FBD301F0F9FAFFF72D
:10219C00C9FB7047000000206C00002028380008A4
:1021AC006C0000209C010020FEE7000080B500AF11
:1021BC00084B1B68074A43F010031360032000F020
:1021CC0023F90F2000F008F8FFF73CFF0023184616
:1021DC0080BD00BF0020024080B582B000AF7860A7
:1021EC00124B1A68124B1B7819464FF47A73B3FBD7
:1021FC00F1F3B2FBF3F3184600F03BF90346002B66
:10220C0001D001230EE07B680F2B0AD800227968DD
:10221C004FF0FF3000F003F9064A7B68136000238F
:10222C0000E0012318460837BD4680BD6000002041
:10223C00680000206400002080B400AF054B1B78C0
:10224C001A46054B1B681344034A136000BFBD4676
:10225C0080BC7047680000209801002080B400AF5B
:10226C00024B1B681846BD4680BC70479801002085
:10227C0080B485B000AF78607B6803F00703FB6027
:10228C000C4BDB68BB60BA684FF6FF031340BB60B6
:10229C00FB681A02BB68134343F0BF6343F400337B
:1022AC00BB60044ABB68D36000BF1437BD4680BC1A
:1022BC00704700BF00ED00E080B400AF044BDB685A
:1022CC001B0A03F007031846BD4680BC704700BFCD
:1022DC0000ED00E080B483B000AF0346FB7197F9CA
:1022EC000730002B0BDBFB7903F01F02064997F933
:1022FC0007305B09012000FA02F241F8232000BFED
:10230C000C37BD4680BC704700E100E080B483B060
:10231C0000AF03463960FB7197F90730002B0ADBDD
:10232C003B68DAB20C4997F907301201D2B20B4470
:10233C0083F800230AE03B68DAB20849FB7903F022
:10234C000F03043B1201D2B20B441A7600BF0C37B8
:10235C00BD4680BC704700BF00E100E000ED00E02E
:10236C0080B489B000AFF860B9607A60FB6803F0A4
:10237C000703FB61FB69C3F10703042B28BF04238C
:10238C00BB61FB690433062B02D9FB69033B00E0FC
:10239C0000237B614FF0FF32BB6902FA03F3DA438F
:1023AC00BB681A407B699A404FF0FF317B6901FA98
:1023BC0003F3D9437B680B40134318462437BD46BF
:1023CC0080BC704780B582B000AF78607B68013B01
:1023DC00B3F1807F01D301230FE00A4A7B68013BF4
:1023EC0053600F214FF0FF30FFF790FF054B002299
:1023FC009A60044B07221A60002318460837BD4622
:10240C0080BD00BF10E000E080B582B000AF786006
:10241C007868FFF72DFF00BF0837BD4680BD80B53B
:10242C0086B000AF0346B9607A60FB7300237B6112
:10243C00FFF742FF78617A68B9687869FFF790FF17
:10244C00024697F90F3011461846FFF75FFF00BFA1
:10245C001837BD4680BD80B582B000AF0346FB7116
:10246C0097F907301846FFF735FF00BF0837BD4610
:10247C0080BD80B582B000AF78607868FFF7A2FFAE
:10248C00034618460837BD4680BD000080B48BB0AB
:10249C0000AF7860396000237B6200233B6248E127
:1024AC0001227B6A02FA03F3FB613B681B68FA6941
:1024BC001340BB61BA69FB699A4240F037813B68B3
:1024CC005B68A34A93425ED0A14A934275D8A14A55
:1024DC00934258D09F4A93426FD89F4A934252D00E
:1024EC009D4A934269D89D4A93424CD09B4A934251
:1024FC0063D89B4A934246D0994A93425DD8122B9B
:10250C002AD8122B59D801A252F823F0932500088F
:10251C006D2500087F250008C1250008C725000887
:10252C00C7250008C7250008C7250008C7250008CF
:10253C00C7250008C7250008C7250008C7250008BF
:10254C00C7250008C7250008C7250008C7250008AF
:10255C007525000889250008824A934213D02CE087
:10256C003B68DB683B6229E03B68DB6804333B6219
:10257C0024E03B68DB6808333B621FE03B68DB68A8
:10258C000C333B621AE03B689B68002B02D104239E
:10259C003B6213E03B689B68012B05D108233B622F
:1025AC007B68FA691A6109E008233B627B68FA6967
:1025BC005A6103E000233B6200E000BFBB69FF2BC4
:1025CC0001D87B6801E07B6804337B61BB69FF2B1E
:1025DC0002D87B6A9B0002E07B6A083B9B003B6154
:1025EC007B691A680F213B6901FA03F3DB431A403C
:1025FC00396A3B6901FA03F31A437B691A603B6839
:10260C005B6803F08053002B00F09080564B9B6965
:10261C00554A43F001039361534B9B6903F001034B
:10262C00BB60BB68514A7B6A9B08023352F823306B
:10263C00FB607B6A03F003039B000F2202FA03F397
:10264C00DB43FA681340FB607B68494A93420DD028
:10265C007B68484A934207D07B68474A934201D132
:10266C00022304E0032302E0012300E000237A6A42
:10267C0002F0030292009340FA681343FB603B495B
:10268C007B6A9B080233FA6841F823203B685B683D
:10269C0003F48013002B06D0384B9A683749BB697A
:1026AC0013438B6006E0354B9A68BB69DB433349B7
:1026BC0013408B603B685B6803F40013002B06D05F
:1026CC002E4BDA682D49BB691343CB6006E02B4BCC
:1026DC00DA68BB69DB4329491340CB603B685B6814
:1026EC0003F40033002B06D0244B5A682349BB69F2
:1026FC0013434B6006E0214B5A68BB69DB431F490F
:10270C0013404B603B685B6803F48033002B06D0AE
:10271C001A4B1A681949BB6913430B6006E0174B37
:10272C001A68BB69DB43154913400B607B6A0133A4
:10273C007B623B681A687B6A22FA03F3002B7FF4F6
:10274C00AFAE00BF00BF2C37BD4680BC704700BF8A
:10275C000000321000003110000022100000211087
:10276C000000121000001110001002400000014087
:10277C0000080140000C0140001001400004014021
:10278C0080B485B000AF78600B467B807B689A681C
:10279C007B881340002B02D00123FB7301E0002344
:1027AC00FB73FB7B18461437BD4680BC704780B466
:1027BC0083B000AF78600B467B8013467B707B78D0
:1027CC00002B03D07A887B681A6103E07B881A049B
:1027DC007B681A6100BF0C37BD4680BC704780B463
:1027EC0085B000AF78600B467B807B68DB68FB6054
:1027FC007A88FB6813401A04FB68D9437B880B402A
:10280C001A437B681A6100BF1437BD4680BC704701
:10281C0080B586B000AF78607B68002B01D10123B6
:10282C006CE27B681B6803F00103002B00F08780CF
:10283C00924B5B6803F00C03042B0CD08F4B5B6842
:10284C0003F00C03082B12D18C4B5B6803F4803320
:10285C00B3F5803F0BD1894B1B6803F40033002B7D
:10286C006CD07B685B68002B68D1012346E27B68E7
:10287C005B68B3F5803F06D1804B1B687F4A43F4FD
:10288C00803313602EE07B685B68002B0CD17B4B94
:10289C001B687A4A23F480331360784B1B68774AA1
:1028AC0023F4802313601DE07B685B68B3F5A02FD5
:1028BC000CD1724B1B68714A43F4802313606F4B2D
:1028CC001B686E4A43F4803313600BE06B4B1B6840
:1028DC006A4A23F480331360684B1B68674A23F4FD
:1028EC00802313607B685B68002B13D0FFF7B6FC6A
:1028FC00386108E0FFF7B2FC02463B69D31A642B3F
:10290C0001D90323FAE15D4B1B6803F40033002B60
:10291C00F0D014E0FFF7A2FC386108E0FFF79EFC52
:10292C0002463B69D31A642B01D90323E6E1534BCE
:10293C001B6803F40033002BF0D100E000BF7B6870
:10294C001B6803F00203002B63D04C4B5B6803F055
:10295C000C03002B0BD0494B5B6803F00C03082BCA
:10296C001CD1464B5B6803F48033002B16D1434BD0
:10297C001B6803F00203002B05D07B681B69012B3D
:10298C0001D00123BAE13D4B1B6823F0F8027B68B0
:10299C005B69DB00394913430B603AE07B681B69C8
:1029AC00002B20D0364B01221A60FFF757FC386100
:1029BC0008E0FFF753FC02463B69D31A022B01D9FE
:1029CC0003239BE12D4B1B6803F00203002BF0D07B
:1029DC002A4B1B6823F0F8027B685B69DB002749F4
:1029EC0013430B6015E0264B00221A60FFF736FCF0
:1029FC00386108E0FFF732FC02463B69D31A022B20
:102A0C0001D903237AE11D4B1B6803F00203002B51
:102A1C00F0D17B681B6803F00803002B3AD07B686D
:102A2C009B69002B19D0174B01221A60FFF716FC7B
:102A3C00386108E0FFF712FC02463B69D31A022BFF
:102A4C0001D903235AE10D4B5B6A03F00203002BFF
:102A5C00F0D0012000F09AFA1CE00A4B00221A6018
:102A6C00FFF7FCFB38610FE0FFF7F8FB02463B6910
:102A7C00D31A022B08D9032340E100BF00100240F7
:102A8C0000004242800442429E4B5B6A03F0020308
:102A9C00002BE9D17B681B6803F00403002B00F0CA
:102AAC00A6800023FB75974BDB6903F08053002B4A
:102ABC000DD1944BDB69934A43F08053D361914B16
:102ACC00DB6903F08053BB60BB680123FB758E4B45
:102ADC001B6803F48073002B18D18B4B1B688A4A3C
:102AEC0043F480731360FFF7B9FB386108E0FFF71C
:102AFC00B5FB02463B69D31A642B01D90323FDE0D5
:102B0C00814B1B6803F48073002BF0D07B68DB686F
:102B1C00012B06D17B4B1B6A7A4A43F001031362EB
:102B2C002DE07B68DB68002B0CD1764B1B6A754A59
:102B3C0023F001031362734B1B6A724A23F00403E4
:102B4C0013621CE07B68DB68052B0CD16D4B1B6A98
:102B5C006C4A43F0040313626A4B1B6A694A43F0E4
:102B6C00010313620BE0674B1B6A664A23F00103F7
:102B7C001362644B1B6A634A23F0040313627B6881
:102B8C00DB68002B15D0FFF769FB38610AE0FFF713
:102B9C0065FB02463B69D31A41F28832934201D954
:102BAC000323ABE0574B1B6A03F00203002BEED060
:102BBC0014E0FFF753FB38610AE0FFF74FFB0246C6
:102BCC003B69D31A41F28832934201D9032395E031
:102BDC004C4B1B6A03F00203002BEED1FB7D012B47
:102BEC0005D1484BDB69474A23F08053D3617B689E
:102BFC00DB69002B00F08180424B5B6803F00C0317
:102C0C00082B61D07B68DB69022B46D13F4B00223D
:102C1C001A60FFF723FB386108E0FFF71FFB024641
:102C2C003B69D31A022B01D9032367E0354B1B6890
:102C3C0003F00073002BF0D17B681B6AB3F5803F67
:102C4C0008D1304B5B6823F400327B689B682D49BC
:102C5C0013434B602B4B5B6823F474127B68196A2B
:102C6C007B685B6A0B43274913434B60274B01225C
:102C7C001A60FFF7F3FA386108E0FFF7EFFA024643
:102C8C003B69D31A022B01D9032337E01D4B1B6878
:102C9C0003F00073002BF0D02FE01C4B00221A60C5
:102CAC00FFF7DCFA386108E0FFF7D8FA02463B6917
:102CBC00D31A022B01D9032320E0124B1B6803F01B
:102CCC000073002BF0D118E07B68DB69012B01D17C
:102CDC00012313E00B4B5B68FB60FB6803F4803251
:102CEC007B681B6A9A4206D1FB6803F470127B68FE
:102CFC005B6A9A4201D0012300E000231846183782
:102D0C00BD4680BD00100240007000406000424291
:102D1C0080B584B000AF786039607B68002B01D13E
:102D2C000123D0E06A4B1B6803F007033A689A4210
:102D3C0010D9674B1B6823F0070265493B681343A6
:102D4C000B60634B1B6803F007033A689A4201D08F
:102D5C000123B8E07B681B6803F00203002B20D032
:102D6C007B681B6803F00403002B05D0594B5B6890
:102D7C00584A43F4E06353607B681B6803F0080314
:102D8C00002B05D0534B5B68524A43F4605353609D
:102D9C00504B5B6823F0F0027B689B684D491343F2
:102DAC004B607B681B6803F00103002B40D07B68F1
:102DBC005B68012B07D1474B1B6803F40033002BD6
:102DCC0015D101237FE07B685B68022B07D1414B57
:102DDC001B6803F00073002B09D1012373E03D4BFA
:102DEC001B6803F00203002B01D101236BE0394B6C
:102DFC005B6823F003027B685B68364913434B60C6
:102E0C00FFF72CFAF8600AE0FFF728FA0246FB6895
:102E1C00D31A41F28832934201D9032353E02D4B4C
:102E2C005B6803F00C027B685B689B009A42EBD1F9
:102E3C00274B1B6803F007033A689A4210D2244BC5
:102E4C001B6823F0070222493B6813430B60204B9D
:102E5C001B6803F007033A689A4201D0012332E061
:102E6C007B681B6803F00403002B08D0194B5B68CC
:102E7C0023F4E0627B68DB68164913434B607B6884
:102E8C001B6803F00803002B09D0124B5B6823F47A
:102E9C0060527B681B69DB000E4913434B6000F0EA
:102EAC0021F802460B4B5B681B0903F00F030A4920
:102EBC00CB5C22FA03F3094A1360094B1B681846D2
:102ECC00FFF78AF9002318461037BD4680BD00BFB6
:102EDC000020024000100240FC3700086000002077
:102EEC006400002080B487B000AF0023FB60002397
:102EFC00BB6000237B6100237B6000233B611E4B86
:102F0C005B68FB60FB6803F00C03042B02D0082BFE
:102F1C0003D027E0194B3B6127E0FB689B0C03F0C7
:102F2C000F03174AD35C7B60FB6803F48033002BE0
:102F3C0010D0114B5B685B0C03F00103114AD35C9E
:102F4C00BB607B680D4A02FB03F2BB68B2FBF3F378
:102F5C007B6104E07B680C4A02FB03F37B617B69B9
:102F6C003B6102E0054B3B6100BF3B6918461C37D7
:102F7C00BD4680BC704700BF0010024000127A00B2
:102F8C000C3800081C38000800093D0080B485B0DE
:102F9C0000AF78600A4B1B680A4AA2FB03235B0A4A
:102FAC007A6802FB03F3FB6000BFFB685A1EFA60F1
:102FBC00002BF9D100BF00BF1437BD4680BC704751
:102FCC0060000020D34D621080B582B000AF7860F5
:102FDC007B68002B01D1012341E07B6893F83D30E5
:102FEC00DBB2002B06D17B68002283F83C2078688A
:102FFC00FFF75AF87B68022283F83D207B681A6839
:10300C007B6804331946104600F056FA7B6801229F
:10301C0083F846207B68012283F83E207B680122DE
:10302C0083F83F207B68012283F840207B680122D3
:10303C0083F841207B68012283F842207B680122BF
:10304C0083F843207B68012283F844207B680122AB
:10305C0083F845207B68012283F83D200023184625
:10306C000837BD4680BD000080B485B000AF7860E5
:10307C007B6893F83D30DBB2012B01D0012335E0A6
:10308C007B68022283F83D207B681B68DA687B68CA
:10309C001B6842F00102DA607B681B68164A934297
:1030AC0009D07B681B68B3F1804F04D07B681B6828
:1030BC00124A934211D17B681B689B6803F007038B
:1030CC00FB60FB68062B10D07B681B681A687B685A
:1030DC001B6842F001021A6007E07B681B681A68E3
:1030EC007B681B6842F001021A60002318461437F3
:1030FC00BD4680BC704700BF002C0140000400405E
:10310C0080B584B000AF78607B681B68DB68FB60BF
:10311C007B681B681B69BB60BB6803F00203002B58
:10312C0020D0FB6803F00203002B1BD07B681B68CC
:10313C006FF002021A617B6801221A777B681B68A8
:10314C009B6903F00303002B03D0786800F098F917
:10315C0005E0786800F08BF9786800F09AF97B68E4
:10316C0000221A77BB6803F00403002B20D0FB6805
:10317C0003F00403002B1BD07B681B686FF0040268
:10318C001A617B6802221A777B681B689B6903F4BF
:10319C004073002B03D0786800F072F905E0786872
:1031AC0000F065F9786800F074F97B6800221A77F2
:1031BC00BB6803F00803002B20D0FB6803F0080366
:1031CC00002B1BD07B681B686FF008021A617B68B0
:1031DC0004221A777B681B68DB6903F00303002B5E
:1031EC0003D0786800F04CF905E0786800F03FF9FE
:1031FC00786800F04EF97B6800221A77BB6803F000
:10320C001003002B20D0FB6803F01003002B1BD005
:10321C007B681B686FF010021A617B6808221A77B2
:10322C007B681B68DB6903F44073002B03D0786860
:10323C0000F026F905E0786800F019F9786800F0DC
:10324C0028F97B6800221A77BB6803F00103002B76
:10325C000CD0FB6803F00103002B07D07B681B68C4
:10326C006FF001021A617868FEF77AFCBB6803F014
:10327C008003002B0CD0FB6803F08003002B07D0DD
:10328C007B681B686FF080021A61786800F06FFA37
:10329C00BB6803F04003002B0CD0FB6803F0400329
:1032AC00002B07D07B681B686FF040021A617868AE
:1032BC0000F0F8F8BB6803F02003002B0CD0FB687F
:1032CC0003F02003002B07D07B681B686FF02002F3
:1032DC001A61786800F042FA00BF1037BD4680BD15
:1032EC0080B584B000AF786039600023FB737B68D5
:1032FC0093F83C30012B01D10223B4E07B6801220E
:10330C0083F83C207B68022283F83D207B681B6895
:10331C009B68BB60BB6823F07703BB60BB6823F47E
:10332C007F43BB607B681B68BA689A603B681B680C
:10333C00B3F5005F3ED0B3F5005F00F28780B3F5C4
:10334C00805F00F08680B3F5805F7FD8702B1AD039
:10335C00702B7BD8602B50D0602B77D8502B3CD067
:10336C00502B73D8402B58D0402B6FD8302B64D0B7
:10337C00302B6BD8202B60D0202B67D8002B5CD047
:10338C00102B5AD062E07B6818683B6899683B68E0
:10339C005A683B68DB6800F06AF97B681B689B68BD
:1033AC00BB60BB6843F07703BB607B681B68BA6883
:1033BC009A604FE07B6818683B6899683B685A686C
:1033CC003B68DB6800F053F97B681B689A687B6884
:1033DC001B6842F480429A603CE07B6818683B684A
:1033EC0059683B68DB681A4600F0CAF87B681B68B2
:1033FC005021184600F021F92CE07B6818683B68D6
:10340C0059683B68DB681A4600F0E8F87B681B6873
:10341C006021184600F011F91CE07B6818683B68C5
:10342C0059683B68DB681A4600F0AAF87B681B6891
:10343C004021184600F001F90CE07B681A683B68E3
:10344C001B681946104600F0F8F803E00123FB73E3
:10345C0000E000BF7B68012283F83D207B680022DE
:10346C0083F83C20FB7B18461037BD4680BD80B4EA
:10347C0083B000AF786000BF0C37BD4680BC70478E
:10348C0080B483B000AF786000BF0C37BD4680BC01
:10349C00704780B483B000AF786000BF0C37BD4676
:1034AC0080BC704780B483B000AF786000BF0C372D
:1034BC00BD4680BC7047000080B485B000AF78601A
:1034CC0039607B681B68FB607B682B4A934207D092
:1034DC007B68B3F1804F03D07B68284A934208D1B4
:1034EC00FB6823F07003FB603B685B68FA6813436E
:1034FC00FB607B68204A934207D07B68B3F1804F16
:10350C0003D07B681D4A934208D1FB6823F44073B7
:10351C00FB603B68DB68FA681343FB60FB6823F0D5
:10352C0080023B685B691343FB607B68FA681A6036
:10353C003B689A687B68DA623B681A687B689A62B7
:10354C007B680D4A934203D13B681A697B681A6306
:10355C007B6801225A617B681B6903F00103002B15
:10356C0005D07B681B6923F001027B681A6100BFE0
:10357C001437BD4680BC7047002C0140000400404D
:10358C0080B487B000AFF860B9607A60FB681B6AE2
:10359C007B61FB681B6A23F00102FB681A62FB6803
:1035AC009B693B613B6923F0F0033B617B681B012A
:1035BC003A6913433B617B6923F00A037B617A69A7
:1035CC00BB6813437B61FB683A699A61FB687A6953
:1035DC001A6200BF1C37BD4680BC704780B487B0F0
:1035EC0000AFF860B9607A60FB681B6A7B61FB68AE
:1035FC001B6A23F01002FB681A62FB689B693B6133
:10360C003B6923F470433B617B681B033A691343AA
:10361C003B617B6923F0A0037B61BB681B017A696A
:10362C0013437B61FB683A699A61FB687A691A6299
:10363C0000BF1C37BD4680BC704780B485B000AF5E
:10364C00786039607B689B68FB60FB6823F07003D3
:10365C00FB603A68FB68134343F00703FB607B682D
:10366C00FA689A6000BF1437BD4680BC704780B4BE
:10367C0087B000AFF860B9607A603B60FB689B680C
:10368C007B617B6923F47F437B613B681A027B6817
:10369C001A43BB6813437A6913437B61FB687A69ED
:1036AC009A6000BF1C37BD4680BC704780B485B0A3
:1036BC0000AF786039607B6893F83C30012B01D106
:1036CC00022341E07B68012283F83C207B680222C4
:1036DC0083F83D207B681B685B68FB607B681B681C
:1036EC009B68BB60FB6823F07003FB603B681B6846
:1036FC00FA681343FB607B681B68FA685A607B6846
:10370C001B68144A934209D07B681B68B3F1804F45
:10371C0004D07B681B68104A93420CD1BB6823F021
:10372C008003BB603B685B68BA681343BB607B6813
:10373C001B68BA689A607B68012283F83D207B681D
:10374C00002283F83C20002318461437BD4680BC69
:10375C00704700BF002C01400004004080B483B0CF
:10376C0000AF786000BF0C37BD4680BC704780B49A
:10377C0083B000AF786000BF0C37BD4680BC70478B
:10378C0070B500260C4D0D4C641BA410A64209D13B
:10379C0000F022F800260A4D0A4C641BA410A64225
:1037AC0005D170BD55F8043B98470136EEE755F846
:1037BC00043B98470136F2E720380008203800080F
:1037CC00203800082438000803460244934200D1F4
:1037DC00704703F8011BF9E7F8B500BFF8BC08BC4B
:1037EC009E467047F8B500BFF8BC08BC9E467047B3
:1037FC000000000000000000010203040607080995
:10380C0002030405060708090A0B0C0D0E0F101015
:04381C0001020000A5
:04382000310100086A
:043824000D0100088A
:10382800010000000100000001000000010000008C
:10383800010000000100000001000000010000007C
:10384800010000000100000001000000010000006C
:103858002C010000320000002C0100000D000000C7
:10386800030000000A0000000D0000000300000033
:103878000A00000001000000010000000A0000002A
:0C38880000127A00100000000100000097
:040000050800216D61
:00000001FF
